:020000040800F2
:1000000098210020C1010008912B0008DD2900087B
:100010008D2B000849070008DD540008000000008F
:10002000000000000000000000000000A52B0008F8
:10003000B507000800000000A12B0008A92B00084C
:10004000DB010008DB010008DB010008DB01000820
:10005000DB010008DB010008DB010008DB01000810
:10006000DB010008DB010008DB010008DB01000800
:10007000DB010008DB010008DB010008DB010008F0
:10008000DB010008DB010008DB010008DB010008E0
:10009000DB010008DB010008DB010008DB010008D0
:1000A000DB010008DB010008DB010008DB010008C0
:1000B000DB010008DB010008DB010008DB010008B0
:1000C000DB010008DB010008DB010008DB010008A0
:1000D000DB010008DB010008DB010008DB01000890
:1000E000DB010008DB010008DB010008DB01000880
:1000F000DB010008DB010008DB010008DB01000870
:10010000DB010008DB010008DB010008DB0100085F
:10011000DB010008DB010008DB010008DB0100084F
:10012000DB010008DB010008DB010008DB0100083F
:10013000DB010008DB010008DB010008DB0100082F
:10014000DB010008DB010008DB010008952B00083B
:10015000DB010008DB010008DB010008A52F000817
:10016000DB010008DB010008DB010008DB010008FF
:10017000DB010008DB010008DB01000800000000D3
:10018000DB010008DB010008DB010008DB010008DF
:10019000DB010008DB010008DB010008DB010008CF
:1001A0000000000000000000DB010008DFF80CD0B8
:1001B00000F048FA00480047E15400089821002068
:1001C0000648804706480047FEE7FEE7FEE7FEE7F1
:1001D000FEE7FEE7FEE7FEE7FEE7FEE7592C000834
:1001E000AD0100082DE9F05F0546002092469B46D0
:1001F00088460646814640241BE02846414647463D
:10020000224600F057F853465A46C01A914110D37F
:1002100011461846224600F03EF82D1A67EB0108F9
:100220004F4622460120002100F035F817EB000967
:100230004E41201EA4F10104DFDC484631462A4627
:100240004346BDE8F09FD2B201E000F8012B491E01
:10025000FBD270470022F6E710B513460A46044663
:100260001946FFF7F0FF204610BD30B50B4601469A
:1002700000202022012409E021FA02F59D4205D345
:1002800003FA02F5491B04FA02F52844151EA2F1EF
:100290000102F1DC30BD202A04DB203A00FA02F131
:1002A000002070479140C2F1200320FA03F3194364
:1002B00090407047202A04DB203A21FA02F0002106
:1002C000704721FA02F3D040C2F120029140084366
:1002D000194670472DE9FE4F804681EA0300C00FA2
:1002E0000C46009021F0004123F00045B8EB0200DD
:1002F000A94105D24046214690461C460B4602467F
:1003000023F00040104347D0270DC7F30A00C3F382
:100310000A510290401A019040286BDAC3F313008F
:1003200040F4801B0098924620B10023D2EB030AD0
:1003300063EB0B0B01985946C0F140025046FFF7A2
:10034000AAFF06460D4650465946019A00F08CF920
:1003500010EB08006141002487EA115284EAE77338
:100360001A4340D0009A62B3019A012A4FEA075219
:1003700015DC001B61EB02014FF0004202EA07525C
:10038000CDE90042001C41F5801132462B4600F0B9
:100390008CF903B0BDE8F08F40462146F9E7001B19
:1003A00061EB0201001C41F5801300185B4120182D
:1003B000A2F5001747EB030140EAD570B6196D416D
:1003C00011E06D084FEA360645EAC0754FEA07525C
:1003D000001B61EB0201001C41F5801149084FEA46
:1003E00030000019514132462B4603B0BDE8F04FB2
:1003F00000F04CB90098012240000023D0EB02022B
:1004000063EBE073009821464FEAE074B8EB00001C
:1004100061EB0401E9E783F000435BE781F0004111
:1004200058E72DE9FE4F81EA030404F0004421F06F
:10043000004100944FF0000B23F0004350EA010408
:100440005ED052EA03045BD0C3F30A54C1F30A55E9
:100450002C44A4F2F3340194A0FB0254C1F3130121
:1004600041F48011C3F3130343F4801301FB0244EE
:1004700000FB034E840A970A44EA815447EA8357F3
:10048000A4FB076802958D0A05FB07854FEA932CAC
:1004900004FB0C542705029D4FEA065847EA16371D
:1004A000B5EB08056EEB070C870E920E47EA811735
:1004B00042EA8312A7FB0201B6EB0B0164EB0004D6
:1004C0002B0D43EA0C335E1844EB1C50DA465146C0
:1004D000E7FB0201C5F313044FEA0B3343EA14535D
:1004E0004FEA0432019C43EA0603A4F10C0402948F
:1004F000009CCDE900B400F0D8F803B0BDE8F08F5F
:1005000000200146F9E72DE9F04D81EA030404F0EB
:10051000004B21F0004514464FF0000A23F0004143
:1005200050EA050220D054EA01021DD0C5F30A5753
:100530000246C5F31303C1F31300C1F30A5640F496
:10054000801543F48013A7EB0608101BD64608F26B
:10055000FD3873EB050002D308F1010801E09218A1
:100560005B41B8F1000F03DA00200146BDE8F08DD1
:1005700000204FF48011064684460EE0171B73EBF3
:10058000050705D3121B63EB050306434CEA010C78
:1005900049084FEA300092185B4150EA0107EDD15B
:1005A00052EA030012D082EA040083EA05010843FC
:1005B00005D0101BAB4106D20122002306E0002229
:1005C0004FF0004302E06FF0010253101AEB0600F7
:1005D0004CEB085110EB0A0041EB0B01BDE8F04D6C
:1005E00000F054B8C1F30A52C1F3130140F2FF33D3
:1005F00041F480119A4202DA00200146704740F22D
:1006000033439A42A2F2334202DC5242FFF752BE17
:10061000FFF741BE30B5041E71F1000404DB4FF05A
:100620000044404264EB0101141E73F1000405DB39
:100630001C464FF00043524263EB0403994208BF4B
:10064000904230BD064C074D06E0E06840F00103E3
:1006500094E8070098471034AC42F6D3FFF7AAFDA0
:100660009C5E0008BC5E0008202A06DBCB17203AFF
:1006700041FA02F043EAE07306E041FA02F3D040A7
:10068000C2F12002914008431946704710B5141E6C
:1006900073F1000408DA401C41F1000192185B413B
:1006A0001A4301D120F0010010BD2DE9F04D924612
:1006B0009B4611B1B1FA81F202E0B0FA80F2203229
:1006C0009046FFF7E8FD04460F4640EA0A0041EA7B
:1006D0000B0153465A46084313D0114653EA010012
:1006E00019D0C8F140025046FFF7E4FD05460E461A
:1006F000504659464246FFF7CEFD084305D001203B
:1007000004E020463946BDE8F08D0020054346EA66
:10071000E0762C4337430A986305E40AA0EB08000F
:100720000022FD0A44EA47540A3002D5002001465F
:10073000E9E7010510196941DDE90845001969413A
:10074000BDE8F04DA2E70000FEE700000020704782
:100750000020704710B541F22054C2F2000440F668
:100760002051C2F200012046002202F0EFFD40F2CB
:100770002051C2F20001204602F0DAFD002010BD37
:1007800010B541F22054C2F200040146204602F0A6
:10079000CFFD204602F0A6FD02A003F0FFFD0020E1
:1007A00010BD00BFCAD5B5BDCAFDBEDD0A00000040
:1007B0000020704770470000EFF3108072B600BF52
:1007C000FEE7000070B5866D044600F04BF994F822
:1007D0003510022928D105462068216C026822F0D4
:1007E00016020260426922F08002426109B9A16CDE
:1007F00019B1016821F008010160016821F00101CF
:10080000016000BF20680068C00715D000F02AF919
:10081000401B0628F6D320206065032084F83500AD
:10082000002184F8341070BD802060650120002113
:1008300084F8341070BD00BFE06D3F2101FA00F074
:10084000B060012084F835000020002184F83410C5
:1008500070BD000090F83510022909D1052180F8FB
:1008600035100068016821F0010101600020704727
:100870008021416501207047B0B5044600F0F2F8D0
:10088000054640F20000C2F200000078611C18BF6B
:10089000044400BF00F0E6F8401BA042FAD3B0BD0C
:1008A0002DE9F04F82B000F13E4242F2004502F1E4
:1008B000FF77C4F202050A2243F6004E4FEAB7263C
:1008C000A84208BF0922C4F2010E092E38BF4FEA20
:1008D000B7220125002600274FF00008009208E00B
:1008E00008F101080437B8F1100F06F1020600F014
:1008F000A7800C6805FA08F914EA090FF0D0D1F8BE
:1009000004B003220BF0030CACF10104B240012C43
:100910006FEA020A10D88268CC6802EA0A02B44080
:10092000224382604268CBF3001422EA090204FAEF
:1009300008F42243426005E0BCF1030F02D14FF0FE
:10094000030C20E0C2688C6802EA0A02B440224329
:10095000BCF1020FC26016D16FF0030202EA580226
:100960000244D2F820C007F01C050F230C69AB40ED
:100970002CEA030304FA05F52B431362D1F804B003
:1009800001250BF0030C02680CFA06F302EA0A02D6
:100990001A431BF4403F0260A2D0002243F64403F6
:1009A0000192C4F202031A684FF6084C42F48042E6
:1009B0001A601A68CFF6FF7C02F480420192019A15
:1009C00028F00302724452F80C3007F00C050F2493
:1009D000AC40A343009C04FA05F52B4342F80C30CD
:1009E000DEF808204B6842EA090543F60C4CDC02AD
:1009F00058BF22EA0905CEF80850C4F2010CDCF811
:100A000000209C0242EA090558BF22EA0905CCF8F9
:100A10000050DEF804209C0342EA090558BF22EA90
:100A20000905CEF80450DEF80020DB0342EA090590
:100A300058BF22EA0905CEF80050012550E700BF53
:100A400002B0BDE8F08F0000426902EA0103914361
:100A500041EA034181617047002A08BF09048161AE
:100A60007047000041F69450C2F2000000687047E1
:100A700040F2000041F69451C2F20000C2F20001BF
:100A800000780A68104408607047000080B543F69B
:100A90000040C4F20200016841F400710160016885
:100AA00041F480610160016841F4807101600320BC
:100AB00000F088F80F2000F005F800F027F800207B
:100AC00080BD000070B540F20006C2F2000640F2A0
:100AD00024013278C2F200014FF47A730968B3FB43
:100AE000F2F20446B1FBF2F1084601F0F3FA0F2CE2
:100AF0004FF0010508D838B94FF0FF3021460022E9
:100B0000002500F033F87460284670BD82B00020E4
:100B100043F640010190C4F202014A6842F4804267
:100B20004A604A6802F480420192019A0090086883
:100B300040F080500860086800F0805000900098F5
:100B400002B07047002848BF7047C1B200F01F00D4
:100B5000012202FA00F04EF20012CEF2000242EA46
:100B6000D10121F0030108607047000010B54EF676
:100B70000C5CCEF2000CDCF80030C3F3022E8EF0D9
:100B80000704042C28BF0424BEF103034FF0FF3EEA
:100B90000EFA04F438BF0023A14399400EFA03F380
:100BA0009A43114300F00F0200F160430901043A37
:100BB00003F564436244002848BF02F10C03197036
:100BC00010BD00004EF60C51CEF200010A684FF63F
:100BD000FF031A4060F30A2242F0806040F0FD708B
:100BE000086070477047000002680020516270473B
:100BF0002DE9F043D0F80090D9F82400A1B1D9F83C
:100C00002830B1F1010800EB13435DD0A8F10100D9
:100C1000C0B2032808F0030C0ED24FF0010E0027DB
:100C2000BCF1000F33D14FE040EA0240C9F8280080
:100C30000020BDE8F08300BF08F0FC0E09F1F404C9
:100C4000002009F5827500BF54F8107F064603EBBB
:100C5000174046F00103DBB246F0020755F8233097
:100C6000FFB255F8277000EB134000EB174346F036
:100C70000300C0B255F82010301DC7B2774503EB12
:100C80001143E1D106F1050EBCF1000F1CD009EBB8
:100C90008700D0F80401BCF1010F03EB104313D01F
:100CA0005FFA8EF009EB8000D0F80401BCF1020F6E
:100CB00003EB104308D00EF10100C0B209EB800035
:100CC000D0F8040103EB104343EA024009EB88012A
:100CD000C1F804010020BDE8F0830000D0F8080549
:100CE00002F0DCBE01EBC102D0F8083500EB820057
:100CF000C26C184602F03ABE01EBC102D0F80835CA
:100D000000EB8200D0F88C22184602F08BBE000067
:100D1000D0F8080502F0C4BE10B5044648B2B0F1E0
:100D2000FF3F01F00F0000EBC00104EB810205DD85
:100D300002F51F71002382F87D3204E0012302F1E5
:100D40003C0182F83D3094F8BC240870012A04BFAD
:100D5000022010BD2068012284F8BC2403F08EFC20
:100D6000002084F8BC0410BDB0B54268044601F010
:100D70000F0082423CBF0120B0BD49B2B1F1FF3F3C
:100D80000ADD00EBC00104EB810202F51F710023B4
:100D900082F87D3209E000BF00EBC00104EB810264
:100DA000012302F13C0182F83D3094F8BC24002577
:100DB000012A8D70087004BF0220B0BD2068012296
:100DC00084F8BC2403F0BCFF284684F8BC54B0BDB2
:100DD00001F00F0101EBC10100EB8100D0F89C0292
:100DE0007047000070B5064648B2B0F1FF3F01F011
:100DF0000F0000EBC00107DD06EB810404F51F7155
:100E0000002584F87D5206E006EB810C01240CF1EC
:100E10003C018CF83D404D780870002DCA600B7184
:100E200018BF0881022B04BF0020487196F8BC044B
:100E3000012804BF022070BD3068012286F8BC245E
:100E400003F0DAFA002086F8BC0470BD80B501F02A
:100E50000F0C0CEBCC0100EB810ECEF8943200238A
:100E6000CEF89C328EF87D320369CEF88C22012BAD
:100E70008EF87CC208BFCEF8902200680EF51F7174
:100E8000DAB2BCF1000F03D003F0A4FF002080BD54
:100E900003F0AAFE002080BDB0B50446406801F012
:100EA0000F05854284BF0120B0BD48B2B0F1FF3FBD
:100EB0000ADD01EBC10004EB800000F51F71002288
:100EC00080F87D2209E000BF05EBC50004EB80003F
:100ED000012200F13C0180F83D2094F8BC0401227D
:100EE00001288A700D7004BF0220B0BD206884F80C
:100EF000BC2403F04FFF1DB1002084F8BC04B0BD3A
:100F00002068217C04F2C44203F0ECFE002084F847
:100F1000BC04B0BD10B501F00F0C0CEBCC0100EB24
:100F2000810E714601F83CCF8B6100230B6203698F
:100F300001244C70012B0A6108BFCEF850200068D4
:100F4000DAB2BCF1000F03D003F044FF002010BD63
:100F500003F04AFE002010BD2DE9F04F89B005686E
:100F60000646284604F028F910B109B0BDE8F08F14
:100F7000306804F04FF90028F7D0D5F80808C0F31E
:100F80000D213068C6F8FC1404F044F901463068BD
:100F9000890703D5416901F00201416105F5006748
:100FA00004F038F901463068C906089604953CD526
:100FB000816921F0100181612C6AC4F34340062845
:100FC00004F00F051AD0022829D147F6F07014EA70
:100FD000000824D005EBC50006EB8009D9F88C1277
:100FE0004FEA18140498224604F018F9D9F88C0234
:100FF00000EB1810C9F88C0208E000BF049806F254
:10100000C441082204F00AF9C4F30A1405EBC50030
:1010100006EB8000D0F89C122144C0F89C12306886
:10102000816941F010018161049D039704F0F2F899
:10103000000340F1EB800898006804F0C9F800282C
:1010400000F0E480064608984FF4306400F2C44192
:1010500000F527784FF0000B079118E028190221BE
:1010600081605FEA8A6042BF2819202181605FEABF
:101070008A4042BF28194FF4005181600BF1010BE7
:10108000760804F1200408F1240800F0BF80F0077E
:10109000F4D008985FFA8BF90068494604F0B2F87A
:1010A0008246C00762D0281901218160089F3868F4
:1010B0002118036C8A683F69012F29D1170735D49D
:1010C000970600F19B8012F0280F4FD143F20B07D7
:1010D000C4F65477BB4202D312F400422FD158F821
:1010E000042C0969BBF1000F6FF3DF41A2EB010192
:1010F000C8F8001035D1089BD3F89422002A00F0DC
:101100008380D3F88C020844C3F88C0229E000BF26
:1011100043F20B07C4F65477FF37BB4216D11004D5
:101120000DD4900644BF202088601AE043F20B00E3
:10113000C4F65470834219D312F4004016D04FF411
:10114000004088605FEA0A7013D437E0BBF1000FFB
:1011500007D10899D1F8941219B90021079A03F020
:10116000C1FD08984946FFF7C7FD00BF5FEA0A7056
:1011700024D5281908218160089843F20B020068E1
:10118000C4F65472056C20448168571EBD4205D9CF
:1011900011F400411CBF4FF400418160089800F039
:1011A00089FCBD42049D09D908980069012805D130
:1011B0000898079A0068012103F094FD5FEACA606D
:1011C00042BF2819102181605FEA8A707FF549AF1C
:1011D0006869000604D50399486840F48060486057
:1011E00018F81D0C01287FF439AF002008F81D0CF9
:1011F0000898494600F048FB30E700BF202088608F
:101200005FEA0A70B5D4D9E70121A7E7DDF820B07D
:10121000DBF8000003F0FEFF400340F1D580DBF86F
:10122000000003F0CDFF002800F0CE80824605F5D7
:10123000106002900BF2C4400027019006E000BF4E
:101240005FEA5A0A07F1010700F0BE805FEACA7040
:10125000F6D0DBF80000F9B2079103F0C1FF029E5F
:101260000446C00726D0039A07F00F00516B0123F4
:1012700003FA00F021EA0000506306EB4710836098
:10128000DBF81000012811D107EBC7000BEB800041
:10129000D0E912121144C16447B9DBF8540028B9EF
:1012A000DBF80000019A012103F01CFD0799584664
:1012B000FFF718FD200742BF06EB471008218160A9
:1012C000E00642BF06EB471010218160600642BF76
:1012D00006EB471040218160A00715D52846394606
:1012E00003F000FF07EBC7000BEB800010F83F1F77
:1012F000012905D1002101700799584600F0C0FA74
:1013000006EB471002218160200699D507EBC70044
:101310000BEB8002914659F8541FC84658F8080F45
:1013200081428DD3DBF8006093465BF8485F0B1A6F
:10133000AB4238BF1D46069606EB4713D3F818C9D3
:1013400005F1030E1FFA8CF5B5EB9E0F28D303F5BC
:10135000106102F14C050591D9F8001081421FD9A6
:10136000DBF80040089A081AA0422968167C38BFAA
:101370000446DDE90602A3B2009604F079F8286875
:10138000D8F800102044286008190599C8F8000012
:101390008969E21C89B2B1EB920FDDD2D9F8001055
:1013A000DDF820B0049D81423FF64AAF069B07F06E
:1013B0000F00D3F83418012202FA00F021EA0000ED
:1013C000C3F834083CE700BFDBF8000003F022FF5D
:1013D000002825D4DBF80000DDF80C8003F01AFFAC
:1013E00000053ED4DBF8000003F014FFC00449D52B
:1013F000D8F80400102120F00100C8F80400DBF840
:10140000000003F06FFEDBF80400002800F0F78016
:10141000411E032900F0030C38D20021A2E000BFD6
:10142000DDF80C80D8F8040020F00100C8F80400B2
:101430009BF8F404012807D100208BF8F4045846E7
:101440000021FFF7CFFB02E0584600F017FBDBF866
:101450000000416901F00041416103F0DBFE00053D
:10146000C0D5D8F80800C00702D0584600F04AFBA3
:10147000DBF80000416901F40061416103F0CAFE3C
:10148000C004B5D4DBF80000EDE000BF20F0030E8F
:1014900005F536634FF6A0564FF6C0554FF6E054AB
:1014A0004FF6006000214FF67F37CFF6FF76CFF67C
:1014B000FF75CFF6FF74CFF6FF7000BFA3F518726B
:1014C00097609A59043122F400129A5143F8587CDB
:1014D00053F8602C8E4522F4001243F8602C53F828
:1014E000602C42F0006243F8602CA3F51072976004
:1014F0005A5922F400125A5143F8387C53F8402CC0
:1015000022F4001243F8402C53F8402C42F00062C1
:1015100043F8402CA3F5087297601A5922F4001280
:101520001A5143F8187C53F8202C22F4001243F887
:10153000202C53F8202C42F0006243F8202CA3F515
:10154000007297601A5822F400121A509F601A68AD
:1015500022F400121A601A6842F000621A6003F165
:101560008003ABD1049DBCF1000F48D005F510609D
:1015700000EB41124FF67F334F019360C65905F5DA
:10158000306226F40016C65102EB4116B360D659FC
:10159000BCF1010F26F40016D651D65946F000666C
:1015A000D6512CD04F1C00EB47157E01AB608559FE
:1015B00002EB471725F400158551BB609359BCF128
:1015C000020F23F400139351935943F00063935196
:1015D00015D0023100EB41174FF67F364B01BE604C
:1015E000C75827F40017C75002EB41108660D05847
:1015F00020F40010D050D05840F00060D050D8F8FF
:101600001C0040F00110C8F81C00DBF8300048B1A5
:10161000D8F8840040F00B00C8F8840008F14400BA
:1016200009E000BFD8F8140042F22B010843C8F8C3
:10163000140008F1100001680BF2C44241F00B01E4
:101640000160D8F8000020F4FE60C8F80000DBF864
:1016500000009BF8101003F045FBDBF80000416927
:1016600001F48051416103F0D5FD0146DBF8000033
:1016700089041AD502F002FFDBF8000003F08EFDAA
:10168000DBF80040CBF80C0000F006FB9BF80C20C8
:101690000146204603F05CFE584600F0D9F9DBF81D
:1016A0000000416901F40051416103F0B3FD0007FE
:1016B00006D4DBF8000003F0ADFD00060DD435E0E4
:1016C000584600F0DFF9DBF80000416901F008013D
:1016D000416103F09FFD000628D50499886920F038
:1016E00080008861DBF8040002281FD3012440F247
:1016F000A32504E00134844205F1240516D21BF829
:1017000005100129F6D104F00F0000EBC0000BEB2F
:1017100080022006DBF8000002F13C0158BF02F510
:101720001F7103F04FFCDBF80400E3E7DBF8000077
:1017300003F070FDC0024FD4DBF8000003F06AFD37
:10174000049D800240F17E80DBF8041002292AD338
:1017500005F5326001390BF52972012305E000BF60
:101760002030013902F124021DD007681678012EBD
:10177000F6D1B7F1FF3FF3DCDBF8FC6407F4803708
:1017800006F00106B742EBD102F8013CAF6947F021
:101790008007AF616F693F06E2D4D8F8040040F4D7
:1017A0000070C8F80400DBF80000416901F4001182
:1017B000416103F02FFD40004AD55846FFF78EFAED
:1017C000DBF80000416901F08041416103F022FD36
:1017D00040077FF5CAAB42E0DBF80400022825D3BE
:1017E00004990BF1640501F512640126012705E057
:1017F00001372034874205F1240517D221682A7861
:10180000012AF5D1B1F1FF3FF2DC07F00F0000EB48
:10181000C0000BEB8001DBF800003C3105F8016CE7
:1018200003F0D0FBDBF80400E2E700BFDBF80000C8
:10183000416901F48011416103F0ECFC049D8002D8
:101840003FF582AFDBF8000003F0E4FC4000B4D4C5
:10185000DBF8000003F0DEFC40077FF586ABDBF829
:1018600000004468610704D55846FFF751FADBF8D9
:10187000000041682143416009B0BDE8F08F0000DD
:10188000D0F8080502F06AB9D0F8080502F07AB974
:101890002DE9F04F8BB0002800F0868004460568E3
:1018A00090F8BD0428B9002084F8BC04204600F05C
:1018B0008FF8032084F8BD04E86BC0055CBF0020EE
:1018C0002061206803F088F9206804F11C0A0A905E
:1018D000D4E90C5004F1040E9AE8C0079EE80E58B3
:1018E000CDE9085003A880E8C0030A988DE80058A5
:1018F000CDF81CA002F0D2FD002852D120680021B2
:10190000002503F0E1FC616861B30120002300229F
:1019100003EBC30304EB830787F83C20D3B2013207
:10192000A7F84430D3B2994287F83D0087F8405079
:10193000C7E912557D65EBD800200023002200BFC7
:1019400003EBC30304EB830787F87C220132D3B295
:10195000994287F87D0287F88002C7E9A200C7F89C
:101960009402EDD8A06822680A90D4E90C5004F1E2
:10197000140E04F1240AD4E903379EE840589AE88B
:101980000007CDE9085002A880E8005810460A9ADE
:10199000CDE90076CDE90589CDF81CA002F0D2FE94
:1019A00040B1022084F8BD04012528460BB0BDE8F3
:1019B000F08F00BF0025012084F8385084F8BD0462
:1019C000206802F0AFFE28460BB0BDE8F08F0000A3
:1019D000B0B586B00068B0F1A04F01D006B0B0BD80
:1019E000002543F630040195C4F20204206801A9E1
:1019F00040F001002060206800F001000190019893
:101A00004FF4C05001900220CDE90205032004905C
:101A10000A2005900020C4F20200FEF741FF606832
:101A2000002140F08000606000956069002240F471
:101A300080406061606900F480400090009843201D
:101A4000FFF794F84320FFF77DF806B0B0BD000023
:101A500010B50446C06828B1022818BFFEF7ACFED6
:101A6000012100E00021D4F8080502F011F9D4F8B2
:101A70000805BDE8104002F0BFB80000D0F8080526
:101A800002F0EEB8D0F8080502F0F4B810B504463C
:101A900090F8BC04012804BF022010BD012084F886
:101AA000BC0484F83810206803F040FC002084F85F
:101AB000BC0410BDD0F8082500F2C441104602F065
:101AC000FDB8000010B5044690F8BC04012804BF1E
:101AD000022010BDA16A20680122012984F8BC24DB
:101AE00006D1A169012903D0816B41F48031816362
:101AF00003F0F0FA206802F005FE002084F8BC0430
:101B000010BD000010B50446D0F8080502F02CF90D
:101B10002068D0F8001E41F00101C0F8001E206AC4
:101B2000002808BF10BD4EF61050CEF2000001682C
:101B300041F00601016010BD2DE9F041002800F0E0
:101B40008B8043F60808C4F202080446D8F8F8036C
:101B50000D4600F00F00884207D288F8F853D8F8F5
:101B6000F80300F00F00A84276D12068810717D54E
:101B7000410705D5D8F8001041F4E051C8F800102D
:101B8000010705D5D8F8001041F46041C8F80010ED
:101B9000D8F80010A26821F0F0011143C8F8001035
:101BA000C0073FD1D8F8F80300F00F00A84207D9CA
:101BB00088F8F853D8F8F80300F00F00A8424BD18A
:101BC0002068410707D5D8F80010E26821F4E051F9
:101BD0001143C8F80010000708D5D8F800002169A3
:101BE00020F4604040EAC100C8F8000000F082F82C
:101BF000D8F8001045F68462C1F30311C0F6000264
:101C0000515C40F2240220FA01F140F20400C2F2D9
:101C100000000068C2F200021160FEF753FF0020CE
:101C2000BDE8F0816068811E022907D258F8081CBF
:101C300089015CBF0120BDE8F08111E0012807D1D6
:101C400058F8081C89035CBF0120BDE8F08107E05B
:101C500058F8081C890703D40120BDE8F08100BFB3
:101C6000D8F8001021F003010843C8F80000FEF77F
:101C7000F9FE064641F28837D8F80000616800F0A6
:101C80000C00B0EB810F8DD0FEF7ECFE801BB8424C
:101C9000F2D90320BDE8F08140F22400C2F2000036
:101CA0000068704740F2240043F60801C2F20000C9
:101CB000C4F202010068096845F69462C1F382210A
:101CC000C0F60002515CC8407047000040F224009A
:101CD00043F60801C2F20000C4F20201006809687C
:101CE00045F69462C1F34231C0F60002515CC8402F
:101CF0007047000010B543F60404C4F202046068A3
:101D000000F00C0008280BD0042819BF42F2004054
:101D1000C0F2F40041F60030C0F2B70010BD00BFC1
:101D2000206821682368490241F60031C0F2B701FA
:101D300000F03F02C3F388105CBF42F20041C0F2E2
:101D4000F401A1FB00010023FEF74CFA21680222F6
:101D5000C1F3014102EB4101B0FBF1F010BD000005
:101D60002DE9F04182B0002868D00446007843F69F
:101D70000006C007C4F202060BD0B06800F00C00E9
:101D8000042840F09F803068800302D560680028F6
:101D900054D0207880071AD5B06810F00C0F09D005
:101DA000B06800F00C00082840F0A680706840027F
:101DB00000F1A2803068800702D5E06801283DD19B
:101DC0003068216920F0F80040EAC10030602078D6
:101DD000000737D4207840074CD4A56955B3B068C4
:101DE00000F00C00082840F0BB80012D26D0706860
:101DF000E16900F480028A4220D1216A00F03F02AA
:101E00008A421BD147F6C071626A0140B1EB821F62
:101E100014D1A16A4FF6FF73C903994300F440320D
:101E2000A1F580318A4209D1E16A00F07060B0EB1F
:101E3000016F03D1002002B0BDE8F081012002B0A3
:101E4000BDE8F0816069002840F20000C4F247203C
:101E500076D00121C0F8801EFEF704FE054600BFC3
:101E6000706F8007B6D4FEF7FDFD401B0228F7D93E
:101E7000DDE000BF306C10F080580AD100200190E6
:101E8000306C40F080503064306C00F08050019035
:101E9000019847F20007C4F200073868C00541D432
:101EA000386840F480703860FEF7DCFD054600BFFE
:101EB0003868C00536D4FEF7D5FD401B0228F7D997
:101EC000B5E000BFB06800F00C00082803D17068CE
:101ED00040023FF558AF6068B0F5803F07D0B0F5DD
:101EE000A02F40F08D80306840F480203060306852
:101EF00040F4803030608DE0E068002852D000204F
:101F0000C4F2472001210160FEF7ACFD054600BF89
:101F1000306880073FF554AFFEF7A4FD401B022850
:101F2000F6D984E0A068012805D005284ED1306F8D
:101F300040F004003067306F40F0010030674FE040
:101F40000021C0F8801EFEF78DFD0546706F8007EA
:101F50007FF540AFFEF786FD401B0228F6D966E00C
:101F60000027C4F2472700203866FEF77BFD022DCC
:101F700005460BD1306880015ED5FEF773FD401B2E
:101F800002284FF00300F5D955E700BF3068800103
:101F90007FF550AFFEF766FD401B02284FF00300AF
:101FA000F4D948E70020C4F2472000210160FEF781
:101FB00059FD0546306880077FF509AFFEF752FDF1
:101FC000401B02284FF00300F4D934E7316F00289A
:101FD00021F001013167316F21F0040131674DD0EB
:101FE000FEF740FD054641F2883700BF306F80079D
:101FF00056D4FEF737FD401BB842F7D917E000BFB3
:102000003168002821F480313160316821F4802169
:1020100031604FD0FEF726FD054600BF30688003D3
:102020003FF5B7AEFEF71EFD401B6428F6D903202E
:1020300002B0BDE8F08100BF04F11C052FCD0843BC
:1020400040EA8210D9034FF6FF729143A1F5803127
:1020500040EA05600843706001203866FEF702FD23
:10206000044600BF306880013FF5E4AEFEF7FAFC9D
:10207000001B02284FF00300F4D9DCE6FEF7F2FC67
:10208000054641F2883700BF306F800708D5FEF75C
:10209000E9FC401BB8424FF00300F5D9CBE600BF86
:1020A000B8F1000F7FF499AE306C20F080503064AE
:1020B00093E600BFFEF7D6FC054600BF30688003FC
:1020C0007FF567AEFEF7CEFC401B64284FF003009F
:1020D000F4D9B0E6411E0020B0EB116F1CBF012007
:1020E00070474EF21002CEF2000251604EF62351BC
:1020F000CEF20001F0230B70072190601160704751
:1021000010B590F83C20012A4FF0020251D080F81F
:102110003D200268D2F804E0D2F808C00C682EF026
:102120007003234341F2FF74C4F20004A2425360DF
:102130000EDC40F2FF73C4F200039A4216DCB2F1E7
:10214000804F2BD040F20043C4F2000324E000BFD4
:1021500040F2FF33C4F201039A4213DC41F600035C
:10216000C4F200039A4219D0002313E040F60003A2
:10217000C4F200039A4211D040F60043C4F20003B7
:102180000AE000BF44F20003C4F201039A4205D002
:1021900040F20043C4F201039A4204D149682CF092
:1021A0008003194391600121002280F83D1080F8DE
:1021B0003C20104610BD0000002804BF01207047DD
:1021C0002DE9F047044690F83D000D4628B900205F
:1021D00084F83C00204600F049F8022084F83D00D5
:1021E000206844F20702816891438160211D00F05C
:1021F0003DFD20684FF6FF7881688269D0F820C0E5
:10220000D5E9003ED5E9026A43EA0109AB6922EA51
:10221000080246EA03234FF6FC46B343D5E90767B5
:1022200042EA0A0229691A4342EA062242EA0111F5
:102230002CF0AA026B6942EA0E0241EA073142EA37
:102240000312C0F8089081610262012084F8460000
:1022500084F83E0084F83F0084F8420084F843008C
:1022600084F83D000020BDE8F087000080B586B00E
:102270000068B0F1804F01D006B080BD002043F669
:1022800030010190C4F202010A6942F001020A61C0
:102290000A6902F001020192019A01900A6842F073
:1022A00001020A60096801F001010191019903210D
:1022B00001910221CDE90210049001200590002037
:1022C000C4F2020001A9FEF7EBFA06B080BD0000DF
:1022D00080B590F83E2090F83F3090F842E090F8BA
:1022E00043C004290AD0B9B9012A4FF0010208BF3E
:1022F000BEF1010F34D0104680BD00BF012B4FF05E
:10230000010208BFBCF1010FF5D1022180F83F1096
:1023100080F8431000681EE0012A4FF0010208BF58
:10232000012BE8D1BEF1010FE5D1BCF1010FE2D1E3
:10233000022280F83E2080F83F2080F8422080F87A
:10234000432091B10068016A21F001010162016A34
:1023500041F00101016210216FF0100209E000BF9D
:10236000022180F83E1080F84210006801216FF0D1
:102370000102036A1A400262026A114301620168A3
:10238000002241F001010160104680BD704700004D
:1023900070470000B0B582B0044600680168C368A9
:1023A000426901F02F05202D03F0200506D12DB143
:1023B000204602B0BDE8B04000F0FCBC5FEA017C02
:1023C0001EBF02F0010E03F4907212EB0E0253D105
:1023D000226B012A05D111F0100218BF13F0100270
:1023E00036D10A0622D513F080021FD094F83D1092
:1023F00021293FD1A168B1F5805F03D1216900296E
:1024000000F07282216A4A1C226209784160E18CE4
:1024100001390A04E1842DD1C16821F08001C16035
:10242000C16841F04001C16002B0B0BD490621D58C
:1024300013F040011ED0C16821F04001C16020218D
:10244000204684F83D1002B0BDE8B04000F0C4BAA8
:102450000021019101680191416801910199406950
:10246000400613D4A08DE18DE28D002A18BF88426A
:1024700040F0BE8102B0B0BDCA0718BF13F480722D
:1024800040F0BA804A0700F1BD80C2E0A16B086845
:10249000426893B2002BEDD0A08D8342EAD2E28550
:1024A000C969B1F5807F00F09D80206850E8030F76
:1024B000216820F4807041E80302DAB1206850E816
:1024C000030F216820F4807041E8030292B1206874
:1024D00050E8030F216820F4807041E803024AB1FC
:1024E000206850E8030F216820F4807041E803025F
:1024F000002ADAD1206850E8050F216820F0010099
:1025000041E80502DAB1206850E8050F216820F0A3
:10251000010041E8050292B1206850E8050F2168EA
:1025200020F0010041E805024AB1206850E8050F9B
:10253000216820F0010041E80502002ADAD1206874
:1025400050E8050F216820F0400041E80502DAB1AB
:10255000206850E8050F216820F0400041E805029E
:1025600092B1206850E8050F216820F0400041E852
:1025700005024AB1206850E8050F216820F04000AC
:1025800041E80502002ADAD1202084F83E0000202C
:102590002063206850E8030F216820F0100041E814
:1025A0000302DAB1206850E8030F216820F0100020
:1025B00041E8030292B1206850E8030F216820F03F
:1025C000100041E803024AB1206850E8030F216877
:1025D00020F0100041E80302002ADAD1A06BFEF7D8
:1025E000F1F8A08DE18D401A81B2204602B0BDE81D
:1025F000B040FFF7CBBE00BF226C42F00102226464
:102600004A0706D5BEF1000F03D0226C42F0020249
:1026100022648A0706D5BEF1000F03D0226C42F077
:1026200004022264BCF1000F09D545EA0E02B2FA99
:1026300082F2520903D1226C42F008022264226C19
:10264000002A3FF417AF11F0200118BF002D03D06E
:10265000204600F0AFFB20684069216C00F040008C
:1026600001F00801401800F0B58000BF206850E874
:10267000030F216820F4907041E80302BAB3206888
:1026800050E8030F216820F4907041E8030272B310
:10269000206850E8030F216820F4907041E803029D
:1026A0002AB3206850E8030F216820F4907041E8B5
:1026B0000302002ADAD11AE0206850E8050F2168E9
:1026C00020F0010041E80502DAB1206850E8050F6A
:1026D000216820F0010041E8050292B1206850E82D
:1026E000050F216820F0010041E805024AB1206889
:1026F00050E8050F216820F0010041E80502002A9A
:10270000DAD1206B012824D1206850E8030F21681A
:1027100020F0100041E80302DAB1206850E8030F0E
:10272000216820F0100041E8030292B1206850E8CF
:10273000030F216820F0100041E803024AB120682D
:1027400050E8030F216820F0100041E80302002A3E
:10275000DAD1202084F83E00002020632068406900
:1027600040063FD5206850E8050F216820F0400062
:1027700041E80502DAB1206850E8050F216820F031
:10278000400041E8050292B1206850E8050F216839
:1027900020F0400041E805024AB1206850E8050FEA
:1027A000216820F0400041E80502002ADAD1A06B40
:1027B000C0B142F6A951C0F600010165FEF74AF822
:1027C00000283FF457AEA06B016D02B0BDE8B040E9
:1027D000084700BF2046FFF7DBFD0020206402B061
:1027E000B0BD00BF204602B0BDE8B040FFF7D0BD8D
:1027F000401A216851E8031F226821F4907142E8D1
:102800000313DBB1216851E8031F226821F49071A2
:1028100042E8031393B1216851E8031F226821F4B1
:10282000907142E803134BB1216851E8031F2268FD
:1028300021F4907142E80313002BDAD1216851E8AA
:10284000051F226821F0010142E80513DBB1216870
:1028500051E8051F226821F0010142E8051393B1F8
:10286000216851E8051F226821F0010142E80513A3
:102870004BB1216851E8051F226821F0010142E8AF
:102880000513002BDAD1202184F83E1000212163AA
:10289000216851E8031F226821F0100142E8031368
:1028A000002B3FF4A1AE216851E8031F226821F0FC
:1028B000100142E80313002B3FF496AE216851E863
:1028C000031F226821F0100142E80313002B3FF49C
:1028D0008BAE216851E8031F226821F0100142E805
:1028E0000313002BD4D17FE6216A31F8022B6FF35A
:1028F0005F22426021628AE5002804BF0120704700
:1029000010B5044690F83D0028B9002084F83C003A
:10291000204600F021F8242084F83D002068C1689A
:1029200021F40051C160204600F0C4FA206801691A
:1029300021F490410161416921F02A014161C1689E
:1029400041F40051C16000202021206484F83D1032
:1029500084F83E1010BD000080B586B0016841F2D9
:102960000040C4F20100814202D006B080BD00BF29
:10297000002143F630020191C4F20202536900F5CE
:10298000823043F020035361536903F02003019325
:10299000019B0191136843F040031360126802F039
:1029A00040020192019A4FF4844201920222CDE941
:1029B0000221032104910821059101A9FDF770FF6F
:1029C000472000210022FEF7D1F84720FEF7BAF891
:1029D00006B080BD7047000070470000FEE70000B1
:1029E00070B586B0002543F6300005950095C4F219
:1029F0000200016841F2004441F0400101600168B9
:102A0000C4F2020401F040010091009900950168B0
:102A1000002241F00101016001684FF4804601F09D
:102A20000101009100990095016841F08001016069
:102A3000016801F08001009100990095016841F062
:102A40002001016000684FF4804100F020000090F8
:102A500000982046FEF700F80120CDE9020501A903
:102A6000204601960495FDF71BFF06B070BD0000DF
:102A700080B58CB041F60850C2F200004FF08042A1
:102A80004823C0E9002380220021826103224FF6FF
:102A9000FF7CCDE9032101220623CDE90011C0E925
:102AA000021C0161CDE90521CDE90731CDE90921FC
:102AB00003A90B93FFF780FB002818BFFDF77CFEEE
:102AC00041F60850C2F200006946FFF719FB0028E2
:102AD00018BFFDF771FE0CB080BD000080B541F657
:102AE000505041F20041C2F20000C4F20101002343
:102AF0004FF00C0C4FF4E13280E80E00C0E90333D4
:102B0000C0E905C3C361FFF7F7FE002808BF80BD19
:102B1000BDE88040FDF750BE80B541F2205040F244
:102B20000801C2F20000C2F20001002200F0E4FE3F
:102B3000002818BFFDF740FE41F2205040F2280166
:102B4000C2F20000C2F2000101F036F9002818BFFD
:102B5000FDF732FE41F2205040F2C401C2F2000003
:102B6000C2F2000100F0D8FB002818BFFDF724FED8
:102B700041F22050C2F2000001F048F9002808BFDD
:102B800080BDBDE88040FDF717BE0000FEE70000F5
:102B9000FEE7000041F2FC70C2F20000FEF7DCB973
:102BA0007047000070470000FDF762BFB0B592B0FB
:102BB000002443F64000CDE90A44CDE908440594D9
:102BC000CDE90344CDE901440094C4F20200016858
:102BD000012241F0805101600068022500F0805020
:102BE0000090009847F200000094C4F200000168D1
:102BF00062F38F310160006800F44040009000985B
:102C00004FF4803007904FF480000D9006200E9016
:102C10004820CDE90F050320119006A806920C95D7
:102C2000FFF79EF820B1EFF3108072B6FEE700BF09
:102C30000F20CDE901054FF48050CDE9040401A82F
:102C400002210394FEF778FF20B1EFF3108072B6F3
:102C5000FEE700BF12B0B0BD4EF68850CEF20000C5
:102C6000016841F4700101607047000010B540F642
:102C7000FF3E0368C4F2000E40F2004C7045C4F2FF
:102C8000010C27DCB0F1804F31D040F20042C4F299
:102C9000000290422BD040F60002C4F200029042A3
:102CA00025D041F6FF72C4F20002904229DC704543
:102CB0003CDCB0F1804F5FD040F20042C4F2000231
:102CC000904259D040F60002C4F20002904253D024
:102CD00056E000BF40F60042C4F20002904206D027
:102CE000604504D00022C4F201029042D9D14A6862
:102CF00023F07003134341F6FF72C4F200029042C6
:102D0000D5DD43F6FF72C4F20102904222DC42F2AA
:102D10000002C4F2000290422ED00022C4F201024E
:102D2000904229D0604527D02AE000BF40F60042FB
:102D3000C4F2000290421FD041F60002C4F2000229
:102D4000904219D041F60042C4F20002904213D0E2
:102D500016E000BF44F20002C4F2010290420BD020
:102D600044F60002C4F20102904205D044F200424F
:102D7000C4F20102904203D1CA6823F440731343A2
:102D800023F080024B69D1F800E08C681A4302609E
:102D9000C46240F48062C0F828E0624504BF09695B
:102DA00001630121416110BD806B0021C185C18497
:102DB000FFF7EEBA81B090F83E10222921D1836846
:102DC0000246B3F5805F09D152F8281F52F8183C2B
:102DD000002B63D003685B680AE000BF52F8281F2D
:102DE00013B90369002BF5D003685B6803F07F0318
:102DF0000B70116801311160C18D01390A04C18560
:102E000002D001B0704700BF0168CA6822F02002FA
:102E1000CA60CA6822F48072CA604A6922F001025C
:102E20004A61202180F83E10016B01293ED100212A
:102E3000016300BF016851E8031F026821F010011F
:102E400042E80313DBB1016851E8031F026821F077
:102E5000100142E8031393B1016851E8031F0268AF
:102E600021F0100142E803134BB1016851E8031F40
:102E7000026821F0100142E80313002BDAD1016847
:102E80000A68D20606D5002200920A6800924968B4
:102E900000910099818D01B0FFF778BA02685268FD
:102EA0006FF35F2221F8022B8162A5E701B0FFF7E3
:102EB00091BD000010B504460068D4E902C2236940
:102EC000016921F4405111430161626943EA0C0137
:102ED000E3691143C268194349F20C639A431143F1
:102EE000C1604169A26921F4407141F2004311437C
:102EF00040F48062C4F201039A42416102D1FEF7BC
:102F0000E5FE01E0FEF7CEFEE16963681922B1F546
:102F1000004FA0FB020123D15A00DB0FFDF762F93D
:102F200048F21F51C5F2EB11A0FB01235A094FF6DD
:102F30009C73C0F6FF7303F1805302FB030032233E
:102F400003EBC000A0FB01014FF4F87000EA111080
:102F500000EB0210C1F3421108442168886010BDE3
:102F60009A009B0FFDF73EF948F21F51C5F2EB1195
:102F7000A0FB01235A094FF69C73C0F6FF7302FBB6
:102F80000300322303EB0010A0FB0101F02000EA54
:102F9000511000EB0210C1F343110844216888600E
:102FA00010BD000041F65050C2F20000FFF7F2B928
:102FB000B0B5D0F8D42200EB8202D2F8C0323BB3D5
:102FC00001F00F058C4605EB850100EB810151F8FE
:102FD000184F64B1D0F8C8E205EBC5050EEB8505C6
:102FE000D5F848E0B4FBFEF505FB1E4595B100247D
:102FF000C3F81442D2F8C402056935B1D3F8080207
:1030000003F504716246A84700242046B0BD00BF06
:103010000320B0BD00240C6061460022002300F0B4
:10302000ADFE2046B0BD0000B0B50446D0F8D402D5
:1030300004EB8000D0F8C05295B1204600F040FD6E
:10304000D4F8D412C5F80C0204EB8101D1F8C412F3
:10305000D5F80402CA6805F5037190470020B0BD99
:103060000320B0BD70B58121044600F06DFC002541
:1030700020460121258700F067FC20468221A4F824
:10308000785100F061FCD4F8D402E56404EB8000D0
:10309000D0F8C01289B1D0F8C40240688047D4F893
:1030A000D40204F5307656F8200001F06FF9D4F818
:1030B000D40246F82050C4F8BC52002070BD000075
:1030C00010B5D0F8D41200EB8100D0F8C0428CB11A
:1030D000D0F8C41281B194F80002FF280CD08B689C
:1030E00094F8012221469847FF2084F8000200202E
:1030F00010BD00BF032010BD002010BD014640F2EE
:10310000A4000A22C2F200000A807047F0B581B024
:1031100040F26007C2F2000704463846822100F000
:103120003DFB06463846012100F038FB054638468F
:10313000812100F033FB002E1CBF1021B171002D46
:103140001CBF4021A98000281CBF40218180432151
:1031500040F26000C2F20000218001B0F0BD00002A
:10316000F0B581B040F26007C2F20007044638466D
:10317000822100F013FB06463846012100F00EFBC9
:1031800005463846812100F009FB002E1CBF1021A6
:10319000B171002D1CBF4FF40071A98000281CBF25
:1031A0004FF400718180432140F26000C2F20000C0
:1031B000218001B0F0BD0000F0B581B040F26007A1
:1031C000C2F2000704463846822100F0E7FA0646BC
:1031D0003846012100F0E2FA05463846812100F028
:1031E000DDFA002E1CBF1021B171002D1CBF402143
:1031F000A98000281CBF40218180432140F260004B
:10320000C2F20000218001B0F0BD00002DE9F041C4
:1032100004464FF4077001F0BBF800284ED04FF47D
:1032200007710546FDF716F8D4F8D402402704EBE1
:103230008000C0F8C052207CC4F8BC52002808BFEF
:103240004FF400772046812102223B46022600F0FF
:10325000ADFC4FF001082046012102223B46A4F8B4
:10326000388000F0A3FC1020A4F84E0020468221F4
:1032700003220823A4F8788100F098FCD4F8D40243
:103280000027C5F8047204EB8000D0F8C402A4F84B
:103290004C8000688047C5F81472C5F81872D5F8DC
:1032A00004223AB1207C98B120460121402300F04D
:1032B00091FC00263046BDE8F08100BFD4F8D4026E
:1032C000002104EB8000C0F8C0120220BDE8F081AC
:1032D000204601214FF4007300F07CFC0020BDE883
:1032E000F081000080B5D0F8D41200EB8101D1F854
:1032F000C01279B190F810C0D1F804224023012106
:10330000BCF1000F08BF4FF4007300F063FC002015
:1033100080BD00BF032080BD00290FBF0320D0F86F
:10332000D42200EB8200C0F8C41218BF00207047FE
:10333000D0F8D42200EB8200D0F8C00200280EBFE3
:103340000320C0F80412002070470000D0F8D432E7
:1033500000EB8300D0F8C00200280FBF0320C0F8A4
:103360000812C0F8102200207047000070B582B02B
:103370000446D0F8D4020D4604EB8000D0F8C062B9
:1033800000218DF80710ADF80410DEB1297811F096
:1033900060021BD0202A61D1EA88002A2ED049B2CF
:1033A000B1F1FF3F36DD6878314686F800022046ED
:1033B000402A28BF402286F8012200F0A1F800260A
:1033C00018E000BF0326304602B070BD68780B28B5
:1033D00044D80026DFE800F0060E42424242424254
:1033E00042422C3A94F89C02032837D101A9204686
:1033F000022225E0304602B070BD00BFD0F8C40202
:10340000294683686878002200269847304602B033
:1034100070BD00BFD0F8C402314683686878984711
:10342000EA8820463146072A28BF072208E000BF65
:1034300094F89C02032811D10DF1070120460122C6
:1034400000F078F80026304602B070BD94F89C0277
:10345000032803D10026304602B070BD204629461D
:1034600000F042F80326304602B070BD80B5D0F8B7
:10347000D41200EB8101D1F8C0223AB1D2F8141273
:1034800000294FF0010103D0084680BD032080BD14
:10349000C2F81412D2F81032D2F808228121C36285
:1034A00000F06CFC0021084680BD000080B5D0F81B
:1034B000B82252689047002818BF032080BD000042
:1034C000002070470020704780B513460A4600214F
:1034D00000F080FB002080BD80B513460A46002125
:1034E00000F04CFC002080BD10B58021044600F0A7
:1034F00017FC20460021BDE8104000F011BC000080
:1035000080B513460A460321C0F894120021C0E991
:10351000563300F05FFB002080BD000080B5052120
:10352000C0F8941200210022002300F053FB002079
:1035300080BD000080B513460A460221C0F89412EF
:103540000021C0E9063300F019FC002080BD000016
:1035500080B50421C0F8941200210022002300F05D
:103560000DFC002080BD000010B540F20014C2F236
:1035700000040A4602A0214600F050F9204610BD82
:1035800043444320436F6E666967000040F2B00019
:103590001222C2F200000A807047000010B540F20B
:1035A0000014C2F200040A4602A0214600F036F9D7
:1035B000204610BD43444320496E746572666163C2
:1035C0006500000040F2D8000422C2F200000A8028
:1035D0007047000010B540F20014C2F200040A4621
:1035E00002A0214600F01AF9204610BD53544D693F
:1035F00063726F656C656374726F6E6963730000EC
:1036000010B540F20014C2F200040A4602A021469E
:1036100000F004F9204610BD53544D333220566952
:10362000727475616C20436F6D506F72740000008E
:10363000B0B547F61020C1F6FF70026883684FF0FE
:103640001A0C9B18A1F800C000F0A3804FF0370CB3
:103650001A0F0CEB13714068B3F1204F38BF02F121
:10366000300140F2DC02C2F20002917019014FF009
:10367000000E0CEB117582F803E0C3F30364B1F1A3
:10368000204F38BF04F13005190215710CEB11758C
:1036900082F805E0C3F30354B1F1204F38BF04F1C1
:1036A0003005190395710CEB117582F807E0C3F32F
:1036B0000344B1F1204F38BF04F1300519041572ED
:1036C0000CEB117582F809E0C3F30334B1F1204F1C
:1036D00038BF04F13005190595720CEB117582F8AD
:1036E0000BE0C3F30324B1F1204F38BF04F13005E0
:1036F00019061573C3F303140CEB1175B1F1204FC8
:103700004FEA037103F00F0382F80DE038BF04F1B4
:10371000300503F13704957382F80FE0B1F1204FC3
:1037200038BF03F13004010F0CEB1073147482F8EE
:1037300011E0B0F1204F38BF01F1300301010CEB73
:103740001174937482F813E0C0F30363B1F1204F56
:1037500038BF03F1300401021475C0F303530CEBBE
:103760001174B1F1204F4FEA003182F815E038BFF3
:1037700003F130040CEB1173947582F817E0C0F379
:103780000340B1F1204F38BF00F13003137682F8C7
:1037900019E040F2DC00C2F20000B0BD80B5B0F824
:1037A00002C003789C4509D8002080BD82788A42F7
:1037B00008BF80BD73449AB262452DD290F800E0F4
:1037C00070444278052A02D182788A4225D0734417
:1037D0009AB26245E8D290F800E070444278052A37
:1037E00002D182788A4218D073449AB26245DBD201
:1037F00090F800E070444278052A02D182788A422B
:103800000BD073449AB26245CED290F800E0704477
:103810004278052ACAD0CDE7002080BD10B5002827
:1038200068D00378B3B100F1020E4FF0000C00BF76
:103830001EF8013C93B19EF800309BB19EF8013018
:10384000A3B19EF802300CF1040C002B0EF1040E13
:10385000EED10DE04FF0000C0AE000BF4CF0010C7F
:1038600006E000BF4CF0020C02E000BF4CF0030C7D
:103870005FFA8CFC022303EB4C03138003220B70D2
:103880004A7090F800E0BEF1000F33D0841C022291
:103890004FF0000C1AE000BF101DC0B20B5440F0F6
:1038A000010001F800C06378002B08BF10BD901D17
:1038B000C0B20B5440F0010001F800C094F802E0DF
:1038C0000832BEF1000F04F1040413D0D3B201F8A2
:1038D00003E043F0010301F803C014F8013C4BB1CD
:1038E000901CC0B20B5440F0010001F800C02378D6
:1038F000002BD1D110BD0000002804BF0320704769
:103900000023C0F8B832C0F8C4320029C0F8D03261
:1039100018BFC0F8B412012180F89C12027000F0A8
:10392000D3B8000080B5D0F8C802FDF71DFA40F208
:103930000032C100C0F2013222FA01F1032888BF2F
:103940000321C8B280BD000080B5D0F8C802FDF7E1
:10395000E3F940F20032C100C0F2013222FA01F173
:10396000032888BF0321C8B280BD0000B0B504465B
:1039700091B194F89C02032851D1D4F8B80242695D
:10398000002A4CD00020C4F8D402204690470028DA
:1039900008BF0020B0BD00BFD4F89402022837D180
:1039A000D4E9070188420DD9431A204611461A4628
:1039B000E361FFF791FD204600210022002300F083
:1039C00009F925E010D1A16981420DD3D4F89802FC
:1039D000814209D22046002100220025FFF77CFD0C
:1039E000C4F89852E7E700BF94F89C02032808D176
:1039F000D4F8B802C16821B10020C4F8D40220462E
:103A000088472046802100F08BF92046FFF786FD8D
:103A100094F8A00200281CBF002084F8A002002017
:103A2000B0BD000010B5044681B194F89C02032893
:103A30001FD1D4F8B8028269DAB10020C4F8D402E8
:103A400020469047002808BF002010BDD4F89402FB
:103A500003280ED1D4E9570398420DD9C01AC4F8EF
:103A60005C01984238BF0346204611461A46FFF7CC
:103A70002BFD002010BD00BF94F89C02032808D144
:103A8000D4F8B802016921B10020C4F8D40220465C
:103A900088472046FFF75CFD002010BD00207047DE
:103AA00080B5012180F89C12D0F8B81231B14A6873
:103AB00001799047002818BF032080BD002080BDF9
:103AC000D0F8C802FDF784B910B5017811B1002013
:103AD00010BD00BF41F2FC71C2F20001C1F808053F
:103AE000C0F8C8124FF0A0400422C1E90002022031
:103AF0000022C1E90302C1E906020846C1E9082221
:103B0000C1E90B22FDF7C4FE002818BFFCF754FEE4
:103B100041F2FC74C2F2000420468021FDF764F8F3
:103B2000204600214022FDF763F820460121802233
:103B3000FDF75EF8002010BD4AB2D0F8C80201F0CF
:103B40007F0101EBC10100EB810000F27E21002A20
:103B500048BF00F13E0108787047000080B5D0F8FA
:103B6000D42200EB8202D2F8B8224AB190F89C32FB
:103B7000032B02D1126A02B19047002080BD00BF22
:103B8000032080BD80B5D0F8D42200EB8202D2F8A9
:103B9000B8224AB190F89C32032B02D1526A02B18A
:103BA0009047002080BD00BF032080BD80B59446B3
:103BB000D0F8C8021A466346FDF714F940F2003205
:103BC000C100C0F2013222FA01F1032888BF0321AB
:103BD000C8B280BD80B5D0F8C802FDF737F940F211
:103BE0000032C100C0F2013222FA01F1032888BF7D
:103BF0000321C8B280BD0000F0B581B001260025C8
:103C000080F89C62C0F8945204464560D0F8B8022F
:103C1000C4F8A45284F8A05258B1426842B1204678
:103C2000002190470546002818BF032501E000BF8A
:103C3000002520460021002240234027FFF7B6FF41
:103C40002046802100224023A4F86461C4F86071FA
:103C5000FFF7ACFFA6842846276201B0F0BD000044
:103C600090F89C12042904BF90F89D1280F89C12D1
:103C70000020704780B590F89C12032906D1D0F837
:103C8000B81219B1C969002918BF8847002080BD42
:103C9000024600201174704780B5D0F8C802FDF7C5
:103CA000F5FE40F20032C100C0F2013222FA01F109
:103CB000032888BF0321C8B280BD0000B0B500F260
:103CC000AA250446284600F06BF80120C4F89402A7
:103CD00094F8AA02B4F8B02200F01F010229C4F837
:103CE000982209D001290DD091B920462946BDE876
:103CF000B04000F08DB800BF20462946BDE8B04076
:103D000000F040BA20462946BDE8B04000F0F4BAC1
:103D100000F080012046BDE8B04000F001B800008E
:103D200080B5D0F8C802FDF7B7F840F20032C10004
:103D3000C0F2013222FA01F1032888BF0321C8B280
:103D400080BD000080B5D0F8C802FDF7BBFE40F290
:103D50000032C100C0F2013222FA01F1032888BF0B
:103D60000321C8B280BD0000014690F89C020422E5
:103D700081F89D02002081F89C22704780B5D0F820
:103D8000C802FDF7C7F840F20032C100C0F20132AC
:103D900022FA01F1032888BF0321C8B280BD0000C8
:103DA0000A7802704A7842704A8842808A88828003
:103DB000C988C1807047000010B582B00446002059
:103DC000ADF80600B1B1D4F8D42204F52E70C4F8D1
:103DD000B81250F82200C16A21B10DF106008847DF
:103DE000C4F8D002D4F8D8020130C4F8D8020020B8
:103DF00002B010BD032002B010BD0000D0F8B82200
:103E0000002A04BF0020704712681047FFF79ABFCE
:103E1000B0B582B00D460978044611F0600111D0AA
:103E2000402901D020292FD1D4F8D402294604EB0F
:103E30008000D0F8B8028268204602B0BDE8B040E9
:103E4000104700BF6878092800F2D080DFE800F052
:103E50000628CE3ACE4666CE7E9200BF94F89C02EB
:103E60000138022800F2C280E888022840F0BE80B3
:103E7000D4F8A4020322002808BF0122214641F8F9
:103E80000C2F2046022263E120468021FFF748FFE5
:103E9000204600210025FFF743FF284602B0B0BDB1
:103EA00094F89C020138022800F2A080688800255E
:103EB0000128F2D12046C4F8A452FFF749FB284656
:103EC00002B0B0BD6888022800F08680012840F06A
:103ED0008D800120C4F8A40240E100BFA88800281A
:103EE00040F08480E888002840F0808068887F283F
:103EF00000F27C8094F89C12032900F07780C5B210
:103F000084F89E0220462946FFF7C6FE2046FFF7AA
:103F10001FFB002D0CBF01200220EFE068884FF04E
:103F2000FF3101EB102100220629ADF8062000F236
:103F30001D81DFE811F00700670075001B011B0100
:103F400083008F00D4F8B4020268F1E0E888012809
:103F50004CD194F89C02411E022941D200252146F1
:103F600041F8085F20460122FFF7E4FA284602B034
:103F7000B0BD00BF688840F2FC05C2F2000510F039
:103F8000FE0F28700CD020468021FFF7C9FE204686
:103F90000021FFF7C5FE0325284602B0B0BD00BFD3
:103FA00094F89C22C1B2032A62D0022A40F0828097
:103FB000002900F0D38020466160FFF71FFF002832
:103FC00000F09880054620468021FFF7A9FE204694
:103FD0000021FFF7A5FE67E0687984F8A002BDE044
:103FE000032803D1211D20460122B1E02046802173
:103FF000FFF796FE204600210025FFF791FE284698
:1040000002B0B0BD217CD4F8B80200290CBF816A8F
:10401000C16A0DF1060088470146022026E000BF74
:10402000C0B2052800F2A280DFE800F0046E7276CC
:104030007A7E00BFD4F8B402426878E0207C002881
:1040400040F09480D4F8B802416B0DF10600884727
:1040500072E000BF207C002840F08880D4F8B802CD
:10406000016B0DF10600884701460720487064E0A7
:1040700081B36068884271D0C1B22046FFF716FA5A
:10408000297820466160FFF7B9FE002866D0054612
:1040900020468021FFF744FE20460021FFF740FE26
:1040A00021792046FFF702FA022084F89C02284674
:1040B00002B0B0BD20468021FFF732FE204600212D
:1040C000FFF72EFE29782046FFF7F0F90325284652
:1040D00002B0B0BD022084F89C026160204600213D
:1040E0000025FFF7E3F92046FFF732FA284602B031
:1040F000B0BD00BF2046FFF72BFA032084F89C02D6
:104100000025284602B0B0BDD4F8B40282680EE0A3
:10411000D4F8B402C2680AE0D4F8B402026906E036
:10412000D4F8B402426902E0D4F8B4028269EAB178
:10413000207C0DF1060190470146EA8872B1BDF876
:10414000060098B1904238BF02462046ADF80620DE
:10415000FFF7F0F90025284602B0B0BD2046FFF772
:10416000F7F90025284602B0B0BD00BF20468021E7
:10417000FFF7D6FD20460021FFF7D2FD0025284697
:1041800002B0B0BD70B50E460978357911F0600106
:1041900004460BD0402902D0202940F07B802046E5
:1041A0002946FFF78DF9D8B1002070BD707828B38B
:1041B00001283BD003286DD194F89C02032839D103
:1041C000708840B915F07F0005D0F08818B92046F6
:1041D0002946FFF7A5FD2046FFF7BAF9002070BD7C
:1041E000D4F8B80282680020002AC4F8D402DBD0D8
:1041F00020463146BDE87040104700BF94F89C024D
:10420000032825D0022808BF5FEA456042D115F097
:10421000800004F114014FF0140004BF4FF4AA70A1
:1042200004F5AA710022225020465FE094F89C0217
:10423000032839D002282DD168062BD020462946E4
:10424000FFF76EFD20468021FFF76AFD002070BD5C
:1042500005F00F0000EB8000802D04EB80002CBFE8
:10426000808CB0F86401A8B105F07F0000EB8000FD
:1042700004EB800000F11406802D38BF00F5AA760B
:1042800068062FD020462946FFF756FC002818BFA5
:10429000012028E020468021FFF742FD2046002132
:1042A000FFF73EFD002070BD708800287FF47CAFD2
:1042B000680603D020462946FFF734FB2046FFF767
:1042C00047F920462946FFF7FBF800287FF46CAF3A
:1042D000D4F8B80282680020002AC4F8D4027FF41F
:1042E00087AF61E700203060204631460222FFF7A9
:1042F00021F9002070BD0000B0B50D4609780446D4
:1043000011F0600118BF402914D194F89C020138C3
:10431000022803D8A88810F0FE0F19D0204680216B
:10432000FFF7FEFC204600210025FFF7F9FC284698
:10433000B0BD00BF2029E8D020468021FFF7F0FC67
:10434000204600210025FFF7EBFC2846B0BD00BF4A
:10435000C1B22046FFF7B6F810B10320B0BD00BFD0
:10436000D4F8B8028268002AF7D00020C4F8D4023A
:10437000204629469047E9880546002908BF002DB8
:10438000E3D12046FFF7E4F80020B0BD70470000FD
:1043900040F20030C2F200007047000083B010B558
:1043A00091B0844613A80EC013AB01A84121624608
:1043B000009301F0D9F841F22051C2F20001D1F886
:1043C000BC12D1F8141229B111B0BDE8104003B0ED
:1043D000704700BF41F22054C2F2000482B201A92A
:1043E0002046FEF7B3FF2046FFF740F811B0BDE8C6
:1043F000104003B07047000010B50A784B78D0F831
:104400001CE802F00F04012B4FEA421C18D10123D3
:10441000A34043EA0E03C0F81C386044D0F80039CA
:104420001B0428D4CB6800F51060097904686FF389
:10443000DF2343EA814144EA8252114316E000BF80
:104440004FF48032A24042EA0E02C0F81C286044B9
:10445000D0F8002B12040ED4CA6800F53060097938
:104460006FF3DF22036842EA8141194341F0805132
:1044700041F400410160002010BD00000146D0F869
:10448000000940F2FF729043C1F80009D1F8040816
:1044900040F480720020C1F80428704782B004996B
:1044A000DDF808C0012940F64051C0F203016FD188
:1044B000826B4FF6BF7322F480328263C268CFF6FC
:1044C000BD731A40C260C2680B9B22F44012012BDC
:1044D000C26003D1C26842F48012C260002200921E
:1044E000009A01320092009A8A4200F2A980026981
:1044F000002A1ED4009A01320092009A8A4200F2E9
:104500009F800269002A14D4009A01320092009A16
:104510008A4200F295800269002A0AD4009A013288
:104520000092009A8A4200F28B800269B2F1FF3F4A
:10453000D6DC00220092026942F001020261009A78
:1045400001320092009A8A427AD80269D2071AD0C0
:10455000009A01320092009A8A4271D80269D20709
:1045600011D0009A01320092009A8A4268D80269FA
:10457000D20708D0009A01320092009A8A425FD88E
:104580000269D207DBD10021BCF1010F72D169E0D1
:10459000C268089B42F04002C26000220192019A68
:1045A00001320192019A8A4250D80269002A1BD432
:1045B000019A01320192019A8A4247D80269002A7F
:1045C00012D4019A01320192019A8A423ED80269BC
:1045D000002A09D4019A01320192019A8A4235D8FF
:1045E0000269B2F1FF3FDADC00220192026942F077
:1045F00001020261019A01320192019A8A4225D890
:104600000269D2071AD0019A01320192019A8A42B4
:104610001CD80269D20711D0019A01320192019A85
:104620008A4213D80269D20708D0019A0132019256
:10463000019A8A420AD80269D207DBD1002106E03A
:104640000321BCF1010F15D10CE000BF0321826BE7
:10465000002B14BF22F4803242F480328263BCF11A
:10466000010F07D1826842F006028260826842F040
:1046700020028260084602B07047000080B54A7888
:104680000978012A4FEA41122AD10244D2F80039AE
:1046900047F6000CCEF6334C02F51062002B4FF0BB
:1046A000010E07D5136843F000631360136843F0ED
:1046B0008043136001F00F01D0F83C380EFA01F18D
:1046C0008B43C0F83C38D0F81C3823EA0101C0F80D
:1046D0001C18106800EA0C010020116080BD00BFAA
:1046E000831803F53062D3F800EB47F60003CEF6EB
:1046F000334303F1707CBEF1FF3F4FF4803ED9DCC1
:10470000D0E700000146D0F8000E20F00300C1F809
:10471000000ED1F8040820F002020020C1F804289D
:10472000704700000146D0F8000E20F00300C1F8E9
:10473000000ED1F8040840F002020020C1F804285D
:10474000704700002DE9F04F83B0DDF84C800E9FDC
:104750000022B8F1000FC0F80421C0F80821C0F809
:104760000C21C0F81021C0F81421C0F81821C0F89D
:104770001C21C0F82021C0F82421C0F82821C0F84D
:104780002C21C0F83021C0F83421C0F83821C0F8FD
:104790003C210BD0826B00F5006B22F40012826387
:1047A000826B42F40022826314E000BFD0F8042838
:1047B00000F5006B42F00202C0F80428826B42F45C
:1047C00000128263826B22F400228263866B26F4DD
:1047D000802686630026C0F8006ED0F80068012F9E
:1047E000C0F8006806D1DBF80070002B18BF47F056
:1047F000010703E0DBF8003043F00307DDF83CE09D
:10480000DDF8309040F64055C0F203050023C0F8B3
:1048100000780193019B01330193019BAB4249D87E
:104820000369002B1BD4019B01330193019BAB4215
:1048300040D80369002B12D4019B01330193019BE3
:10484000AB4237D80369002B09D4019B0133019394
:10485000019BAB422ED80369B3F1FF3FDADC0023A2
:1048600001934FF484630361019B01330193019B26
:10487000AB421FD803699B061AD5019B01330193F4
:10488000019BAB4216D803699B0611D5019B0133EE
:104890000193019BAB420DD803699B0608D5019B90
:1048A00001330193019BAB4204D803699B06DBD41F
:1048B000002400E0012400230293029B01330293B1
:1048C000029BAB4248D80369002B1BD4029B0133E7
:1048D0000293029BAB423FD80369002B12D4029B88
:1048E00001330293029BAB4236D80369002B09D4F3
:1048F000029B01330293029BAB422DD80369B3F1B3
:10490000FF3FDADC0023029310230361029B013393
:104910000293029BAB421FD80369DB061DD5029BA5
:1049200001330293029BAB4216D80369DB0614D510
:10493000029B01330293029BAB420DD80369DB0655
:104940000BD5029B01330293029BAB4204D803694F
:10495000DB06DBD401E000BF01244FF0000A002990
:10496000CBF810A0CBF814A0CBF81CA000F0068167
:10497000D0F800394FF0006707EA13134FF67F3283
:104980004E1EC0F80039C0F810A9C0F808297BD025
:104990008B1E032B06F003097246009404D22024D8
:1049A000B9F1000F3FD165E026F0030400234FF07A
:1049B000904E4FF67F384FF0000C00BF00EB0C0517
:1049C000D5F82079043C0EEAE777C5F82079C5F8D8
:1049D0003039C5F82889D5F840790CF1800C0EEAF9
:1049E000E777C5F84079C5F85039C5F84889D5F852
:1049F00060790EEAE777C5F86079C5F87039C5F8CF
:104A00006889D5F880790EEAE777C5F88079C5F826
:104A10009039C5F88889D1D1DDF84C800CF120049B
:104A2000B9F1000F26D000F510673D594FF0904CBA
:104A30000CEAE5753B193D5100244FF67F3EB9F174
:104A4000010F1C61C3F808E014D01D6AB9F1020F10
:104A50000CEAE5771F621C63C3F828E00AD01F6CDC
:104A60004FF0904505EAE7771F6400271F654FF672
:104A70007F379F64DDF83090009C002996464FF602
:104A80007F324FF0006779D0D0F8003B002E07EA64
:104A90001313C0F8003B4FF00003C0F8103BC0F800
:104AA000082B6BD00239032906F0030C04D2202313
:104AB000BCF1000F3DD161E0009426F00304002317
:104AC0004FF090474FF67F36002100BF4518D5F8CC
:104AD000202B043C07EAE272C5F8202BC5F8303BD6
:104AE000C5F8286BD5F8402B01F1800107EAE27286
:104AF000C5F8402BC5F8503BC5F8486BD5F8602B7E
:104B000007EAE272C5F8602BC5F8703BC5F8686B20
:104B1000D5F8802B07EAE272C5F8802BC5F8903BE8
:104B2000C5F8886BD2D1009C01F12003BCF1000FC5
:104B300024D000F53062D6584FF0904707EAE67669
:104B4000D118D65000264FF67F33BCF1010F0E610D
:104B50008B6013D00A6ABCF1020F07EAE2720A62A4
:104B60000E638B620AD00A6C4FF0904303EAE27244
:104B70000A6400220A654FF67F328A64DBF810105F
:104B8000B9F1000F21F48071CBF810106FF0804163
:104B9000C0F818A0416103D1816941F01001816121
:104BA000816943F60002C8F23C021143BEF1000FD6
:104BB000816103D0816941F008018161B8F1010F81
:104BC00005D1816941F0804141F0040181612046B5
:104BD00003B0BDE8F08F00000146806820F00102BC
:104BE00000208A6070470000F0B54B7891F800C053
:104BF000012B27D18C6900EB4C1E00264FF6FF7568
:104C0000DEF81079CFF6F876CEF20705002C0EF517
:104C1000106349D03E401E611E692E401E61CE6861
:104C200005F10055B44284BF8E6134461E692540AB
:104C300046F400261E611E693543012A1D6141D1DB
:104C4000486926E000EB4C13D3F8100B6FF3120009
:104C5000C3F8100BD3F8107B4FF6FF706FF3DC47EF
:104C6000C3F8107B8F69CE68002F03F5306318BF3F
:104C70008E61CE611F69CEF2070047F400271F61E5
:104C800000F100501F6930403843012A186103D1F8
:104C90000869002818BF58614FF00441186808439C
:104CA00018600020F0BD00BF07EA05041C611C6904
:104CB00044F400241C611C6904EA06050024012A4E
:104CC0001D61BDD0DEF80019002C41F00441CEF882
:104CD0000019E6D00CF00F01012202FA01F100F6F2
:104CE0003403DBE7D0F840C043F20B03C4F654733F
:104CF0009C4503D3D0F8003B002B1ED40023C0F802
:104D0000103BD0F8103B012943F40023C0F8103BBE
:104D1000D0F8103B43F01803C0F8103BD0F8103B1C
:104D200043F0C043C0F8103B07D1C0F8142BD0F8B3
:104D3000001B41F08021C0F8001B002070470000DC
:104D40004A780B78012A4FEA431210440ED1D0F86A
:104D5000002922F40012C0F80029097901F0FE01AF
:104D6000022914D100F510600DE000BFD0F8002B2F
:104D700022F40012C0F8002B097901F0FE0102298B
:104D800005D100F53060016841F0805101600020DC
:104D9000704700000A784B785101012B084407D175
:104DA000D0F80019002900F5106107D50BE000BF0D
:104DB000D0F8001B002900F5306104D41AB108684E
:104DC00020F080400860086840F4001200200A606B
:104DD00070470000F0B54B7891F800C0012B31D13D
:104DE000D1F818E000EB4C14D4F81059BEF1000FC4
:104DF00004F510634CD06FF312051D611D696FF34C
:104E0000DC451D61CD681F690EEB0506013EB6FB52
:104E1000F5F50026C1F6F87606EAC5453D431D6165
:104E200075461E696FF3DF4535431D610D79012D10
:104E300039D11D6925F0C0451D611D6945F000553A
:104E400030E000BF00EB4C13D3F8107B6FF3120778
:104E5000C3F8107BD3F8107B6FF3DC47C3F8107BEB
:104E60008D69CC68002D03F5306379D02F19013F8F
:104E7000B7FBF4F7BEB27443CC610026C1F6F876F6
:104E80001D6906EAC7472F436FF3DF441F616EE0D9
:104E90006FF3DC451D611D6945F400251D611D6929
:104EA0006FF312051D61012A12D14A69002A18BF49
:104EB000C4F814290979012971D1D0F80818D4F857
:104EC0000009C9054CBF40F0805040F0005065E03B
:104ED00000F510634FEA4C141D5945F004451D516F
:104EE0000D79012D62D1D0F80858E658ED054FF044
:104EF000805558BF4FF000553543002AE55053D137
:104F00001FFA8EF2002A4FD0D51C4FF0FF330969EB
:104F100003EB950300F580504FEA0C32032BC5F3E9
:104F200081030FD3AF0827F0030400BF0F68043CD0
:104F300017504F6817508F681750CF6801F1100154
:104F40001750F3D183B30F68012B17502CD04F6843
:104F5000022B175028D0896811500020F0BD00BFE7
:104F60001F696FF3DF4427431F614FF400241F695B
:104F7000012A47EA04071F6103D10A69002A18BF02
:104F80005A61097901290AD1D0F808081968C005C1
:104F90004FF0805058BF4FF00050084318604FF05A
:104FA00004411868084318600020F0BDBEF1000FEE
:104FB000FAD00CF00F01012202FA01F100F63403DD
:104FC000EFE7000081B0002200924A780978012AB8
:104FD0004FEA41113AD100F510625058B0F1FF3F4D
:104FE0003ADC885842F2107340F0006088508858CC
:104FF00040F080408850009801300090009898421E
:1050000064D88858B0F1FF3F26DC0098013000904A
:10501000009898425AD88858B0F1FF3F1CDC00989D
:10502000013000900098984250D88858B0F1FF3F66
:1050300012DC0098013000900098984246D88858B9
:1050400000284FF00000D6D43DE000BF00F53062EC
:105050005058B0F1FF3F03DD002001B0704700BFA2
:10506000885842F2107340F000608850885840F031
:10507000804088500098013000900098984225D8D0
:105080008858B0F1FF3FE7DC0098013000900098AD
:1050900098421BD88858B0F1FF3FDDDC0098013002
:1050A00000900098984211D88858B0F1FF3FD3DCA7
:1050B0000098013000900098984207D8885800283E
:1050C0004FF00000D6D401B0704700BF012001B0FE
:1050D000704700000146806840F0010200208A60AD
:1050E0007047000081B040F64052C0F20302002336
:1050F0000093009B01330093009B93424AD80369BD
:10510000002B1BD4009B01330093009B934241D89A
:105110000369002B12D4009B01330093009B934240
:1051200038D80369002B09D4009B01330093009BFE
:1051300093422FD80369B3F1FF3FDADC89010023E2
:105140002031009301610099013100910099914251
:1051500020D8016989061AD500990131009100997A
:10516000914217D80169890611D500990131009142
:10517000009991420ED80169890608D5009901313C
:1051800000910099914205D801698906DBD400207D
:1051900001B07047032001B070470000D0F8080844
:1051A00000F0060180074FF0020058BF0F200029D1
:1051B00008BF084670470000406900F001007047D2
:1051C000D0F81818D0F81C08084080B270470000CA
:1051D000D0F81818D0F81C080840000C70470000E0
:1051E000D0F810C8D0F8343801F00F0223FA02F2D8
:1051F000D20100EB4110D2B2D0F8080942EA0C010A
:105200000840704700EB4111D1F8081BD0F8140892
:1052100008407047416980690840704710B593089D
:1052200002F0030E2CD05A1E032A03F0030C0FD3F6
:1052300023F003034FF480528458043B0C608458DD
:105240004C6084588C608458CC6001F11001F3D11B
:10525000BCF1000F14D04FF4805284580B46BCF1BF
:10526000010F43F8044B05D11946BEF1000F0AD1D6
:105270001EE000BF8258BCF1020F4A601AD108310B
:10528000BEF1000F14D04FF4805280580A46BEF190
:10529000010F02F8010B04BF104610BD020ABEF157
:1052A000020F4A7004BF881C10BD000C88700331C7
:1052B000084610BD4FF4805282588A600C31BEF10E
:1052C000000FE0D1F4E70000B0B50446C06820F05C
:1052D000C040E06091B1012926D1E068002540F08E
:1052E0000050E0600120FBF7C7FA6069C00705F1D4
:1052F000010014D1312D0546F4D310E0E0680025FB
:1053000040F08040E06000BF0120FBF7B5FA606923
:10531000C00705F1010002D0312D0546F4D3323823
:10532000B0FA80F04009B0BD0120B0BD0246D0F80F
:10533000000801F07F0120F4FE60C2F80008D2F8F6
:10534000000840EA01110020C2F800187047000070
:10535000022A02460ED145F24030CFF6277043F2C2
:1053600000530844C0F20C0398420FD24FF470501F
:1053700002E000BF4FF41050D16821F47051D160A9
:10538000D16801430020D160704700BF41F6406002
:10539000CFF61B7044F240230844C0F20F0398423A
:1053A00002D24FF46050E7E7A1F5740044F6807331
:1053B000A0F51050C0F21203984203D24FF450509F
:1053C000DAE700BFA1F183704DF22063A0F5E7405A
:1053D000C0F21303984203D24FF44050CCE700BF11
:1053E0004BF26060CFF6E5604EF260330844C0F2E5
:1053F0001603984202D24FF43050BDE74DF2003010
:10540000CFF6CE6047F240730844C0F21B039842C7
:1054100002D24FF42050AFE745F6C030CFF6B3606C
:1054200049F2C0130844C0F22103984202D24FF45B
:105430001050A1E7A1F1B77047F22053A0F55850E2
:10544000C0F23803984203D24FF4005094E700BFF3
:1054500045F2E040CFF6596049F6E0430144C0F21E
:1054600041034FF4C050994238BF4FF4E05083E7F6
:1054700010B5DDF808C0BCF1000F2CD15BB303F10F
:10548000030E4FF0FF3303EB9E0300F5805412032D
:10549000032BCEF3810C0FD34FEA9E0323F00303BB
:1054A0000868043B10514868105188681051C8685A
:1054B00001F110011051F3D1BCF1000F0BD00868BD
:1054C000BCF1010F105106D04868BCF1020F105119
:1054D0001CBF88681051002010BD0000FEE70000CE
:1054E000FBF7D4FAFDF762FBFDF77AFAFDF7F6FA5F
:1054F000FDF7BEFAFDF710FB41F60858C2F20008AE
:1055000040463C21FCF7E4FE40F2F80441F200463C
:105510000027C2F200040BA5C4F202064FF4FA7091
:10552000FBF7AAF9D8F80000416A476209B2284699
:105530002160FEF733FF30464FF48041FBF784FAD9
:10554000ECE700BF54494D32B6A8CAB1C6F7B1E086
:10555000C2EBC6F7C4A3CABDB2B6BBF1C2F6B3E58F
:10556000203D202564200A007CB50C001D4616460F
:10557000014601D0601E00E00020CDE90010064B7E
:105580006A462946304600F0DBF8002C02D0009A2B
:10559000002111707CBD00006F5E000802E008C8A9
:1055A000121F08C1002AFAD170477047002001E09D
:1055B00001C1121F002AFBD1704700002DE9FF5FD7
:1055C00082B00021DDE90430020DDDF840B0034374
:1055D00018D044F61050A2F2FF324243151411982D
:1055E00001281FD0A5EB0B00401C5FEA000A4FF01A
:1055F00000064E4FDFF83891B046504615D5CAF137
:10560000000413E0119801244AA3012801D16FEA94
:105610000B010298119AC0E90031C0E9024206B0BC
:10562000BDE8F09FCBF10000DFE704460021404ACF
:10563000491842EB0450CDE9001012E0E00707D012
:1056400032463B4640464946FAF7EBFE80468946DD
:1056500032463B4610461946FAF7E3FE06460F4629
:105660006410002CEAD1DDE90401DDE90023BAF180
:10567000000F06DAFAF7D5FE42464B46FAF7D1FE9E
:1056800005E0FAF740FF42464B46FAF73CFF044676
:105690000E460022284BFAF7BDFF03D84FF0FF302B
:1056A000014607E00022254B20463146FAF712FE5C
:1056B000FAF798FF102409E0002C0ADB0A220023E5
:1056C000FAF790FD039B30321A55641E50EA01022E
:1056D000F2D1641C039AC4F111031444119A012AF3
:1056E00003D0012208430DD10AE0084304D0002072
:1056F0004FF0110B119072E7A3EB0B056D1E0DE03F
:105700005B4504DD4FF0000205F1010504E003DA1A
:105710004FF00002A5F10105002AECD00298119982
:10572000C0E90231C0E9004579E7000000001440FB
:105730000000F03F300000000000F0430000E03FB8
:105740002DE9FF4F95B09B468946064600250FE29E
:10575000252877D100242746F84A0121059400E046
:10576000044316F8013F203B01FA03F01042F7D141
:1057700030782A2811D06FF02F033078A0F1300252
:10578000092A16D8059A44F0020402EB820203EBC0
:1057900042021044761C0590EFE759F8042B05925D
:1057A000002A03DA504244F40054059044F0020405
:1057B000761C30782E2816D116F8010F44F0040418
:1057C0002A280DD06FF02F023078A0F13003092B7A
:1057D00009D807EB870302EB4303C718761CF3E7EE
:1057E00059F8047B761C30786C280FD006DC4C28E6
:1057F00017D068280DD06A2814D104E0742810D07E
:105800007A280FD10DE044F400140AE044F4801427
:1058100001E044F440147278824202D104F580140D
:10582000761C761C307866280BD013DC582877D08D
:1058300009DC002875D04528F6D04628F4D0472842
:105840001AD19DE118E0632835D0642879D0652805
:1058500012D195E1702873D008DC6728F1D069284F
:105860006FD06E280DD06F2806D1B5E073282CD0EC
:10587000752875D0782874D05A46179990476D1CB2
:1058800075E1C4F30250022809D003280DD0D9F8DD
:10589000001004280DD00D6009F1040967E1D9F862
:1058A0000010EA17C1E90052F6E7D9F800100D80A0
:1058B000F2E70D70F0E719F8041B8DF800100020D6
:1058C0008DF80100EA46012003E059F804AB4FF0DF
:1058D000FF3061074FF0000102D40DE008F1010133
:1058E0008846B9420FDA8045F8DB1AF8081000291B
:1058F000F4D108E008F1010188468142FADB1AF888
:1059000008100029F6D105985B46A0EB0807214650
:105910003846179A00F094FA284400EB080507E08F
:105920004DE029E10DE01AF8010B5A46179990470E
:10593000B8F10108F7D25B4621463846179A13E1C1
:1059400042E00A220092C4F302524FF0000A022AF7
:1059500008D059F804CB032A4FEAEC710AD00DE0C5
:1059600029E02AE009F1070121F00702F2E802C16B
:10597000914609E00FFA8CFC4FEAEC71042A03D13E
:105980004FFA8CFC4FEAEC71002907DA0A46002135
:10599000DCF1000C61EB02012D2202E0220504D5AE
:1059A0002B228DF80420012203E0E20701D02022FF
:1059B000F7E7904659E00A2102E010220DE010219D
:1059C0004FF0000A00910BE010224FF0000A44F063
:1059D00004040827009203E008224FF0000A009216
:1059E000C4F30252022A05D059F804CB0021032A3D
:1059F00008D009E009F1070121F00702F2E802C12D
:105A0000914605E01FFA8CFC042A01D10CF0FF0C32
:105A10004FF00008220728D5702806D0009B83F09D
:105A2000100353EA0A0305D00EE040228DF804204B
:105A3000012208E05CEA010206D030228DF8042041
:105A40008DF8050002229046009B83F0080353EA7C
:105A50000A030AD15CEA010201D1620705D53022AE
:105A60008DF804204FF001087F1E582804D034A080
:105A700003900EA802900DE036A0F9E75346604669
:105A8000009AFAF7AFFB84460398825C0298401EA6
:105A9000029002705CEA0100F0D1029806A9081A8F
:105AA00000F1200A600702D524F4803400E00127C9
:105AB000574502DDA7EB0A0000E0002000EB0A01D9
:105AC000009005984144401A0590E00306D45B46D7
:105AD0002146179A059800F0B3F90544002706E01F
