:020000040800F2
:10000000A0240020F9020008C54E0008054C000895
:10001000C14E0008392200081D79000800000000C8
:10002000000000000000000000000000D94E0008A1
:10003000A922000800000000D54E0008914F0008DA
:100040001303000813030008130300081303000838
:100050001303000813030008130300081303000828
:100060001303000813030008130300081303000818
:100070001303000813030008130300081303000808
:1000800013030008130300081303000813030008F8
:1000900013030008130300081303000813030008E8
:1000A00013030008130300081303000813030008D8
:1000B00013030008130300081303000813030008C8
:1000C00013030008130300081303000813030008B8
:1000D00013030008130300081303000813030008A8
:1000E0001303000813030008130300081303000898
:1000F0001303000813030008130300081303000888
:100100001303000813030008130300081303000877
:100110001303000813030008A94F00081303000885
:100120001303000813030008130300081303000857
:100130001303000813030008130300081303000847
:10014000130300081303000813030008C94E000836
:10015000130300081303000813030008ED520008FE
:100160001303000813030008130300081303000817
:100170001303000813030008130300080000000025
:1001800013030008130300081303000813030008F7
:1001900013030008130300081303000813030008E7
:1001A00000000000000000001303000800F002F847
:1001B00000F092F80AA090E8000C82448344AAF16F
:1001C0000107DA4501D100F087F8AFF2090EBAE86D
:1001D0000F0013F0010F18BFFB1A43F0010318477B
:1001E000948B0000B48B0000103A24BF78C878C10B
:1001F000FAD8520724BF30C830C144BF04680C602D
:10020000704700000023002400250026103A28BF74
:1002100078C1FBD8520728BF30C148BF0B60704778
:100220006E2900F04F82702900F09383662908F050
:100230009584652908F09284672908F08F846129E4
:1002400008F08E8403681B0A28BF41F080016929E9
:1002500000F0FC81642900F0F981752900F0F68135
:100260006F2900F02183782900F05F83E92900F0ED
:10027000BB82E42900F0B882F52900F0B582EF29AD
:1002800000F01E83F82900F05E830368DB0928BFB5
:1002900041F08001632901F02781732901F02C814D
:1002A000E32901F03781F32901F03C8100207047F8
:1002B0001FB508F03EFC01F0F1F904000020002118
:1002C00008F0BEF9401C60600020002108F0A2F98F
:1002D000E0601FBD10B510BD01F0BBF91146FFF77E
:1002E000E7FF07F071FB01F019FD03B4FFF7F2FF20
:1002F00003BC01F06FFD0000094880470948004732
:10030000FEE7FEE7FEE7FEE7FEE7FEE7FEE7FEE7C5
:10031000FEE7FEE704480549054A064B7047000022
:10032000954F0008AD010008A01E0020A024002069
:10033000A0200020A020002053EA020C00F06980D9
:100340002DE9F04B4FF00006002B1FBFB3FA83F5E9
:1003500003FA05F424FA05F65E4012BF1643B2FA1A
:1003600082F502FA05F4C5F120051EBF22FA05FC4C
:1003700044EA0C04203556EA044C4FEA144418BFF2
:10038000641C4FF000084FF00009904271EB030C21
:1003900039D3002919BFB1FA81F701FA07F6B0FA8B
:1003A00080F700FA07F6C7F120071EBF20FA07FC06
:1003B00046EA0C062037B6FBF4FCA7EB0507103F16
:1003C00007F01F0BCBF120062CFA06F60CFA0BFBFC
:1003D00044BFB3460026202FA4BF5E464FF0000B5B
:1003E0005BEA060C08BF4FF0010B19EB0B0948EB59
:1003F0000608ABFB027C06FB02CC0BFB03CCC01B4C
:1004000071EB0C01C1E70B46024641464846BDE888
:10041000F08B13B5084318BF4FF0FF300146AFF320
:100420000080BDE81C4070477CB51D4616460C0098
:10043000009007D04142A14202D32044401E01E077
:100440004FF0FF30064B7B442A4669460190304608
:1004500000F051F9002C02D0009A002111707CBDEF
:10046000D302000070B5064600F07EF80468054629
:1004700030460A22002100F093FB2C6070BD10B5BD
:10048000431C02E010F8011B71B18107FAD14FF053
:10049000013202C88C1A8C4314EAC211F9D0C01A76
:1004A0000A0603D0C01E10BDC01A10BD0A0401D038
:1004B000801E10BD0902FCD0401E10BD4FF000028E
:1004C00000B5134694469646203922BFA0E80C504A
:1004D000A0E80C50B1F12001BFF4F7AF090728BF25
:1004E000A0E80C5048BF0CC05DF804EB890028BFA1
:1004F00040F8042B08BF704748BF20F8022B11F0CA
:10050000804F18BF00F8012B704710B5044610F05B
:10051000030F08BF11F0030F40F015804FF0013EAC
:10052000121FC0F20E8051F8043BA3EB0E0C2CEA14
:10053000030C1CEACE1C08BF40F8043BF0D0A1F12C
:10054000040102F10402521E08DB11F8013B00F81D
:10055000013B002BF7D1114600F05AFB204610BD9D
:100560007047704770470000004870470001002046
:1005700010B5FFF7F9FF006810BD10B50446FFF78E
:10058000F3FF046010BD70B5044685690068C106BC
:1005900001D5302600E02026C00707D070BDD4E981
:1005A000012130469047206A401C20626D1EF6D51E
:1005B00070BD70B5044685690078C00707D170BD6D
:1005C000D4E9012120209047206A401C20626D1E42
:1005D000F6D570BD09684A0501D540B27047C90516
:1005E000FCD500B2704709684A0501D5C0B2704712
:1005F000C905FCD580B2704770B50C460546012A86
:1006000005D02878800600D5EA69002302E001239E
:1006100005E05B1C934202D2E05C0028F9D1A86996
:10062000E618C01AA861286A184428622846FFF70D
:10063000AAFF04E0D5E9012114F8010B9047B44268
:10064000F8D32846FFF7B5FF70BD00002DE9F04153
:100650000646002410687529314616A510D0FFF70C
:10066000B9FF002802DA404213A507E031688A0783
:1006700001D512A502E0490704D511A5012401E026
:10068000FFF7B1FF00210A2206F1240709E0B0FBC1
:10069000F2FCB0FBF2F302FB1C0030307854184639
:1006A000491C0028F3D123462A463046BDE8F041D4
:1006B00000F02ABB000000002D0000002B0000000D
:1006C0002000000011680268006A530501D5087017
:1006D0000AE0D30501D5088006E0130603D5C2174A
:1006E000C1E9000200E008600120704701694A1C6E
:1006F00002610878704700B58FB0CDE90131002163
:10070000059105497944CDE903101146684600F08A
:100710002BF90FB000BD0000E5FFFFFFD1E900237A
:100720009A4202D2531C0B60107070472DE9FF5F94
:1007300015468A460446DFF8AC80F8440027D8E91D
:1007400000103E46CDE9001010E03AF816106A4657
:1007500002A800F05AFF411C07D02178890603D572
:10076000E269391891420DD80744761C207880063A
:1007700002D5E069B84205DDAE42E6DB3AF8160084
:100780000028E2D1A069C01BA0612046FFF7FBFE54
:10079000D8E90010CDE90010002017E03AF8181051
:1007A0006A4602A800F031FFB0F1FF3F81460BD04E
:1007B00000250DF1080B05E0D4E901211BF8050027
:1007C00090476D1C4D45F7D308F10100B0428046BB
:1007D000E4DB206A384420622046FFF7EAFEBDE8E9
:1007E000FF9F0000228500002DE9F0418046D21DC8
:1007F00022F007020025D2E90002F52915A614D03F
:10080000011E72F1000106DA0023D0EB030063EB56
:10081000020211A608E0D8F800108B0701D50FA638
:1008200002E0490701D50EA601251146002408F172
:10083000240704E000F01AFA30323A55641C50EAFA
:100840000102F7D12B46324621464046BDE8F04131
:1008500000F05ABA000000002D0000002B0000003C
:100860002000000030B4002100F1240408E002F070
:100870000705D208303542EA4372DB086554491C4B
:1008800052EA0305F3D10468002310A2250708D516
:1008900004F020040C4304D0C46901230CA2641E9C
:1008A000C46130BC00F030BA10B50446214610686F
:1008B000FFF799FE02462046BDE810400023D1E72D
:1008C000D21D22F00701D1E90023CBE70000000090
:1008D00030000000F0B40D460188090502D5214C16
:1008E0007C4402E01F4C7C440E34002100F12406BD
:1008F00008E002F00F071209E75D42EA03721B09E4
:100900007754491C52EA0307F3D1027800231207F7
:1009100004D5702D06D009B1022311342246F0BC53
:1009200000F0F2B901231034F8E770B504460D4623
:1009300021461068FFF757FE024629462046BDE8CB
:1009400070400023C6E7D21D22F00703D3E900233D
:10095000C0E70368126843F0200303600823C36103
:100960000023B7E7848300002DE9F05F8946044641
:100970004FF0000ADFF874B1FB44C0F820A0204615
:10098000E1688847002874D0252806D0D4E90121E1
:100990009047206A401C2062F1E700265F4620460F
:1009A000E16888472028054607DB312D05D27819F4
:1009B00010F8200C08B10643F1E7B00701D526F086
:1009C0000406C4F81CA00027C4F818A02A2D09D0DA
:1009D000284607F0D0FD38B304EB8708303DC8F84F
:1009E000185019E059F8041B204604EB8702916166
:1009F000E1688847012F054618D1E069002820DA10
:100A000026F020061DE0D8F8180000EB800005EB6A
:100A100040003038C8F818002046E168884705468D
:100A200007F0A9FD0028EED1012F0AD02E2D08D104
:100A30002046E16888477F1C0546022F46F02006C5
:100A4000C4DBA069002803DA404246F00106A06139
:100A5000F00701D026F010066C2D0BD0682D09D0C0
:100A60004C2D39D06A2D35D0742D35D07A2D33D018
:100A700016E038E0E1682F4620468847B842054630
:100A800009D16C2F26D04FF48060E16806432046E0
:100A90008847054604E06C2F1AD04FF48070064357
:100AA0000DB3A5F14100192802D8203546F400669F
:100AB0004A462946204626604E46FFF7B1FB80B1E4
:100AC00001280BD0F61D26F0070000F1080956E7B3
:100AD0004020E4E78020D8E70020D6E706F10409AB
:100AE0004DE7284652E7206ABDE8F09F14830000D6
:100AF0000FB40B0010B54FF000048AB00FA900919D
:100B00000E99CC60234C7C44234A7A44CDE90642BA
:100B100000D004236FF00042CDE901321F4A7A442D
:100B20006B4608920246002008F07CF80AB010BC20
:100B30005DF814FBF0B507464FF0FF301E46154632
:100B40000C463B4685B06A460091CDE9010131462D
:100B50000020049004A8FFF7CBFF04990346601817
:100B600025B109B1024600E022462A6000290ED0D4
:100B7000002B02DD0099814209D03B466A4631468E
:100B8000001B0094CDE9010404A8FFF7B1FF05B0F4
:100B9000F0BD0000230A00003D0A0000D50100005E
:100BA0002DE9F04791460F4680460446002614F88A
:100BB000015B2DB100F052F80068405DC007F6D12E
:100BC0002B2D02D02D2D18D0641E4A4639462046C2
:100BD00000F0CCFC27B13968A14201D1C7F80080F0
:100BE0004FF0020471050BD54042002803DDFFF7EA
:100BF000BBFC0460A007BDE8F08746F48066E4E72C
:100C00000028F8DAFFF7B0FC04606FF00040F2E76C
:100C10004FF000020429C0F0128010F0030C3FF4E2
:100C20004FACCCF1040CBCF1020F18BF00F8012B43
:100C3000A8BF20F8022BA1EB0C01FFF741BC5FEA33
:100C4000C17C24BF00F8012B00F8012B48BF00F83D
:100C5000012B7047004870470001002010B500F0DC
:100C60001DFD001D10BD00BFD979000030B5B0F1E9
:100C70000A0271F100034FEA900E4EEA817EB0EB5A
:100C80000E0061EB91014FEA101E4EEA017E10EB5F
:100C90000E0041EB11114FEA102E4EEA016E10EBDF
:100CA0000E0041EB11214FEA104E4EEA014E10EBBF
:100CB0000E0041EB1141401841F100014FEAD00014
:100CC00040EA41704FEAD1014FEA810444EA90744E
:100CD00010EB800544EB01046D1944EB0404521B36
:100CE000A3414FF0000348BF0A3200D530BD401C7D
:100CF00041F1000130BD10B50446FFF7AFFF0068B9
:100D0000005D00F0010010BD2DE9F0470D46994649
:100D10009246044600F124080168880604D5E0697B
:100D200021F01001216000E00120A84201DD471BF5
:100D300000E00027A1697A1902EB0900081AA061F6
:100D40002078C00602D42046FFF71DFC002608E0EC
:100D5000D4E901211AF806009047206A401C761C4D
:100D600020624E45F4DB2078C0060AD52046FFF706
:100D70000AFC06E0D4E9012130209047206A401C9B
:100D80002062381EA7F10107F4DC07E0D4E9012155
:100D900018F805009047206A401C2062281EA5F123
:100DA0000105F3DC2046FFF704FC2078000602D59D
:100DB0000220BDE8F0870120FBE72DE9FF4F0C463C
:100DC0001E464FF0FF378BB0D2E90001DDF860809E
:100DD0000A908A46C1F30A5505B93D4600210846E6
:100DE0004FF00000BAF1000F00F4400005DA00EB0C
:100DF00080004FF4400101EA50004FEA9059B9F1E8
:100E0000010F00DDB9460A9850EA4A000ED044F6B8
:100E10001050A5F2FF3545432F14B8F1000F1ED036
:100E20007542291E1EDDC9F100021CE0B8F1010F58
:100E30004FF0000001D0302103E0F24305E02154DF
:100E4000401CB042FBDB30460022002121540B99AC
:100E5000C1F80880C1E900200FB0BDE8F08FBD1BCC
:100E60006D1CDEE74A4600DA694206A800F0E4FE9F
:100E700006AB93E8070003AB83E8070050460A99E6
:100E800006F0F8FD8DE80700A0F500501F3800902F
:100E90000398002D0ADD42F21F014A460844002350
:100EA00003A90390684607F0A3F809E0A0F50050F5
:100EB0004A461F38002303A90390684607F0C2F88A
:100EC0008DE807000004000C03D04FF0FF3041080C
:100ED00000E01046B8F1000F03D000220092154642
:100EE0001EE0751E05D4FFF7C1FE303262556D1E3F
:100EF000F9D5B3460122084302D000227F1C04E04A
:100F00002078302801D100227F1E002A099784D042
:100F10001DE0112D07DAFFF7A9FE303262556D1C76
:100F200050EA0102F5D1084302D00098C8B10EE0A2
:100F30000021681E05E0235C625C63542254401E5D
:100F4000491C8142F7DBAB46A81B401E09900020DC
:100F500004F80B000B98099AC0F80880C0E9002B30
:100F60007AE711264FF0000857E72DE9F04F884641
:100F70000446D21D22F0070191B0D1E90001CDE96C
:100F80000A0107F0ABF902460B98C00F01D02D20E3
:100F900007E02068810701D52B2002E0202101EA2B
:100FA000C000032A099001D0072A05DB0346414609
:100FB000204600F077FB0BE12078800601D5E06940
:100FC00000E00620B8F1650F814606D0B8F1660F43
:100FD00018D0B8F1670F70D131E00020B9F1110FCE
:100FE000009001DB112301E009F101030AAA01A924
:100FF0000CA8FFF7E2FEDDE90C70002609F10105FF
:10100000834647E001204B4600904FF000470AAA74
:1010100001A90CA8FFF7D1FEDDE90DB00C995D46E2
:10102000002610B909F101000D18B9EB050003D431
:10103000C0F1FF3609F10105A5EB09002BE0B9F17C
:10104000010F01DA4FF001090020B9F1110F0090F2
:10105000484601DD112300E003460AAA01A90CA8B5
:10106000FFF7ABFEDDE90C704D4600268346207885
:1010700000070AD4AB4500DA5D4601A8012D04DD66
:10108000411911F8011C302907D04F4502DA17F138
:10109000040F04DA012082460FE06D1EEEE7002FF8
:1010A00002DCED1B3E4403E0781CA84200DD7D1C01
:1010B000B81B00F1010A4FF000472078000703D465
:1010C000AA4501DB4FF0FF3A0021B7F1004F0DF1C7
:1010D00043088DF8431024D002202B23002F01DA7F
:1010E0007F422D230A21021EA0F1010000DC5FB126
:1010F00097FBF1FC97FBF1F201FB1C7C17460CF10E
:10110000300C08F801CDEEE7A8F10100037021884A
:10111000090501D5452100E06521A0F1010800F88D
:10112000011C09980FA9A1EB0807FF1D00B10120C0
:10113000411901EBEA70A1693844081A401EA06108
:101140002078C00602D42046FFF71DFA099828B17E
:10115000D4E901219047206A401C20622078C00613
:1011600022D52046FFF70FFA1EE0002E04DBB34520
:1011700002DD01A8805D00E03020D4E90121904724
:10118000206A401C2062761CAAF101005FEA000A76
:101190000AD100F083FAC0680168405CD4E90121FB
:1011A0009047206A401C2062281EA5F10105DCDC66
:1011B00007E0D4E9012118F8010B9047206A401C90
:1011C0002062381EA7F10107F3DC2046FFF7F1F992
:1011D000032011B041E600002DE9F04F04460D4612
:1011E000D21D22F0070089B0D0E900974846394661
:1011F00007F074F80246F80F01D02D2307E02068AD
:10120000810701D52B2302E0202101EAC0038DF8DC
:1012100020300BB1012000E00020032A824601D0DB
:10122000072A04DB2946204600F03CFA3FE12078FB
:10123000800601D40D2500E0E569C7F30A560D2D9F
:1012400049DA00214FEA175B08464FF00000002FF3
:1012500000F4400007DA00EB80004FF4400100EB9F
:10126000D07001EA60008115012901DD4FF0FF31E6
:1012700000224FEA850CBCF1180F06D31346ACF1DF
:1012800018004FF08052C24003E04FF4801323FA5D
:101290000CF30CF10C0CBCF1200F04D3ACF1200CBE
:1012A00009FA0CF001E007FA0CF000294FF00048B1
:1012B00001DD18B90FE00ED140450CD319EB02093E
:1012C0005F4121B9404502D19F4329EA0209BBEBA6
:1012D000175F00D0761C2088000502D57B48784433
:1012E00002E07A487844193808AA302302F80A3014
:1012F000037C0AF10101002E0AF1020A53546A46E6
:1013000002DC4FF0300101E04FF031014FF00108F5
:101310008DF8001002D0A6F2FF3603E059EA47012B
:1013200000D06B4E002D02DC2178090704D54FF068
:1013300002082E218DF80110C44600210BE0C7F3EE
:1013400003433F01C35C491C6D1E02F808300529A8
:1013500008F1010801DA002DF1DC00210CE000EBBE
:101360001973491C1B786D1E082902F808304FEAD2
:10137000091908F1010801DA002DF0DC21688B065B
:1013800002D516E0A8F10108E04505DD02EB0803EF
:1013900013F8013C302BF5D0B8F1000F09DD02EB5A
:1013A000080313F8013C2E2B03D1090701D4A8F13F
:1013B0000108002D05DD3E2102F808106D1E08F120
:1013C0000108407C002E02F8080008F1010804DA48
:1013D0002D20764202F8080002E02B2002F80800D7
:1013E0000A214FF47A70864208F101080BDB96FB64
:1013F000F0F3303302F8083096FBF0F308F10108FF
:1014000000FB136601E0642E0CDB642096FBF0F316
:10141000303302F8083096FBF0F308F1010800FBC6
:10142000136601E00A2E06DB96FBF1F0303002F87D
:10143000080008F1010896FBF1F001FB1060303064
:1014400002F80800A16908F1010808EB050202EBA7
:101450000A00081AA0612078C00602D42046FFF7CF
:1014600092F8216A08AE01EB0A00206204E0D4E998
:10147000012116F8010B9047BAF1010AF7D2207842
:10148000C00602D52046FFF77EF86E4609E016F842
:10149000010B3E280FD0D4E901219047206A401C5F
:1014A0002062B8F10108F2D22046FFF782F809B0B5
:1014B0000320BDE8F08F206A2844206203E0D4E9CD
:1014C0000121302090476D1EEBD3F8E7D279000060
:1014D00002FCFFFF10B5436913B1AFF3008001E0D8
:1014E000FFF78AF8012010BD127800F124010A707C
:1014F00000224A700122EDE711684FF0FF32E9E760
:1015000010B5436913B1AFF3008001E0FFF70EF9A6
:10151000012010BD128800F1240182840022C284BF
:101520000122EDE711684FF0FF32E9E7426842B16E
:10153000016811F8013B23B1521EC0E900121846A0
:1015400070470121C160881E704742685AB1C36864
:10155000016843B983688B4205D0491E521CC0E91B
:101560000012002070474FF0FF3070472DE9F05F08
:10157000824615468B4600270AF10104B9460078D9
:10158000302801D09DB113E014F8010B0127782811
:1015900003D0582801D045B10AE00DB1102D07D174
:1015A000002714F8010B102502E0082500E00A25A9
:1015B0000026B0460EE005FB080005FB06F10127FA
:1015C0001FFA80F801EB1046B6F5803F00D3B9460C
:1015D00014F8010B294600F0A5F80028EBDABBF15E
:1015E000000F05D00FB1641E00E05446CBF8004058
:1015F000B9F1000F06D0FEF7B7FF02210160C81E47
:10160000BDE8F09F48EA0640FAE72DE9F0411646AA
:101610000C460546FFF722FB036893F801010128F9
:1016200007D0FF2C12D8185D80B101202C70BDE8C6
:10163000F081D3F807013246214603F20713C71899
:101640002846BC46BDE8F041002360474FF0FF301C
:10165000EDE77546FFF7FEFAAE46050069465346CC
:1016600020F00700854618B020B5FEF753FEBDE810
:1016700020404FF000064FF000074FF000084FF0F9
:10168000000BAC46ACE8C009ACE8C009ACE8C00946
:10169000ACE8C00921F007018D467047004870474B
:1016A000200100202DE9F0411F4604460326016871
:1016B000072A01F4006004DB08B116A505E016A5B1
:1016C00003E008B115A500E015A521F01000206089
:1016D000A069C01EA0610FB1401EA0612046FEF7A8
:1016E00052FF4FB1D4E9012138469047206A401C8F
:1016F0002062C01C206206E0206AFAE7D4E90121DA
:1017000015F8010B9047761EF8D22046FEF751FFE0
:10171000BDE8F0814E414E006E616E00494E4600BC
:10172000696E66003A2800D2303820F02002412A43
:1017300001D3A2F13700884201D34FF0FF30704748
:101740002DE9FF4F06468BB00878FF2806D0491CCC
:101750002D2805D000244FF0000908E000200CE0FF
:101760000124F8E709EB8903491C00EB43090878D9
:10177000FF28F7D114B1C9F1000081461078002587
:101780002C46AA4629462D2801D02B2804D1521CCC
:101790002D2813D0002082468B461078FF280FD0CA
:1017A0004FF0000C0A21521CA5FB017804FB0181BB
:1017B00005FB0C11C5194BEB0104EEE70120EAE72C
:1017C000002108464FF00000BAF1000F02D000EBF4
:1017D00080004008C0F38157012F01DD4FF0FF3733
:1017E0000E9955EA040009EB01080BD04FF00209ED
:1017F00018F5FA7F16DA4FEACA70002F706008DD1C
:10180000012007E04FEACA70C6E900B00FB0BDE89A
:10181000F08F00203060FEF7A7FEC0F8009018217E
:10182000084616E0B8F5FA7F18DD002F02DAF7480F
:10183000784401E0F6487844D0E90010C6E9001089
:1018400040EACA707060FEF78FFEC0F80090142165
:1018500008460FB0BDE8F04F07F07DB900210846FB
:101860004FF00000B8F10001099002DAC7F1000260
:1018700000E03A4601DAC8F1000106A800F0DCF900
:1018800006AB93E8070003AB83E8070044F23E0091
:101890005BEA04010090584604D144F21E012C4634
:1018A0005D460091210C0904014306D100992404EE
:1018B00044EA15442D041039009104F07F4101439E
:1018C00006D10099240244EA15642D0208390091DA
:1018D00004F07041014306D10099240144EA1574D3
:1018E0002D01091F009104F04041014306D10099E8
:1018F000A40044EA9574AD00891E009104F00041F3
:10190000084304D100986D196441401E00904FF0C7
:1019100001033A466846B8F1000FCDE9014503A935
:1019200002DD06F0A4FB01E006F077FBBAF1000F40
:1019300004460D4601D084F00044002108464FF0D3
:101940000000099940F2FF77484010F00C0F07D1D2
:1019500024F00040284303D0C4F30A50B84212D107
:10196000FEF702FEC0F80090C4F30A50B8420AD154
:10197000A8487844D0E90010C6E9001004F00041FE
:101980000843706042E7C6E900543FE72DE9FF4F86
:101990001F464FF0000A4FF0FF38454691B0D7E997
:1019A0000146CDF83CA0FFF779FEC0680168405CB5
:1019B0001090B96912986D1C8847396A814688472A
:1019C0000028F6D1B9F1FF3F0AD0002E24F4D064EC
:1019D00011DDB9F12B0F08D0B9F12D0F0BD102E0B9
:1019E000404615B013E744F48064B96912986D1C41
:1019F0008847761E8146600504A901D52D2000E0A8
:101A00002B20002E01F1010B0DF130088DF8100094
:101A10003FDDB9F1690F08D0B9F1490F05D0B9F12F
:101A20006E0F02D0B9F14E0F1CD13B4601A80095B4
:101A300080E85002DDE912126FF0020007F0F6F8BC
:101A4000C11CCED10EE0B96912986D1C8847814641
:101A50001398761E44F4007405600F98401C002E05
:101A60000F9016DDB9F1300FEDD0B9F1780F02D03B
:101A7000B9F1580F0DD10F9801280AD13B46CDE995
:101A80000054DDE91212001F029607F0CDF8C11CC8
:101A9000A7D1109989453ED144F0800406E01399FE
:101AA000681CAAF1010A44F400740860B9696D1C4D
:101AB0001298761E884730288146F0D02BE0109986
:101AC000894505D1200603D4761E44F0800418E031
:101AD000484606F050FD08B3761E0DF123029345EB
:101AE000A9F1300044F4007406D20BF8010B200673
:101AF00007D5AAF1010003E0200602D40AF1010093
:101B00008246A00502D51399681C0860B96912982D
:101B10006D1C88478146002ED1DC53E0002E51DD3C
:101B2000B9F1650F02D0B9F1450F4BD1A00549D5E8
:101B3000B9696D1C1298761E24F440748847002EF3
:101B400081460CDD2B2804D0B9F12D0F07D144F4C8
:101B50008074B96912986D1C8847761E8146E0052D
:101B600001D52D2100E02B2108F8011BCDF80080C4
:101B700021E0761E0DF13901884544F400740CD241
:101B8000A9F1300010F0FF0088F8000002D10099A0
:101B9000884509D908F1010806E0E00501D51E488D
:101BA00001E042F20F708246B96912986D1C8847B5
:101BB000814613980560002E04DD484606F0DBFCE4
:101BC0000028D6D1F96912988847FF2053468BF830
:101BD000000088F8000000200A900B9004AA0CA9CD
:101BE0000AA8FFF7ADFDA00502D46FF00100F8E6EA
:101BF00014F0240F12D0E0071CD13868DDE90A1276
:101C0000031D3B600068C0E9001213E06875000026
:101C10005A7500001E740000F1D8FFFF0AA968463B
:101C200006F096FCE00705D13868009A011D39607E
:101C3000006802602846D4E62DE9F0478146164642
:101C40008AB0354878440DC88DE80D003248784494
:101C5000801C03AC0DC884E80D0041F69B3008449D
:101C6000372190FBF1F290FBF1F5A5F1800501FB26
:101C700012041B3C02D56442012000E00020DFF882
:101C800098A080460027FA44AAF1BE0A0EE0E007B9
:101C90000AD03246684607EB470101230AEB81016F
:101CA00006F0D0F98DE8070064107F1C002CEED1FF
:101CB000194F7F44AE3F19E0E80715D007EB041039
:101CC0000DF1180A90E80E008AE80E00C068F04294
:101CD00001D1981908903246012306A903A806F0FD
:101CE000B1F903AB83E807006D10641C002DE3D14C
:101CF0004FF0010332466946B8F1000F03A802D045
:101D000006F076F901E006F09DF9C9E90001C9F88D
:101D100008200AB0BDE8F087FC70000010B504464A
:101D2000AFF300802046BDE81040FEF7DEBA0000A9
:101D300030B44FF0013C50F8042B51F8043BCCFA7E
:101D400052F4D51A20D1FCB950F8042B51F8043BB9
:101D5000CCFA52F4D51A17D1B4B950F8042B51F873
:101D6000043BCCFA52F4D51A0ED16CB950F8042BBE
:101D700051F8043BCCFA52F4D51A05D1002CDAD034
:101D800030BC4FF00000704729BAB1FA81F111F070
:101D90001801D1F120008440F2D1CA40CB4012F0AA
:101DA000FF0213F0FF0330BCD01A7047B2F12003DA
:101DB0000AD5C2F1200301FA02F120FA03F341EA45
:101DC000030100FA02F0704700FA03F14FF000003F
:101DD0007047000001491820ABBEFEE72600020054
:101DE0002DE9FF4F1F464FF03C0987B04FF00042EE
:101DF000DDE9141001F10108DDF858A002EA4050B5
:101E00000390002005908346054604460490B96976
:101E1000461E08988847AAF1010A0290BAF1000FFD
:101E20003BDD02982E2815D01021FFF77BFC0028FF
:101E30002EDB4FF0010B0599014317D0B9F1000FCC
:101E40000BDB4A46C117FFF7B1FF05430C43A9F16D
:101E5000040905E0012004900BE008B145F00105FC
:101E600001200590049820B9361D02E0049800B1C5
:101E7000361FB969089808F101088847BBF1000FBF
:101E8000AAF1010A0290C9D00999C1F80080C5E7FA
:101E90000298702808D0502806D0F9690898884719
:101EA000BBF1000F14D04FE0002002900120BBF1E5
:101EB000000F049009D0B969089808F10108884713
:101EC000AAF10109B9F1000F07DCF9690898884700
:101ED0006FF001000BB0BDE8F08F2B2804D02D2847
:101EE0000CD14FF0FF300490B969089808F101084F
:101EF0008847A9F10109B9F1000FE6DD411CE4D0E2
:101F00000A21FFF70FFC0028DFDB029908F1010826
:101F100001EB810100EB41000290B9690898884704
:101F20000A21FFF7FFFB099AA9F10109B9F1000F96
:101F3000C2F8008001DD0028E7DAF96908988847CF
:101F40000499029800FB016655EA040004D004F0ED
:101F50004041090002D006E0039898E0A40044EA5A
:101F60009574AD00B61E04F00041080002D16D1951
:101F70006441761E159810F0240F03D04FF00B0922
:101F80005C4803E04FF028096FF07D00824656451B
:101F900007DAAAEB06018944B9F1410F01DD4FF0E0
:101FA000410901200021A9F10102FFF7FFFE0246CD
:101FB00028400B462140084301D0012100E00021C8
:101FC000501E029143F1FF3128402140084301D0C7
:101FD000012000E000200299834651EA0B014FD016
:101FE000002108464FF00000039900F4400039B189
:101FF00000EB80004FF4400100EBD07001EA60007C
:102000008015012802DD4FF0FF3000E013D0401CA6
:1020100036D0029860B3BBF1000F0CD14A460120C4
:102020000021FFF7C3FE28402140084301D00120D2
:1020300000E00020E0B101204A460021FFF7B6FE93
:10204000034640190A4661412D1A8C4111D3B9F15A
:10205000400F09DD159810F0240F02D0AAF13406C4
:1020600003E0AAF1170600E0761C00254FF00044BB
:1020700006E05B1E42F1FF3220EA030521EA02047A
:10208000CAF10100B04206DA1B49039808430190E7
:10209000002000900EE0039AC4F3D321E80A0A431B
:1020A000164940EA44500A433146CDE900026846E9
:1020B00006F057FA159810F0240F0BD01598C007AA
:1020C00015D13868DDE90012031D3B600068C0E9E6
:1020D00000120CE002A8694606F03AFA1598C0070B
:1020E00005D13868029A011D3960006802604046D7
:1020F000F0E6000002FCFFFF0000F07F0000F03F70
:102100002DE9FF4F92461D4685B04FF00041DDE9B5
:10211000124BDDE914727F1E01EA4B50414940F039
:10212000FF4940EA0108002122F0200049280491DB
:1021300002D04E2828D04CE03BA0012607C88DE8ED
:102140000700A9690698641C88477F1E014606D4CB
:102150001DF8060018B121F0200181420BD0E96979
:1021600006988847032E34D0082E32D06FF0010035
:1021700009B0BDE8F08F761C032E01D0082EE0D107
:10218000601CCAF80000DCE7A9690698641C88474F
:102190007F1E2AD420F02000412826D1A969069864
:1021A000641C88477F1E20D420F020004E281CD1BC
:1021B000A9690698641C88477F1E48F4002849F4E2
:1021C0008009CAF8004001D4282806D0E969069899
:1021D00088475FEACB7012D022E0A9690698641C98
:1021E00088477F1E01D4002803DAE96906988847EA
:1021F000BCE72928F1D1641CCAF80040E9E71BF0CC
:10220000240F07D028680499031D2B600068C0E9DB
:10221000001805E02868021D2A600068C0F80090D8
:102220002046A5E70000F07F494E46494E495459E3
:102230000000000070470000FEE70000002070472B
:102240000020704710B541F29054C2F2000440F6ED
:102250009051C2F200012046002203F01BFA40F226
:102260009051C2F20001204603F006FA002010BD92
:10227000B0B5044604F036FA40F29050C2F20000C5
:102280004FF40061FEF71AF941F29055C2F20005D1
:102290002846214603F0F0F9284603F0C7F900204C
:1022A000B0BD00000020704770470000EFF31080C1
:1022B00072B6000041F67850C2F2000001680022B8
:1022C000486A4A6200B2704770B5866D044600F0F5
:1022D0004BF994F83510022928D105462068216C65
:1022E000026822F016020260426922F08002426116
:1022F00009B9A16C19B1016821F0080101600168F8
:1023000021F00101016000BF20680068C00715D0FE
:1023100000F02AF9401B0628F6D320206065032030
:1023200084F83500002184F8341070BD8020606589
:102330000120002184F8341070BD00BFE06D3F2102
:1023400001FA00F0B060012084F83500002000217F
:1023500084F8341070BD000090F83510022909D1BE
:10236000052180F835100068016821F00101016045
:10237000002070478021416501207047B0B50446B8
:1023800000F0F2F8054640F20800C2F200000078C2
:10239000611C18BF044400BF00F0E6F8401BA042D7
:1023A000FAD3B0BD2DE9F04F82B000F13E4242F2C7
:1023B000004502F1FF77C4F202050A2243F6004EFF
:1023C0004FEAB726A84208BF0922C4F2010E092E1F
:1023D00038BF4FEAB7220125002600274FF000083A
:1023E000009208E008F101080437B8F1100F06F177
:1023F000020600F0A7800C6805FA08F914EA090F34
:10240000F0D0D1F804B003220BF0030CACF10104BE
:10241000B240012C6FEA020A10D88268CC6802EA46
:102420000A02B440224382604268CBF3001422EADD
:10243000090204FA08F42243426005E0BCF1030FEC
:1024400002D14FF0030C20E0C2688C6802EA0A0255
:10245000B4402243BCF1020FC26016D16FF00302F8
:1024600002EA58020244D2F820C007F01C050F23EC
:102470000C69AB402CEA030304FA05F52B43136205
:10248000D1F804B001250BF0030C02680CFA06F336
:1024900002EA0A021A431BF4403F0260A2D0002263
:1024A00043F644030192C4F202031A684FF6084C43
:1024B00042F480421A601A68CFF6FF7C02F4804230
:1024C0000192019A28F00302724452F80C3007F08E
:1024D0000C050F24AC40A343009C04FA05F52B43E4
:1024E00042F80C30DEF808204B6842EA090543F652
:1024F0000C4CDC0258BF22EA0905CEF80850C4F2A1
:10250000010CDCF800209C0242EA090558BF22EACF
:102510000905CCF80050DEF804209C0342EA0905C6
:1025200058BF22EA0905CEF80450DEF80020DB038C
:1025300042EA090558BF22EA0905CEF800500125F4
:1025400050E700BF02B0BDE8F08F0000426902EA28
:102550000103914341EA034181617047002A08BFAA
:10256000090481617047000041F69C60C2F20000DE
:102570000068704740F2080041F69C61C2F200001A
:10258000C2F2000100780A68104408607047000039
:1025900080B543F60040C4F20200016841F40071C6
:1025A0000160016841F480610160016841F480715B
:1025B0000160032000F088F80F2000F005F800F01B
:1025C00027F8002080BD000070B540F20806C2F276
:1025D000000640F22C013278C2F200014FF47A7307
:1025E0000968B3FBF2F20446B1FBF2F1084601F0D0
:1025F000F3FA0F2C4FF0010508D838B94FF0FF302F
:1026000021460022002500F033F87460284670BD92
:1026100082B0002043F640010190C4F202014A68F2
:1026200042F480424A604A6802F480420192019A70
:102630000090086840F080500860086800F0805002
:102640000090009802B07047002848BF7047C1B2A0
:1026500000F01F00012202FA00F04EF20012CEF24A
:10266000000242EAD10121F0030108607047000036
:1026700010B54EF60C5CCEF2000CDCF80030C3F363
:10268000022E8EF00704042C28BF0424BEF103039D
:102690004FF0FF3E0EFA04F438BF0023A1439940E7
:1026A0000EFA03F39A43114300F00F0200F1604366
:1026B0000901043A03F564436244002848BF02F16B
:1026C0000C03197010BD00004EF60C51CEF2000143
:1026D0000A684FF6FF031A4060F30A2242F0806056
:1026E00040F0FD70086070477047000002680020ED
:1026F000516270472DE9F043D0F80090D9F82400DA
:10270000A1B1D9F82830B1F1010800EB13435DD035
:10271000A8F10100C0B2032808F0030C0ED24FF05C
:10272000010E0027BCF1000F33D14FE040EA024018
:10273000C9F828000020BDE8F08300BF08F0FC0EB7
:1027400009F1F404002009F5827500BF54F8107FE8
:10275000064603EB174046F00103DBB246F00207E2
:1027600055F82330FFB255F8277000EB134000EB0B
:10277000174346F00300C0B255F82010301DC7B211
:10278000774503EB1143E1D106F1050EBCF1000FD3
:102790001CD009EB8700D0F80401BCF1010F03EB5A
:1027A000104313D05FFA8EF009EB8000D0F80401DB
:1027B000BCF1020F03EB104308D00EF10100C0B2D0
:1027C00009EB8000D0F8040103EB104343EA024018
:1027D00009EB8801C1F804010020BDE8F083000086
:1027E000D0F8080503F0FEBA01EBC102D0F80835B5
:1027F00000EB8200C26C184603F05CBA01EBC10228
:10280000D0F8083500EB8200D0F88C22184603F08F
:10281000ADBA0000D0F8080503F0E6BA10B50446DA
:1028200048B2B0F1FF3F01F00F0000EBC00104EB34
:10283000810205DD02F51F71002382F87D3204E07C
:10284000012302F13C0182F83D3094F8BC24087069
:10285000012A04BF022010BD2068012284F8BC2494
:1028600004F02CF9002084F8BC0410BDB0B5426817
:10287000044601F00F0082423CBF0120B0BD49B2C6
:10288000B1F1FF3F0ADD00EBC00104EB810202F56C
:102890001F71002382F87D3209E000BF00EBC00108
:1028A00004EB8102012302F13C0182F83D3094F8EF
:1028B000BC240025012A8D70087004BF0220B0BD21
:1028C0002068012284F8BC2404F05AFC284684F8CD
:1028D000BC54B0BD01F00F0101EBC10100EB810060
:1028E000D0F89C027047000070B5064648B2B0F1BF
:1028F000FF3F01F00F0000EBC00107DD06EB810494
:1029000004F51F71002584F87D5206E006EB810C6A
:1029100001240CF13C018CF83D404D780870002DED
:10292000CA600B7118BF0881022B04BF00204871D8
:1029300096F8BC04012804BF022070BD3068012253
:1029400086F8BC2403F078FF002086F8BC0470BD34
:1029500080B501F00F0C0CEBCC0100EB810ECEF832
:1029600094320023CEF89C328EF87D320369CEF883
:102970008C22012B8EF87CC208BFCEF89022006812
:102980000EF51F71DAB2BCF1000F03D004F042FC67
:10299000002080BD04F048FB002080BDB0B5044697
:1029A000406801F00F05854284BF0120B0BD48B2E8
:1029B000B0F1FF3F0ADD01EBC10004EB800000F540
:1029C0001F71002280F87D2209E000BF05EBC500E1
:1029D00004EB8000012200F13C0180F83D2094F8D6
:1029E000BC04012201288A700D7004BF0220B0BD12
:1029F000206884F8BC2404F0EDFB1DB1002084F8AD
:102A0000BC04B0BD2068217C04F2C44204F08AFBFF
:102A1000002084F8BC04B0BD10B501F00F0C0CEB25
:102A2000CC0100EB810E714601F83CCF8B61002395
:102A30000B62036901244C70012B0A6108BFCEF8B8
:102A400050200068DAB2BCF1000F03D004F0E2FBC2
:102A5000002010BD04F0E8FA002010BD2DE9F04F71
:102A600089B005680646284604F0C6FD10B109B0D5
:102A7000BDE8F08F306804F0EDFD0028F7D0D5F800
:102A80000808C0F30D213068C6F8FC1404F0E2FD1C
:102A900001463068890703D5416901F002014161AF
:102AA00005F5006704F0D6FD01463068C9060896B2
:102AB00004953CD5816921F0100181612C6AC4F331
:102AC0004340062804F00F051AD0022829D147F602
:102AD000F07014EA000824D005EBC50006EB80096D
:102AE000D9F88C124FEA18140498224604F0B6FD67
:102AF000D9F88C0200EB1810C9F88C0208E000BF6E
:102B0000049806F2C441082204F0A8FDC4F30A1494
:102B100005EBC50006EB8000D0F89C122144C0F8FC
:102B20009C123068816941F010018161049D039716
:102B300004F090FD000340F1EB800898006804F079
:102B400067FD002800F0E480064608984FF43064E2
:102B500000F2C44100F527784FF0000B079118E010
:102B60002819022181605FEA8A6042BF281920216A
:102B700081605FEA8A4042BF28194FF400518160AA
:102B80000BF1010B760804F1200408F1240800F091
:102B9000BF80F007F4D008985FFA8BF900684946C7
:102BA00004F050FD8246C00762D0281901218160DF
:102BB000089F38682118036C8A683F69012F29D162
:102BC000170735D4970600F19B8012F0280F4FD1DC
:102BD00043F20B07C4F65477BB4202D312F400420F
:102BE0002FD158F8042C0969BBF1000F6FF3DF41B6
:102BF000A2EB0101C8F8001035D1089BD3F894224C
:102C0000002A00F08380D3F88C020844C3F88C02B9
:102C100029E000BF43F20B07C4F65477FF37BB42ED
:102C200016D110040DD4900644BF202088601AE00D
:102C300043F20B00C4F65470834219D312F40040DF
:102C400016D04FF4004088605FEA0A7013D437E072
:102C5000BBF1000F07D10899D1F8941219B90021DE
:102C6000079A04F05FFA08984946FFF7C7FD00BFCE
:102C70005FEA0A7024D5281908218160089843F278
:102C80000B020068C4F65472056C20448168571E1C
:102C9000BD4205D911F400411CBF4FF400418160D1
:102CA000089800F089FCBD42049D09D90898006984
:102CB000012805D10898079A0068012104F032FA2A
:102CC0005FEACA6042BF2819102181605FEA8A70FA
:102CD0007FF549AF6869000604D50399486840F458
:102CE0008060486018F81D0C01287FF439AF00207F
:102CF00008F81D0C0898494600F048FB30E700BF73
:102D0000202088605FEA0A70B5D4D9E70121A7E7DF
:102D1000DDF820B0DBF8000004F09CFC400340F13B
:102D2000D580DBF8000004F06BFC002800F0CE80BA
:102D3000824605F5106002900BF2C4400027019016
:102D400006E000BF5FEA5A0A07F1010700F0BE8003
:102D50005FEACA70F6D0DBF80000F9B2079104F020
:102D60005FFC029E0446C00726D0039A07F00F00BE
:102D7000516B012303FA00F021EA0000506306EBD7
:102D800047108360DBF81000012811D107EBC70062
:102D90000BEB8000D0E912121144C16447B9DBF893
:102DA000540028B9DBF80000019A012104F0BAF9B7
:102DB00007995846FFF718FD200742BF06EB47105A
:102DC00008218160E00642BF06EB471010218160B8
:102DD000600642BF06EB471040218160A00715D571
:102DE0002846394604F09EFB07EBC7000BEB80003A
:102DF00010F83F1F012905D100210170079958469D
:102E000000F0C0FA06EB471002218160200699D538
:102E100007EBC7000BEB8002914659F8541FC846D8
:102E200058F8080F81428DD3DBF8006093465BF8B9
:102E3000485F0B1AAB4238BF1D46069606EB471398
:102E4000D3F818C905F1030E1FFA8CF5B5EB9E0FE8
:102E500028D303F5106102F14C050591D9F8001053
:102E600081421FD9DBF80040089A081AA04229685D
:102E7000167C38BF0446DDE90602A3B2009604F0D2
:102E800017FD2868D8F80010204428600819059913
:102E9000C8F800008969E21C89B2B1EB920FDDD25B
:102EA000D9F80010DDF820B0049D81423FF64AAF0A
:102EB000069B07F00F00D3F83418012202FA00F045
:102EC00021EA0000C3F834083CE700BFDBF800004B
:102ED00004F0C0FB002825D4DBF80000DDF80C80EE
:102EE00004F0B8FB00053ED4DBF8000004F0B2FBB0
:102EF000C00449D5D8F80400102120F00100C8F81A
:102F00000400DBF8000004F00DFBDBF804000028EF
:102F100000F0F780411E032900F0030C38D2002195
:102F2000A2E000BFDDF80C80D8F8040020F001001A
:102F3000C8F804009BF8F404012807D100208BF89E
:102F4000F40458460021FFF7CFFB02E0584600F09A
:102F500017FBDBF80000416901F00041416104F01A
:102F600079FB0005C0D5D8F80800C00702D0584644
:102F700000F04AFBDBF80000416901F400614161A7
:102F800004F068FBC004B5D4DBF80000EDE000BF3E
:102F900020F0030E05F536634FF6A0564FF6C055E8
:102FA0004FF6E0544FF6006000214FF67F37CFF622
:102FB000FF76CFF6FF75CFF6FF74CFF6FF7000BF38
:102FC000A3F5187297609A59043122F400129A51AD
:102FD00043F8587C53F8602C8E4522F4001243F8D5
:102FE000602C53F8602C42F0006243F8602CA3F58B
:102FF000107297605A5922F400125A5143F8387CE3
:1030000053F8402C22F4001243F8402C53F8402C83
:1030100042F0006243F8402CA3F5087297601A59F9
:1030200022F400121A5143F8187C53F8202C22F491
:10303000001243F8202C53F8202C42F0006243F891
:10304000202CA3F5007297601A5822F400121A502F
:103050009F601A6822F400121A601A6842F0006237
:103060001A6003F18003ABD1049DBCF1000F48D07E
:1030700005F5106000EB41124FF67F334F0193606E
:10308000C65905F5306226F40016C65102EB41160A
:10309000B360D659BCF1010F26F40016D651D659AB
:1030A00046F00066D6512CD04F1C00EB47157E0130
:1030B000AB60855902EB471725F400158551BB60BD
:1030C0009359BCF1020F23F400139351935943F029
:1030D0000063935115D0023100EB41174FF67F3654
:1030E0004B01BE60C75827F40017C75002EB4110D0
:1030F0008660D05820F40010D050D05840F00060C6
:10310000D050D8F81C0040F00110C8F81C00DBF8C3
:10311000300048B1D8F8840040F00B00C8F88400B3
:1031200008F1440009E000BFD8F8140042F22B0176
:103130000843C8F8140008F1100001680BF2C442FB
:1031400041F00B010160D8F8000020F4FE60C8F8DF
:103150000000DBF800009BF8101003F0E3FFDBF841
:103160000000416901F48051416104F073FA0146A5
:10317000DBF8000089041AD503F0A0FBDBF800009F
:1031800004F02CFADBF80040CBF80C0000F006FB52
:103190009BF80C200146204604F0FAFA584600F04D
:1031A000D9F9DBF80000416901F40051416104F0F4
:1031B00051FA000706D4DBF8000004F04BFA0006D1
:1031C0000DD435E0584600F0DFF9DBF80000416926
:1031D00001F00801416104F03DFA000628D5049988
:1031E000886920F080008861DBF8040002281FD382
:1031F000012440F2A32504E00134844205F12405B2
:1032000016D21BF805100129F6D104F00F0000EBCF
:10321000C0000BEB80022006DBF8000002F13C014D
:1032200058BF02F51F7104F0EDF8DBF80400E3E786
:10323000DBF8000004F00EFAC0024FD4DBF8000007
:1032400004F008FA049D800240F17E80DBF804104F
:1032500002292AD305F5326001390BF529720123C1
:1032600005E000BF2030013902F124021DD00768BB
:103270001678012EF6D1B7F1FF3FF3DCDBF8FC64E2
:1032800007F4803706F00106B742EBD102F8013CA3
:10329000AF6947F08007AF616F693F06E2D4D8F8A5
:1032A000040040F40070C8F80400DBF80000416935
:1032B00001F40011416104F0CDF940004AD55846AF
:1032C000FFF78EFADBF80000416901F080414161AF
:1032D00004F0C0F940077FF5CAAB42E0DBF8040018
:1032E000022825D304990BF1640501F51264012627
:1032F000012705E001372034874205F1240517D264
:1033000021682A78012AF5D1B1F1FF3FF2DC07F0FC
:103310000F0000EBC0000BEB8001DBF800003C313C
:1033200005F8016C04F06EF8DBF80400E2E700BF7A
:10333000DBF80000416901F48011416104F08AF971
:10334000049D80023FF582AFDBF8000004F082F9B3
:103350004000B4D4DBF8000004F07CF940077FF5AE
:1033600086ABDBF800004468610704D55846FFF7D8
:1033700051FADBF8000041682143416009B0BDE823
:10338000F08F0000D0F8080502F08CBDD0F80805D9
:1033900002F09CBD2DE9F04F8BB0002800F0868034
:1033A0000446056890F8BD0428B9002084F8BC04E0
:1033B000204600F08FF8032084F8BD04E86BC005B8
:1033C0005CBF00202061206803F026FE206804F125
:1033D0001C0A0A90D4E90C5004F1040E9AE8C007C4
:1033E0009EE80E58CDE9085003A880E8C0030A986B
:1033F0008DE80058CDF81CA003F070FA002852D1D7
:1034000020680021002504F07FF9616861B3012084
:103410000023002203EBC30304EB830787F83C205F
:10342000D3B20132A7F84430D3B2994287F83D00B5
:1034300087F84050C7E912557D65EBD8002000237E
:10344000002200BF03EBC30304EB830787F87C2251
:103450000132D3B2994287F87D0287F88002C7E92A
:10346000A200C7F89402EDD8A06822680A90D4E9B7
:103470000C5004F1140E04F1240AD4E903379EE839
:1034800040589AE80007CDE9085002A880E80058A3
:1034900010460A9ACDE90076CDE90589CDF81CA041
:1034A00003F070FB40B1022084F8BD0401252846DA
:1034B0000BB0BDE8F08F00BF0025012084F8385024
:1034C00084F8BD04206803F04DFB28460BB0BDE82E
:1034D000F08F0000B0B586B00068B0F1A04F01D009
:1034E00006B0B0BD002543F630040195C4F20204D5
:1034F000206801A940F001002060206800F0010070
:10350000019001984FF4C05001900220CDE90205CE
:10351000032004900A2005900020C4F20200FEF768
:1035200041FF6068002140F08000606000956069A4
:10353000002240F480406061606900F480400090A7
:1035400000984320FFF794F84320FFF77DF806B07A
:10355000B0BD000010B50446C06828B1022818BFED
:10356000FEF7A4FE012100E00021D4F8080502F0D6
:1035700033FDD4F80805BDE8104002F0E1BC0000BE
:10358000D0F8080502F010BDD0F8080502F016BD0D
:1035900010B5044690F8BC04012804BF022010BDF9
:1035A000012084F8BC0484F83810206804F0DEF8A8
:1035B000002084F8BC0410BDD0F8082500F2C441F6
:1035C000104602F01FBD000010B5044690F8BC0480
:1035D000012804BF022010BDA16A20680122012930
:1035E00084F8BC2406D1A169012903D0816B41F480
:1035F0008031816303F08EFF206803F0A3FA00207E
:1036000084F8BC0410BD000010B50446D0F80805CD
:1036100002F04EFD2068D0F8001E41F00101C0F814
:10362000001E206A002808BF10BD4EF61050CEF2D2
:103630000000016841F00601016010BD2DE9F04174
:10364000002800F08B8043F60808C4F20208044604
:10365000D8F8F8030D4600F00F00884207D288F82A
:10366000F853D8F8F80300F00F00A84276D120688C
:10367000810717D5410705D5D8F8001041F4E0516E
:10368000C8F80010010705D5D8F8001041F46041D2
:10369000C8F80010D8F80010A26821F0F00111431A
:1036A000C8F80010C0073FD1D8F8F80300F00F00A9
:1036B000A84207D988F8F853D8F8F80300F00F00AB
:1036C000A8424BD12068410707D5D8F80010E2681E
:1036D00021F4E0511143C8F80010000708D5D8F8CC
:1036E0000000216920F4604040EAC100C8F80000F1
:1036F00000F082F8D8F8001048F65C52C1F30311CC
:10370000C0F60002515C40F22C0220FA01F140F2B6
:103710000C00C2F200000068C2F200021160FEF765
:1037200053FF0020BDE8F0816068811E022907D2A6
:1037300058F8081C89015CBF0120BDE8F08111E048
:10374000012807D158F8081C89035CBF0120BDE897
:10375000F08107E058F8081C890703D40120BDE870
:10376000F08100BFD8F8001021F003010843C8F829
:103770000000FEF7F9FE064641F28837D8F800004F
:10378000616800F00C00B0EB810F8DD0FEF7ECFE0D
:10379000801BB842F2D90320BDE8F08140F22C0032
:1037A000C2F200000068704740F22C0043F60801A6
:1037B000C2F20000C4F202010068096848F66C52C7
:1037C000C1F38221C0F60002515CC840704700007E
:1037D00040F22C0043F60801C2F20000C4F20201DC
:1037E0000068096848F66C52C1F34231C0F6000225
:1037F000515CC8407047000010B543F60404C4F2A1
:103800000204606800F00C0008280BD0042819BFDF
:1038100042F20040C0F2F40041F60030C0F2B700BE
:1038200010BD00BF206821682368490241F60031BD
:10383000C0F2B70100F03F02C3F388105CBF42F250
:103840000041C0F2F401A1FB00010023FCF774FD6C
:1038500021680222C1F3014102EB4101B0FBF1F00A
:1038600010BD00002DE9F04182B0002868D0044668
:10387000007843F60006C007C4F202060BD0B06819
:1038800000F00C00042840F09F803068800302D5CF
:103890006068002854D0207880071AD5B06810F0EE
:1038A0000C0F09D0B06800F00C00082840F0A6808A
:1038B0007068400200F1A2803068800702D5E0689D
:1038C00001283DD13068216920F0F80040EAC100AC
:1038D00030602078000737D4207840074CD4A569A1
:1038E00055B3B06800F00C00082840F0BB80012DF3
:1038F00026D07068E16900F480028A4220D1216AF2
:1039000000F03F028A421BD147F6C071626A014053
:10391000B1EB821F14D1A16A4FF6FF73C90399431B
:1039200000F44032A1F580318A4209D1E16A00F009
:103930007060B0EB016F03D1002002B0BDE8F081F0
:10394000012002B0BDE8F0816069002840F200006B
:10395000C4F2472076D00121C0F8801EFEF704FE95
:10396000054600BF706F8007B6D4FEF7FDFD401B13
:103970000228F7D9DDE000BF306C10F080580AD182
:1039800000200190306C40F080503064306C00F0CA
:1039900080500190019847F20007C4F20007386890
:1039A000C00541D4386840F480703860FEF7DCFD13
:1039B000054600BF3868C00536D4FEF7D5FD401B6C
:1039C0000228F7D9B5E000BFB06800F00C00082865
:1039D00003D1706840023FF558AF6068B0F5803F92
:1039E00007D0B0F5A02F40F08D80306840F48020E3
:1039F0003060306840F4803030608DE0E06800284E
:103A000052D00020C4F2472001210160FEF7ACFD36
:103A1000054600BF306880073FF554AFFEF7A4FDB0
:103A2000401B0228F6D984E0A068012805D00528AB
:103A30004ED1306F40F004003067306F40F001002D
:103A400030674FE00021C0F8801EFEF78DFD05466F
:103A5000706F80077FF540AFFEF786FD401B0228A0
:103A6000F6D966E00027C4F2472700203866FEF743
:103A70007BFD022D05460BD1306880015ED5FEF737
:103A800073FD401B02284FF00300F5D955E700BF36
:103A9000306880017FF550AFFEF766FD401B0228BD
:103AA0004FF00300F4D948E70020C4F2472000217A
:103AB0000160FEF759FD0546306880077FF509AFC4
:103AC000FEF752FD401B02284FF00300F4D934E703
:103AD000316F002821F001013167316F21F00401BD
:103AE00031674DD0FEF740FD054641F2883700BFF3
:103AF000306F800756D4FEF737FD401BB842F7D928
:103B000017E000BF3168002821F48031316031684E
:103B100021F4802131604FD0FEF726FD054600BF1D
:103B2000306880033FF5B7AEFEF71EFD401B6428EA
:103B3000F6D9032002B0BDE8F08100BF04F11C05F6
:103B40002FCD084340EA8210D9034FF6FF7291430C
:103B5000A1F5803140EA05600843706001203866B5
:103B6000FEF702FD044600BF306880013FF5E4AE79
:103B7000FEF7FAFC001B02284FF00300F4D9DCE644
:103B8000FEF7F2FC054641F2883700BF306F800730
:103B900008D5FEF7E9FC401BB8424FF00300F5D909
:103BA000CBE600BFB8F1000F7FF499AE306C20F087
:103BB0008050306493E600BFFEF7D6FC054600BF98
:103BC000306880037FF567AEFEF7CEFC401B6428AB
:103BD0004FF00300F4D9B0E6411E0020B0EB116FA6
:103BE0001CBF012070474EF21002CEF2000251605D
:103BF0004EF62351CEF20001F0230B7007219060A6
:103C000011607047704700007047000010B590F8D1
:103C10003C20012A4FF0020251D080F83D2002687A
:103C2000D2F804E0D2F808C00C682EF070032343E9
:103C300041F2FF74C4F20004A24253600EDC40F271
:103C4000FF73C4F200039A4216DCB2F1804F2BD00E
:103C500040F20043C4F2000324E000BF40F2FF330F
:103C6000C4F201039A4213DC41F60003C4F20003DC
:103C70009A4219D0002313E040F60003C4F2000377
:103C80009A4211D040F60043C4F200030AE000BF9C
:103C900044F20003C4F201039A4205D040F200430B
:103CA000C4F201039A4204D149682CF080031943FD
:103CB00091600121002280F83D1080F83C201046E0
:103CC00010BD0000002804BF0120704710B5044655
:103CD00090F83D0028B9002084F83C00204600F010
:103CE0001FF8022084F83D002068211D01F062F9D0
:103CF000012084F8460084F83E0084F83F0084F8F0
:103D0000400084F8410084F8420084F8430084F8BD
:103D1000440084F8450084F83D00002010BD0000F8
:103D200080B582B0006841F20001C4F2000188420F
:103D30001CBF02B080BD0020019043F64000C4F2D9
:103D400002000168002241F01001016000680021BA
:103D500000F01000019001983620FEF789FC362013
:103D600002B0BDE88040FEF76FBC000090F83D1047
:103D700001291CBF01207047022180F83D10006816
:103D800041F2FF72C168C4F20002904241F00101A9
:103D9000C1600DDC40F2FF71C4F20001884215DC05
:103DA000B0F1804F2AD040F20041C4F2000123E07C
:103DB00040F2FF31C4F20101884213DC41F60001F8
:103DC000C4F20001884219D0002113E040F600013E
:103DD000C4F20001884211D040F60041C4F2000153
:103DE0000AE000BF44F20001C4F20101884205D09C
:103DF00040F20041C4F20101884206D1816801F01D
:103E00000701062904BF00207047016841F0010145
:103E10000160002070470000002804BF01207047A7
:103E20002DE9F047044690F83D000D4628B90020E2
:103E300084F83C00204600F049F8022084F83D0058
:103E4000206844F20702816891438160211D01F0DE
:103E5000B1F820684FF6FF7881688269D0F820C0F9
:103E6000D5E9003ED5E9026A43EA0109AB6922EAD5
:103E7000080246EA03234FF6FC46B343D5E9076739
:103E800042EA0A0229691A4342EA062242EA011179
:103E90002CF0AA026B6942EA0E0241EA073142EABB
:103EA0000312C0F8089081610262012084F8460084
:103EB00084F83E0084F83F0084F8420084F8430010
:103EC00084F83D000020BDE8F087000080B586B092
:103ED0000068B0F1804F01D006B080BD002043F6ED
:103EE00030010190C4F202010A6942F001020A6144
:103EF0000A6902F001020192019A01900A6842F0F7
:103F000001020A60096801F0010101910199032190
:103F100001910221CDE902100490012005900020BA
:103F2000C4F2020001A9FEF73DFA06B080BD000010
:103F300080B590F83E2090F83F3090F842E090F83D
:103F400043C004290AD0B9B9012A4FF0010208BFC1
:103F5000BEF1010F34D0104680BD00BF012B4FF0E1
:103F6000010208BFBCF1010FF5D1022180F83F101A
:103F700080F8431000681EE0012A4FF0010208BFDC
:103F8000012BE8D1BEF1010FE5D1BCF1010FE2D167
:103F9000022280F83E2080F83F2080F8422080F8FE
:103FA000432091B10068016A21F001010162016AB8
:103FB00041F00101016210216FF0100209E000BF21
:103FC000022180F83E1080F84210006801216FF055
:103FD0000102036A1A400262026A11430162016827
:103FE000002241F001010160104680BD70470000D1
:103FF00010B5016804460869800744BFC8685FEAD5
:10400000807039D40869400744BFC8685FEA4070CF
:104010003ED40869000744BFC8685FEA007045D411
:104020000869C00644BFC8685FEAC0604AD408692E
:10403000C0071CBFC8685FEAC07051D1086900069C
:1040400044BFC8685FEA006052D40869400644BFB4
:10405000C8685FEA406053D40869800646BFC868F4
:104060005FEA806010BD6FF0200220460A61BDE863
:104070001040FFF7C9BD00BF6FF0020008610120CA
:1040800020778869800743D02046FFF7AFFF45E0DF
:104090006FF00400086102202077886910F4407FE7
:1040A00040D02046FFF7A2FF42E000BF6FF00800BB
:1040B000086104202077C86980073DD02046FFF7BB
:1040C00095FF3FE06FF01000086108202077C86975
:1040D00010F4407F3AD02046FFF788FF3CE000BF55
:1040E0006FF001000861204600F024FA2168A5E77E
:1040F0006FF0800008612046FFF784FD2168A4E787
:104100006FF040000861204600F052FA2168A3E7F2
:10411000204600F025F8204600F080F921680020B4
:1041200020776FE7204600F01BF8204600F076F974
:104130002168002020776CE7204600F011F8204627
:1041400000F06CF921680020207769E7204600F034
:1041500007F8204600F062F921680020207766E722
:10416000704700002DE9F04390F83C30012B04BF6C
:104170000220BDE8F0834FEAB202032A00F2FC807D
:10418000DFE802F0023E7EBE036840F200471A6A92
:1041900043F4806522F001021A621C6A1A46D3F8C1
:1041A00004E052F818CF8E6824F00204C4F201072C
:1041B000BD4244EA060405D1CE6824F00C0426F082
:1041C000040634430E68BD4207D1D1E905572EF4E9
:1041D000407E45EA0E0545EA070E2CF0730737438B
:1041E000C3F804E09F614F6809695F631C629F69BF
:1041F00047F008079F619F6927F004079F61B1E0BE
:10420000036840F200481A6A43F4806522F0100205
:104210001A621C6A1A46D3F804C052F818EF8F6865
:1042200024F02004C4F20108454544EA071407D1EC
:10423000CF686FF0400624F0C00406EA0716344346
:10424000D1F80090454506D1D1E905562CF44067D8
:104250002E4347EA860C2EF4E64747EA0927C3F8BF
:1042600004C09F614F6809699F631C629F6947F49E
:1042700000679F619F6927F480679F6171E000BFBD
:10428000036840F200481A6A43F4806522F48072A1
:104290001A621C6A1A46D3F804C052F81CEF8F68E1
:1042A00024F40074C4F20108454544EA072408D107
:1042B000CF6840F2FF463F0224F4406427EA060636
:1042C0003443D1F80090454506D1D1E905562CF488
:1042D00040572E4347EA061C2EF0730747EA0907AA
:1042E000C3F804C0DF614F680969DF631C62DF69DE
:1042F00047F00807DF61DF6927F00407DF6131E07D
:10430000036840F200451A6A43F4806722F4805241
:104310001A621A46D3F820C05C6852F81CEFD1F834
:1043200000808E68C4F20105AF4204D14D6924F4C7
:10433000804444EA85142CF4005747EA06372EF4EB
:10434000E64646EA08265C60DE614E6809691E643E
:104350001F62DF6947F40067DF61DF6927F4806768
:10436000DF6109021368194311600021002280F8FF
:104370003C200846BDE8F0830121002280F83C2063
:104380000846BDE8F0830000002804BF0120704704
:1043900010B5044690F83D0028B9002084F83C0090
:1043A000204600F01FF8022084F83D002068211DFF
:1043B00000F000FE012084F8460084F83E0084F8F6
:1043C0003F0084F8400084F8410084F8420084F8FB
:1043D000430084F8440084F8450084F83D00002040
:1043E00010BD000081B0006844F20001C4F2010178
:1043F000884201D001B070470020009043F644008D
:10440000C4F20200016841F480310160006800F4E8
:1044100080300090009801B07047000070470000A5
:1044200041B1082910D0042914BF00F1410200F164
:104430003F020BE090F83E20012A1CBF012070478C
:10444000022280F83E2013E000F140021278012A97
:104450001CBF012070470222082907D0042914BF7D
:1044600080F8412080F83F2002E000BF80F8402023
:10447000006801F01F010122036A02FA01F123EA38
:1044800001020262026A114341F2FF72C4F20002A9
:10449000904201620CDC40F2FF71C4F200018842DC
:1044A00014DCB0F1804F37D040F2004116E000BF7D
:1044B00040F2FF31C4F20101884215DC41F60001EF
:1044C000C4F20001884227D0002115E040F6000127
:1044D000C4F2000188421FD040F60041C4F200013E
:1044E000884219D01FE000BF44F20001C4F201016C
:1044F000884211D040F20041C4F20101884212D139
:10450000416C40F2004340F48062C4F2010341F484
:1045100000419A42416406D1816801F007010629F1
:1045200004BF00207047016841F0010101600020D4
:1045300070470000B0B541F6C051C2F20001884298
:1045400018BFB0BD41F69864C2F20004206898B16B
:10455000FDF7B0FE41F694622168C2F200021060DD
:1045600000F0E2FC40F26810C2F200000068BDE812
:10457000B04000F0B3BC00BF41F20044C4F20204FA
:104580002046012100220025FDF7E8FF20460221F8
:104590000022FDF7E3FFFDF78DFE41F69461C2F2C4
:1045A0000001086040F26810C2F200000560B0BD72
:1045B000704700007047000070470000B0B582B03F
:1045C000044600680168C368426901F02F05202D88
:1045D00003F0200506D12DB1204602B0BDE8B04061
:1045E00000F08CBD5FEA017C1EBF02F0010E03F4F7
:1045F000907212EB0E0253D1226B012A05D111F0F9
:10460000100218BF13F0100236D10A0622D513F09B
:1046100080021FD094F83D1021293FD1A168B1F547
:10462000805F03D12169002900F07282216A4A1C4F
:10463000226209784160E18C01390A04E1842DD1BC
:10464000C16821F08001C160C16841F04001C160D2
:1046500002B0B0BD490621D513F040011ED0C1689B
:1046600021F04001C1602021204684F83D1002B0B5
:10467000BDE8B04000F0C4BA002101910168019189
:104680004168019101994069400613D4A08DE18DE4
:10469000E28D002A18BF884240F0BE8102B0B0BD52
:1046A000CA0718BF13F4807240F0BA804A0700F1BD
:1046B000BD80C2E0A16B0868426893B2002BEDD0C8
:1046C000A08D8342EAD2E285C969B1F5807F00F00E
:1046D0009D80206850E8030F216820F4807041E835
:1046E0000302DAB1206850E8030F216820F48070DB
:1046F00041E8030292B1206850E8030F216820F4DA
:10470000807041E803024AB1206850E8030F216835
:1047100020F4807041E80302002ADAD1206850E8D2
:10472000050F216820F0010041E80502DAB1206898
:1047300050E8050F216820F0010041E8050292B120
:10474000206850E8050F216820F0010041E80502CB
:104750004AB1206850E8050F216820F0010041E8C7
:104760000502002ADAD1206850E8050F216820F000
:10477000400041E80502DAB1206850E8050F2168E1
:1047800020F0400041E8050292B1206850E8050F92
:10479000216820F0400041E805024AB1206850E855
:1047A000050F216820F0400041E80502002ADAD117
:1047B000202084F83E0000202063206850E8030F8A
:1047C000216820F0100041E80302DAB1206850E8C7
:1047D000030F216820F0100041E8030292B1206825
:1047E00050E8030F216820F0100041E803024AB1AD
:1047F000206850E8030F216820F0100041E8030210
:10480000002ADAD1A06BFDF75FFDA08DE18D401A83
:1048100081B2204602B0BDE8B040FFF7CBBE00BF7A
:10482000226C42F0010222644A0706D5BEF1000F55
:1048300003D0226C42F0020222648A0706D5BEF140
:10484000000F03D0226C42F004022264BCF1000F7E
:1048500009D545EA0E02B2FA82F2520903D1226C5E
:1048600042F008022264226C002A3FF417AF11F0D4
:10487000200118BF002D03D0204600F03FFC206827
:104880004069216C00F0400001F00801401800F080
:10489000B58000BF206850E8030F216820F49070B5
:1048A00041E80302BAB3206850E8030F216820F4FE
:1048B000907041E8030272B3206850E8030F21684A
:1048C00020F4907041E803022AB3206850E8030FF7
:1048D000216820F4907041E80302002ADAD11AE03E
:1048E000206850E8050F216820F0010041E805022A
:1048F000DAB1206850E8050F216820F0010041E896
:10490000050292B1206850E8050F216820F00100EF
:1049100041E805024AB1206850E8050F216820F0FF
:10492000010041E80502002ADAD1206B012824D1D8
:10493000206850E8030F216820F0100041E80302CE
:10494000DAB1206850E8030F216820F0100041E838
:10495000030292B1206850E8030F216820F0100094
:1049600041E803024AB1206850E8030F216820F0B3
:10497000100041E80302002ADAD1202084F83E002A
:10498000002020632068406940063FD5206850E839
:10499000050F216820F0400041E80502DAB12068E7
:1049A00050E8050F216820F0400041E8050292B16F
:1049B000206850E8050F216820F0400041E805021A
:1049C0004AB1206850E8050F216820F0400041E816
:1049D0000502002ADAD1A06BC0B145F2F101C0F6A0
:1049E00000010165FDF7B8FC00283FF457AEA06B4D
:1049F000016D02B0BDE8B040084700BF2046FFF798
:104A0000DBFD0020206402B0B0BD00BF204602B034
:104A1000BDE8B040FFF7D0BD401A216851E8031F40
:104A2000226821F4907142E80313DBB1216851E858
:104A3000031F226821F4907142E8031393B12168A7
:104A400051E8031F226821F4907142E803134BB12F
:104A5000216851E8031F226821F4907142E8031392
:104A6000002BDAD1216851E8051F226821F00101ED
:104A700042E80513DBB1216851E8051F226821F0E7
:104A8000010142E8051393B1216851E8051F22682E
:104A900021F0010142E805134BB1216851E8051FDF
:104AA000226821F0010142E80513002BDAD1202110
:104AB00084F83E1000212163216851E8031F226819
:104AC00021F0100142E80313002B3FF4A1AE21684E
:104AD00051E8031F226821F0100142E80313002B64
:104AE0003FF496AE216851E8031F226821F01001BF
:104AF00042E80313002B3FF48BAE216851E8031FFB
:104B0000226821F0100142E80313002BD4D17FE684
:104B1000216A31F8022B6FF35F22426021628AE53D
:104B2000002804BF0120704710B5044690F83D00EE
:104B300028B9002084F83C00204600F021F8242009
:104B400084F83D002068C16821F40051C16020460E
:104B500000F054FB2068016921F490410161416932
:104B600021F02A014161C16841F40051C160002077
:104B70002021206484F83D1084F83E1010BD000010
:104B800080B586B0016841F20040C4F20100814264
:104B900002D006B080BD00BF002143F63002019173
:104BA000C4F20202536900F5823043F020035361DE
:104BB000536903F020030193019B0191136843F0B3
:104BC00040031360126802F040020192019A4FF410
:104BD000844201920222CDE902210321049108219D
:104BE000059101A9FDF7DEFB472000210022FDF71A
:104BF0003FFD4720FDF728FD06B080BD704700004F
:104C000070470000FEE7000070B586B0002543F64F
:104C1000300005950095C4F20200016841F200449D
:104C200041F0400101600168C4F2020401F040015A
:104C30000091009900950168002241F01001016087
:104C4000016844F2030601F01001009100990095FB
:104C5000016841F001010160016801F0010100916A
:104C600000990095016841F020010160016801F0A0
:104C70002001009100990095016841F080010160D8
:104C8000006844F2030100F0800000900098204684
:104C9000FDF764FC0120CDE9020501A9204601963B
:104CA0000495FDF77FFB06B070BD000080B58CB0A9
:104CB00041F678500021C2F200004FF080424FF6DA
:104CC000FF73C0E900210322C0E90213CDE90321EB
:104CD00001220623CDE9001101618161CDE90521A1
:104CE000CDE90731CDE9092103A90B93FFF794F82A
:104CF000002818BFFDF7DAFA41F67850C2F200003A
:104D00006946FEF783FF002818BFFDF7CFFA0CB005
:104D100080BD000080B582B041F6C0500021C2F2D3
:104D2000000041F200024FF0310CCDE90011C4F255
:104D3000000241F61F43C0E9021C8021C0E90023A4
:104D40008161FEF7BFFF002818BFFDF7AFFA41F6FB
:104D5000C050C2F200006946FEF758FF002818BF95
:104D6000FDF7A4FA02B080BDB0B58CB044F20005E6
:104D700041F60860C4F201050024C2F200000221DD
:104D800040F2E732CDE90544CDE90344C0E90051E2
:104D9000C0E9024204618461FFF7F6FA002818BFF7
:104DA000FDF784FA6020CDE900040294049441F6F2
:104DB0000864C2F20004694620460022FFF7D2F9D7
:104DC000002818BFFDF772FA2068A84202D00CB084
:104DD000B0BD00BF002043F630010790C4F20201CD
:104DE0000A6842F010020A60096801F01001079198
:104DF0000799202107910221CDE908100A9003208C
:104E00000B9005F5504007A9FDF7CCFA0CB0B0BDEA
:104E100080B541F6506041F20041C2F20000C4F298
:104E2000010100234FF00C0C4FF4E13280E80E003A
:104E3000C0E90333C0E905C3C361FFF771FE002871
:104E400008BF80BDBDE88040FDF730BA80B541F2B3
:104E5000905040F21001C2F20000C2F200010022A4
:104E600000F0EEFE002818BFFDF720FA41F2905046
:104E700040F23001C2F20000C2F2000101F040F93C
:104E8000002818BFFDF712FA41F2905040F2CC0111
:104E9000C2F20000C2F2000100F0E2FB002818BFDD
:104EA000FDF704FA41F29050C2F2000001F052F90D
:104EB000002808BF80BDBDE88040FDF7F7B90000BD
:104EC000FEE70000FEE7000041F66C00C2F20000C1
:104ED000FDF7C4BD7047000070470000B0B541F257
:104EE0000045C4F202050446B0F1FF3F284609DD43
:104EF00002210122FDF732FB284601210022FDF7A5
:104F00002DFB09E001210122FDF728FB28460221A3
:104F10000022FDF723FB644241F60860C2F2000064
:104F200000684463B0BD000040F26012C2F20002AB
:104F30001368081A40F2000CC2F2000CC31A00EE0B
:104F4000103A9CED001A9CED012A03EE100AB8EE0F
:104F5000C00AB8EEC33A22EE032A21EE000A30EE70
:104F6000020A9168BDEEC00A106010EE100A0844F3
:104F700040F2E73182ED010A8842B8BF01464FF6A0
:104F80001940CFF6FF708142D8BF0146916070474B
:104F9000FDF7F0BA4EF68850CEF20000016841F4F9
:104FA000700101607047000041F6C050C2F200007D
:104FB000FFF71EB810B540F6FF3E0368C4F2000EBE
:104FC00040F2004C7045C4F2010C27DCB0F1804F78
:104FD00031D040F20042C4F2000290422BD040F6A1
:104FE0000002C4F20002904225D041F6FF72C4F2E2
:104FF0000002904229DC70453CDCB0F1804F5FD06C
:1050000040F20042C4F20002904259D040F6000241
:10501000C4F20002904253D056E000BF40F6004276
:10502000C4F20002904206D0604504D00022C4F2CF
:1050300001029042D9D14A6823F07003134341F62C
:10504000FF72C4F200029042D5DD43F6FF72C4F253
:105050000102904222DC42F20002C4F200029042BD
:105060002ED00022C4F20102904229D0604527D000
:105070002AE000BF40F60042C4F2000290421FD076
:1050800041F60002C4F20002904219D041F60042FB
:10509000C4F20002904213D016E000BF44F20002B6
:1050A000C4F2010290420BD044F60002C4F20102A5
:1050B000904205D044F20042C4F20102904203D172
:1050C000CA6823F44073134323F080024B69D1F87C
:1050D00000E08C681A430260C46240F48062C0F849
:1050E00028E0624504BF096901630121416110BDE7
:1050F000806B0021C185C184FFF75EBA81B090F852
:105100003E10222921D183680246B3F5805F09D180
:1051100052F8281F52F8183C002B63D003685B68D4
:105120000AE000BF52F8281F13B90369002BF5D01D
:1051300003685B6803F07F030B7011680131116035
:10514000C18D01390A04C18502D001B0704700BF8A
:105150000168CA6822F02002CA60CA6822F480721C
:10516000CA604A6922F001024A61202180F83E109B
:10517000016B01293ED10021016300BF016851E8A4
:10518000031F026821F0100142E80313DBB101683C
:1051900051E8031F026821F0100142E8031393B1A4
:1051A000016851E8031F026821F0100142E803136F
:1051B0004BB1016851E8031F026821F0100142E879
:1051C0000313002BDAD101680A68D20606D5002243
:1051D00000920A680092496800910099818D01B09F
:1051E000FFF7E8B9026852686FF35F2221F8022BDB
:1051F0008162A5E701B0FFF701BD000010B50446CC
:105200000068D4E902C22369016921F440511143C5
:105210000161626943EA0C01E3691143C268194301
:1052200049F20C639A431143C1604169A26921F4B8
:10523000407141F20043114340F48062C4F2010323
:105240009A42416102D1FEF7C3FA01E0FEF7ACFADF
:10525000E16963681922B1F5004FA0FB020123D177
:105260005A00DB0FFBF768F848F21F51C5F2EB114B
:10527000A0FB01235A094FF69C73C0F6FF7303F19C
:10528000805302FB0300322303EBC000A0FB0101AB
:105290004FF4F87000EA111000EB0210C1F3421154
:1052A00008442168886010BD9A009B0FFBF744F802
:1052B00048F21F51C5F2EB11A0FB01235A094FF62A
:1052C0009C73C0F6FF7302FB0300322303EB001054
:1052D000A0FB0101F02000EA511000EB0210C1F325
:1052E000431108442168886010BD000041F65060F9
:1052F000C2F20000FFF762B9B0B5D0F8D42200EBDB
:105300008202D2F8C0323BB301F00F058C4605EBA8
:10531000850100EB810151F8184F64B1D0F8C8E263
:1053200005EBC5050EEB8505D5F848E0B4FBFEF5A9
:1053300005FB1E4595B10024C3F81442D2F8C402FF
:10534000056935B1D3F8080203F504716246A84730
:1053500000242046B0BD00BF0320B0BD00240C6077
:1053600061460022002300F0ADFE2046B0BD0000E3
:10537000B0B50446D0F8D40204EB8000D0F8C05297
:1053800095B1204600F040FDD4F8D412C5F80C02C7
:1053900004EB8101D1F8C412D5F80402CA6805F5FE
:1053A000037190470020B0BD0320B0BD70B58121CE
:1053B000044600F06DFC002520460121258700F001
:1053C00067FC20468221A4F8785100F061FCD4F8F3
:1053D000D402E56404EB8000D0F8C01289B1D0F8A3
:1053E000C40240688047D4F8D40204F5307656F8F9
:1053F000200001F06FF9D4F8D40246F82050C4F828
:10540000BC52002070BD000010B5D0F8D41200EBE3
:105410008100D0F8C0428CB1D0F8C41281B194F8A8
:105420000002FF280CD08B6894F80122214698478F
:10543000FF2084F80002002010BD00BF032010BD33
:10544000002010BD014640F2AC000A22C2F200006A
:105450000A807047F0B581B040F26807C2F20007D9
:1054600004463846822100F03DFB064638460121BD
:1054700000F038FB05463846812100F033FB002E52
:105480001CBF1021B171002D1CBF4021A980002834
:105490001CBF40218180432140F26800C2F200001D
:1054A000218001B0F0BD0000F0B581B040F2680786
:1054B000C2F2000704463846822100F013FB06467C
:1054C0003846012100F00EFB05463846812100F0E8
:1054D00009FB002E1CBF1021B171002D1CBF4FF421
:1054E0000071A98000281CBF4FF400718180432106
:1054F00040F26800C2F20000218001B0F0BD00005F
:10550000F0B581B040F26807C2F2000704463846A1
:10551000822100F0E7FA06463846012100F0E2FA5F
:1055200005463846812100F0DDFA002E1CBF10210F
:10553000B171002D1CBF4021A98000281CBF402153
:105540008180432140F26800C2F20000218001B056
:10555000F0BD00002DE9F04104464FF4077001F062
:10556000BBF800284ED04FF407710546FAF7A6FFA6
:10557000D4F8D402402704EB8000C0F8C052207C4D
:10558000C4F8BC52002808BF4FF4007720468121A0
:1055900002223B46022600F0ADFC4FF001082046F7
:1055A000012102223B46A4F8388000F0A3FC102021
:1055B000A4F84E002046822103220823A4F8788113
:1055C00000F098FCD4F8D4020027C5F8047204EB6C
:1055D0008000D0F8C402A4F84C8000688047C5F869
:1055E0001472C5F81872D5F804223AB1207C98B12B
:1055F00020460121402300F091FC00263046BDE802
:10560000F08100BFD4F8D402002104EB8000C0F880
:10561000C0120220BDE8F081204601214FF4007342
:1056200000F07CFC0020BDE8F081000080B5D0F8DF
:10563000D41200EB8101D1F8C01279B190F810C0FA
:10564000D1F8042240230121BCF1000F08BF4FF420
:10565000007300F063FC002080BD00BF032080BD0C
:1056600000290FBF0320D0F8D42200EB8200C0F83D
:10567000C41218BF00207047D0F8D42200EB82007B
:10568000D0F8C00200280EBF0320C0F8041200208A
:1056900070470000D0F8D43200EB8300D0F8C0028D
:1056A00000280FBF0320C0F80812C0F81022002005
:1056B0007047000070B582B00446D0F8D4020D46A1
:1056C00004EB8000D0F8C06200218DF80710ADF81F
:1056D0000410DEB1297811F060021BD0202A61D1BC
:1056E000EA88002A2ED049B2B1F1FF3F36DD687852
:1056F000314686F800022046402A28BF402286F81C
:10570000012200F0A1F8002618E000BF0326304671
:1057100002B070BD68780B2844D80026DFE800F09E
:10572000060E42424242424242422C3A94F89C02C5
:10573000032837D101A92046022225E0304602B0D5
:1057400070BD00BFD0F8C402294683686878002283
:1057500000269847304602B070BD00BFD0F8C402A2
:105760003146836868789847EA8820463146072A98
:1057700028BF072208E000BF94F89C02032811D13B
:105780000DF107012046012200F078F8002630468E
:1057900002B070BD94F89C02032803D10026304665
:1057A00002B070BD2046294600F042F8032630467C
:1057B00002B070BD80B5D0F8D41200EB8101D1F8F1
:1057C000C0223AB1D2F8141200294FF0010103D0DF
:1057D000084680BD032080BDC2F81412D2F81032F2
:1057E000D2F808228121C36200F06CFC0021084637
:1057F00080BD000080B5D0F8B822526890470028DC
:1058000018BF032080BD00000020704700207047B3
:1058100080B513460A46002100F080FB002080BDC1
:1058200080B513460A46002100F04CFC002080BDE4
:1058300010B58021044600F017FC20460021BDE889
:10584000104000F011BC000080B513460A46032149
:10585000C0F894120021C0E9563300F05FFB00202D
:1058600080BD000080B50521C0F8941200210022FF
:10587000002300F053FB002080BD000080B51346DC
:105880000A460221C0F894120021C0E9063300F054
:1058900019FC002080BD000080B50421C0F89412DE
:1058A00000210022002300F00DFC002080BD00003C
:1058B00010B540F27014C2F200040A4602A021465C
:1058C00000F050F9204610BD43444320436F6E66FC
:1058D0006967000040F2B8001222C2F200000A809C
:1058E0007047000010B540F27014C2F200040A467E
:1058F00002A0214600F036F9204610BD4344432063
:10590000496E7465726661636500000040F2E000F4
:105910000422C2F200000A807047000010B540F275
:105920007014C2F200040A4602A0214600F01AF9DF
:10593000204610BD53544D6963726F656C65637486
:10594000726F6E696373000010B540F27014C2F29A
:1059500000040A4602A0214600F004F9204610BDCA
:1059600053544D3332205669727475616C20436F05
:105970006D506F7274000000B0B547F61020C1F68C
:10598000FF70026883684FF01A0C9B18A1F800C0E2
:1059900000F0A3804FF0370C1A0F0CEB1371406826
:1059A000B3F1204F38BF02F1300140F2E402C2F2FD
:1059B0000002917019014FF0000E0CEB117582F886
:1059C00003E0C3F30364B1F1204F38BF04F13005A5
:1059D000190215710CEB117582F805E0C3F303543D
:1059E000B1F1204F38BF04F13005190395710CEB6C
:1059F000117582F807E0C3F30344B1F1204F38BFBB
:105A000004F13005190415720CEB117582F809E0E8
:105A1000C3F30334B1F1204F38BF04F13005190549
:105A200095720CEB117582F80BE0C3F30324B1F10E
:105A3000204F38BF04F1300519061573C3F3031462
:105A40000CEB1175B1F1204F4FEA037103F00F0316
:105A500082F80DE038BF04F1300503F13704957387
:105A600082F80FE0B1F1204F38BF03F13004010F8D
:105A70000CEB1073147482F811E0B0F1204F38BFB2
:105A800001F1300301010CEB1174937482F813E0FF
:105A9000C0F30363B1F1204F38BF03F130040102BA
:105AA0001475C0F303530CEB1174B1F1204F4FEA9E
:105AB000003182F815E038BF03F130040CEB1173AC
:105AC000947582F817E0C0F30340B1F1204F38BF5E
:105AD00000F13003137682F819E040F2E400C2F2DC
