:020000040800F2
:1000000040240020F9020008793E0008013C000865
:10001000753E0008851500081D67000800000000F7
:100020000000000000000000000000008D3E0008FD
:100030000D16000800000000893E0008913E0008EF
:100040001303000813030008130300081303000838
:100050001303000813030008130300081303000828
:100060001303000813030008130300081303000818
:100070001303000813030008130300081303000808
:1000800013030008130300081303000813030008F8
:1000900013030008130300081303000813030008E8
:1000A00013030008130300081303000813030008D8
:1000B00013030008130300081303000813030008C8
:1000C00013030008130300081303000813030008B8
:1000D00013030008130300081303000813030008A8
:1000E0001303000813030008130300081303000898
:1000F0001303000813030008130300081303000888
:100100001303000813030008130300081303000877
:100110001303000813030008130300081303000867
:100120001303000813030008130300081303000857
:100130001303000813030008130300081303000847
:100140001303000813030008130300087D3E000892
:10015000130300081303000813030008E14100081B
:100160001303000813030008130300081303000817
:100170001303000813030008130300080000000025
:1001800013030008130300081303000813030008F7
:1001900013030008130300081303000813030008E7
:1001A00000000000000000001303000800F002F847
:1001B00000F092F80AA090E8000C82448344AAF16F
:1001C0000107DA4501D100F087F8AFF2090EBAE86D
:1001D0000F0013F0010F18BFFB1A43F0010318477B
:1001E000E46F000004700000103A24BF78C878C1A2
:1001F000FAD8520724BF30C830C144BF04680C602D
:10020000704700000023002400250026103A28BF74
:1002100078C1FBD8520728BF30C148BF0B60704778
:100220006E2900F0E781702900F02B83662906F023
:100230003A87652906F03787672906F034876129F0
:1002400006F0338703681B0A28BF41F08001692943
:1002500000F09481642900F09181752900F08E816D
:100260006F2900F0B982782900F0F782E92900F0BF
:100270005382E42900F05082F52900F04D82EF29E5
:1002800000F0B682F82900F0F6820368DB0928BF87
:1002900041F08001632900F0F787732900F0FC87A3
:1002A000E32901F00780F32901F00C80002070475A
:1002B0001FB506F0EBFE01F05BF804000020002102
:1002C00006F0CEFE401C60600020002106F0B2FE69
:1002D000E0601FBD10B510BD01F01CF81146FFF71E
:1002E000E7FF06F071FA01F0F9F803B4FFF7F2FF47
:1002F00003BC01F03FF90000094880470948004766
:10030000FEE7FEE7FEE7FEE7FEE7FEE7FEE7FEE7C5
:10031000FEE7FEE704480549054A064B7047000022
:10032000953E0008AD010008401E0020402400203A
:10033000402000204020002053EA020C00F0698099
:100340002DE9F04B4FF00006002B1FBFB3FA83F5E9
:1003500003FA05F424FA05F65E4012BF1643B2FA1A
:1003600082F502FA05F4C5F120051EBF22FA05FC4C
:1003700044EA0C04203556EA044C4FEA144418BFF2
:10038000641C4FF000084FF00009904271EB030C21
:1003900039D3002919BFB1FA81F701FA07F6B0FA8B
:1003A00080F700FA07F6C7F120071EBF20FA07FC06
:1003B00046EA0C062037B6FBF4FCA7EB0507103F16
:1003C00007F01F0BCBF120062CFA06F60CFA0BFBFC
:1003D00044BFB3460026202FA4BF5E464FF0000B5B
:1003E0005BEA060C08BF4FF0010B19EB0B0948EB59
:1003F0000608ABFB027C06FB02CC0BFB03CCC01B4C
:1004000071EB0C01C1E70B46024641464846BDE888
:10041000F08B13B5084318BF4FF0FF300146AFF320
:100420000080BDE81C4070477CB51D4616460C0098
:10043000009007D04142A14202D32044401E01E077
:100440004FF0FF30064B7B442A4669460190304608
:1004500000F0E9F8002C02D0009A002111707CBD58
:10046000030200004FF0000200B513469446964682
:10047000203922BFA0E80C50A0E80C50B1F12001B7
:10048000BFF4F7AF090728BFA0E80C5048BF0CC065
:100490005DF804EB890028BF40F8042B08BF7047C3
:1004A00048BF20F8022B11F0804F18BF00F8012B35
:1004B000704770477047704770B50446856900689B
:1004C000C10601D5302600E02026C00707D070BD48
:1004D000D4E9012130469047206A401C20626D1EFD
:1004E000F6D570BD70B5044685690078C00707D1A0
:1004F00070BDD4E9012120209047206A401C206271
:100500006D1EF6D570BD09684A0501D540B2704729
:10051000C905FCD500B2704709684A0501D5C0B2CB
:100520007047C905FCD580B2704770B50C460546CA
:10053000012A05D02878800600D5EA69002302E068
:10054000012305E05B1C934202D2E05C0028F9D154
:10055000A869E618C01AA861286A184428622846C3
:10056000FFF7AAFF04E0D5E9012114F8010B904739
:10057000B442F8D32846FFF7B5FF70BD2DE9F0412E
:100580000646002410687529314616A510D0FFF7DD
:10059000BAFF002802DA404213A507E031688A0753
:1005A00001D512A502E0490704D511A5012401E0F7
:1005B000FFF7B2FF00210A2206F1240709E0B0FB91
:1005C000F2FCB0FBF2F302FB1C003030785418460A
:1005D000491C0028F3D123462A463046BDE8F041A5
:1005E00000F063BA000000002D0000002B000000A6
:1005F0002000000011680268006A530501D50870E8
:100600000AE0D30501D5088006E0130603D5C2171A
:10061000C1E9000200E008600120704701694A1C3E
:1006200002610878704700B58FB0CDE90131002133
:10063000059105497944CDE903101146684600F05B
:100640002BF90FB000BD0000E5FFFFFFD1E900234B
:100650009A4202D2531C0B60107070472DE9FF5F65
:1006600015468A460446DFF8AC80F8440027D8E9EE
:1006700000103E46CDE9001010E03AF816106A4628
:1006800002A800F023FE411C07D02178890603D57B
:10069000E269391891420DD80744761C207880060B
:1006A00002D5E069B84205DDAE42E6DB3AF8160055
:1006B0000028E2D1A069C01BA0612046FFF7FCFE24
:1006C000D8E90010CDE90010002017E03AF8181022
:1006D0006A4602A800F0FAFDB0F1FF3F81460BD058
:1006E00000250DF1080B05E0D4E901211BF80500F8
:1006F00090476D1C4D45F7D308F10100B04280468C
:10070000E4DB206A384420622046FFF7EBFEBDE8B8
:10071000FF9F0000426A00002DE9F0418046D21D93
:1007200022F007020025D2E90002F52915A614D00F
:10073000011E72F1000106DA0023D0EB030063EB27
:10074000020211A608E0D8F800108B0701D50FA609
:1007500002E0490701D50EA601251146002408F143
:10076000240704E000F05CF930323A55641C50EA8A
:100770000102F7D12B46324621464046BDE8F04102
:1007800000F093B9000000002D0000002B000000D5
:100790002000000030B4002100F1240408E002F041
:1007A0000705D208303542EA4372DB086554491C1C
:1007B00052EA0305F3D10468002310A2250708D5E7
:1007C00004F020040C4304D0C46901230CA2641E6D
:1007D000C46130BC00F069B910B504462146106808
:1007E000FFF79AFE02462046BDE810400023D1E7FD
:1007F000D21D22F00701D1E90023CBE70000000061
:1008000030000000F0B40D460188090502D5214CE6
:100810007C4402E01F4C7C440E34002100F124068D
:1008200008E002F00F071209E75D42EA03721B09B4
:100830007754491C52EA0307F3D1027800231207C8
:1008400004D5702D06D009B1022311342246F0BC24
:1008500000F02BB901231034F8E770B504460D46BB
:1008600021461068FFF758FE024629462046BDE89B
:1008700070400023C6E7D21D22F00703D3E900230E
:10088000C0E70368126843F0200303600823C361D4
:100890000023B7E7A46800002DE9F05F894604460D
:1008A0004FF0000ADFF874B1FB44C0F820A02046E6
:1008B000E1688847002874D0252806D0D4E90121B2
:1008C0009047206A401C2062F1E700265F462046E0
:1008D000E16888472028054607DB312D05D27819C5
:1008E00010F8200C08B10643F1E7B00701D526F057
:1008F0000406C4F81CA00027C4F818A02A2D09D0AB
:10090000284606F08FFB38B304EB8708303DC8F863
:10091000185019E059F8041B204604EB8702916136
:10092000E1688847012F054618D1E069002820DAE0
:1009300026F020061DE0D8F8180000EB800005EB3B
:1009400040003038C8F818002046E168884705465E
:1009500006F068FB0028EED1012F0AD02E2D08D119
:100960002046E16888477F1C0546022F46F0200696
:10097000C4DBA069002803DA404246F00106A0610A
:10098000F00701D026F010066C2D0BD0682D09D091
:100990004C2D39D06A2D35D0742D35D07A2D33D0E9
:1009A00016E038E0E1682F4620468847B842054601
:1009B00009D16C2F26D04FF48060E16806432046B1
:1009C0008847054604E06C2F1AD04FF48070064328
:1009D0000DB3A5F14100192802D8203546F4006670
:1009E0004A462946204626604E46FFF719FC80B14C
:1009F00001280BD0F61D26F0070000F1080956E784
:100A00004020E4E78020D8E70020D6E706F104097B
:100A10004DE7284652E7206ABDE8F09F34680000A1
:100A200030B5B0F10A0271F100034FEA900E4EEAC0
:100A3000817EB0EB0E0061EB91014FEA101E4EEA91
:100A4000017E10EB0E0041EB11114FEA102E4EEA21
:100A5000016E10EB0E0041EB11214FEA104E4EEAF1
:100A6000014E10EB0E0041EB1141401841F1000125
:100A70004FEAD00040EA41704FEAD1014FEA8104C9
:100A800044EA907410EB800544EB01046D1944EBCB
:100A90000404521BA3414FF0000348BF0A3200D5A3
:100AA00030BD401C41F1000130BD2DE9F0470D463D
:100AB00099469246044600F124080168880604D548
:100AC000E06921F01001216000E00120A84201DD71
:100AD000471B00E00027A1697A1902EB0900081AF8
:100AE000A0612078C00602D42046FFF7E5FC00266E
:100AF00008E0D4E901211AF806009047206A401C5A
:100B0000761C20624E45F4DB2078C0060AD52046CC
:100B1000FFF7D2FC06E0D4E9012130209047206A9B
:100B2000401C2062381EA7F10107F4DC07E0D4E97D
:100B3000012118F805009047206A401C2062281EF9
:100B4000A5F10105F3DC2046FFF7CCFC2078000678
:100B500002D50220BDE8F0870120FBE72DE9FF4F19
:100B60000C461E464FF0FF378BB0D2E90001DDF88E
:100B700060800A908A46C1F30A5505B93D460021B6
:100B800008464FF00000BAF1000F00F4400005DA0B
:100B900000EB80004FF4400101EA50004FEA905909
:100BA000B9F1010F00DDB9460A9850EA4A000ED0AB
:100BB00044F61050A5F2FF3545432F14B8F1000F4D
:100BC0001ED07542291E1EDDC9F100021CE0B8F1DD
:100BD000010F4FF0000001D0302103E0F24305E0A7
:100BE0002154401CB042FBDB30460022002121543E
:100BF0000B99C1F80880C1E900200FB0BDE8F08F63
:100C0000BD1B6D1CDEE74A4600DA694206A800F00B
:100C1000F3FB06AB93E8070003AB83E807005046FD
:100C20000A9905F01FFE8DE80700A0F500501F3857
:100C300000900398002D0ADD42F21F014A46084445
:100C4000002303A90390684606F088F809E0A0F5A0
:100C500000504A461F38002303A90390684606F057
:100C600092F88DE807000004000C03D04FF0FF302D
:100C7000410800E01046B8F1000F03D000220092B6
:100C800015461EE0751E05D4FFF7CAFE30326255C8
:100C90006D1EF9D5B3460122084302D000227F1C05
:100CA00004E02078302801D100227F1E002A099715
:100CB00084D01DE0112D07DAFFF7B2FE3032625505
:100CC0006D1C50EA0102F5D1084302D00098C8B16A
:100CD0000EE00021681E05E0235C625C6354225430
:100CE000401E491C8142F7DBAB46A81B401E099001
:100CF000002004F80B000B98099AC0F80880C0E99E
:100D0000002B7AE711264FF0000857E72DE9F04F46
:100D100088460446D21D22F0070191B0D1E90001B6
:100D2000CDE90A0106F066F902460B98C00F01D022
:100D30002D2007E02068810701D52B2002E020212B
:100D400001EAC000032A099001D0072A05DB034607
:100D50004146204600F010FB0BE12078800601D5CB
:100D6000E06900E00620B8F1650F814606D0B8F1D1
:100D7000660F18D0B8F1670F70D131E00020B9F1DB
:100D8000110F009001DB112301E009F101030AAA10
:100D900001A90CA8FFF7E2FEDDE90C70002609F1BD
:100DA0000105834647E001204B4600904FF0004785
:100DB0000AAA01A90CA8FFF7D1FEDDE90DB00C9934
:100DC0005D46002610B909F101000D18B9EB0500C8
:100DD00003D4C0F1FF3609F10105A5EB09002BE0B2
:100DE000B9F1010F01DA4FF001090020B9F1110F3B
:100DF0000090484601DD112300E003460AAA01A93C
:100E00000CA8FFF7ABFEDDE90C704D4600268346CB
:100E1000207800070AD4AB4500DA5D4601A8012D11
:100E200004DD411911F8011C302907D04F4502DAC1
:100E300017F1040F04DA012082460FE06D1EEEE781
:100E4000002F02DCED1B3E4403E0781CA84200DDCD
:100E50007D1CB81B00F1010A4FF000472078000705
:100E600003D4AA4501DB4FF0FF3A0021B7F1004F50
:100E70000DF143088DF8431024D002202B23002FBE
:100E800001DA7F422D230A21021EA0F1010000DCBD
:100E90005FB197FBF1FC97FBF1F201FB1C7C17465D
:100EA0000CF1300C08F801CDEEE7A8F10100037059
:100EB0002188090501D5452100E06521A0F101083F
:100EC00000F8011C09980FA9A1EB0807FF1D00B14C
:100ED0000120411901EBEA70A1693844081A401E4B
:100EE000A0612078C00602D42046FFF7E5FA0998F1
:100EF00028B1D4E901219047206A401C2062207863
:100F0000C00622D52046FFF7D7FA1EE0002E04DBEC
:100F1000B34502DD01A8805D00E03020D4E9012165
:100F20009047206A401C2062761CAAF101005FEA0B
:100F3000000A0AD100F01CFAC0680168405CD4E9DC
:100F400001219047206A401C2062281EA5F101055E
:100F5000DCDC07E0D4E9012118F8010B9047206A96
:100F6000401C2062381EA7F10107F3DC2046FFF782
:100F7000B9FA032011B041E62DE9F04F04460D46C1
:100F8000D21D22F0070089B0D0E9009748463946C3
:100F900006F030F80246F80F01D02D2307E0206854
:100FA000810701D52B2302E0202101EAC0038DF83F
:100FB00020300BB1012000E00020032A824601D03E
:100FC000072A04DB2946204600F0D6F93FE12078C5
:100FD000800601D40D2500E0E569C7F30A560D2D02
:100FE00049DA00214FEA175B08464FF00000002F56
:100FF00000F4400007DA00EB80004FF4400100EB02
:10100000D07001EA60008115012901DD4FF0FF3148
:1010100000224FEA850CBCF1180F06D31346ACF141
:1010200018004FF08052C24003E04FF4801323FABF
:101030000CF30CF10C0CBCF1200F04D3ACF1200C20
:1010400009FA0CF001E007FA0CF000294FF0004813
:1010500001DD18B90FE00ED140450CD319EB0209A0
:101060005F4121B9404502D19F4329EA0209BBEB08
:10107000175F00D0761C2088000502D57B48784495
:1010800002E07A487844193808AA302302F80A3076
:10109000037C0AF10101002E0AF1020A53546A4648
:1010A00002DC4FF0300101E04FF031014FF0010858
:1010B0008DF8001002D0A6F2FF3603E059EA47018E
:1010C00000D06B4E002D02DC2178090704D54FF0CB
:1010D00002082E218DF80110C44600210BE0C7F351
:1010E00003433F01C35C491C6D1E02F8083005290B
:1010F00008F1010801DA002DF1DC00210CE000EB21
:101100001973491C1B786D1E082902F808304FEA34
:10111000091908F1010801DA002DF0DC21688B06BD
:1011200002D516E0A8F10108E04505DD02EB080351
:1011300013F8013C302BF5D0B8F1000F09DD02EBBC
:10114000080313F8013C2E2B03D1090701D4A8F1A1
:101150000108002D05DD3E2102F808106D1E08F182
:101160000108407C002E02F8080008F1010804DAAA
:101170002D20764202F8080002E02B2002F8080039
:101180000A214FF47A70864208F101080BDB96FBC6
:10119000F0F3303302F8083096FBF0F308F1010861
:1011A00000FB136601E0642E0CDB642096FBF0F379
:1011B000303302F8083096FBF0F308F1010800FB29
:1011C000136601E00A2E06DB96FBF1F0303002F8E0
:1011D000080008F1010896FBF1F001FB10603030C7
:1011E00002F80800A16908F1010808EB050202EB0A
:1011F0000A00081AA0612078C00602D42046FFF732
:101200005BF9216A08AE01EB0A00206204E0D4E930
:10121000012116F8010B9047BAF1010AF7D22078A4
:10122000C00602D52046FFF747F96E4609E016F8DA
:10123000010B3E280FD0D4E901219047206A401CC1
:101240002062B8F10108F2D22046FFF74BF909B04D
:101250000320BDE8F08F206A2844206203E0D4E92F
:101260000121302090476D1EEBD3F8E7826000002B
:1012700002FCFFFF10B5436913B1AFF3008001E03A
:10128000FFF753F9012010BD127800F124010A7014
:1012900000224A700122EDE711684FF0FF32E9E7C2
:1012A00010B5436913B1AFF3008001E0FFF7D6F941
:1012B000012010BD128800F1240182840022C28422
:1012C0000122EDE711684FF0FF32E9E72DE9F04127
:1012D00016460C46054600F043F8036893F80101F2
:1012E000012807D0FF2C12D8185D80B101202C7086
:1012F000BDE8F081D3F807013246214603F2071317
:10130000C7182846BC46BDE8F041002360474FF0AF
:10131000FF30EDE7754600F0EBF8AE460500694694
:10132000534620F00700854618B020B5FEF7F2FFBF
:10133000BDE820404FF000064FF000074FF00008D6
:101340004FF0000BAC46ACE8C009ACE8C009ACE813
:10135000C009ACE8C00921F007018D4670470000C4
:1013600010B500F005F8001D10BD00BFF55C0000D1
:1013700000487047180100202DE9F0411F4604463F
:1013800003260168072A01F4006004DB08B116A5F2
:1013900005E016A503E008B115A500E015A521F0AC
:1013A00010002060A069C01EA0610FB1401EA061A6
:1013B0002046FFF781F84FB1D4E901213846904724
:1013C000206A401C2062C01C206206E0206AFAE706
:1013D000D4E9012115F8010B9047761EF8D220467A
:1013E000FFF780F8BDE8F0814E414E006E616E005F
:1013F000494E4600696E66002DE9F0478146164663
:101400008AB0354878440DC88DE80D0032487844DC
:10141000801C03AC0DC884E80D0041F69B300844E5
:10142000372190FBF1F290FBF1F5A5F1800501FB6E
:1014300012041B3C02D56442012000E00020DFF8CA
:1014400098A080460027FA44AAF1BE0A0EE0E00701
:101450000AD03246684607EB470101230AEB8101B7
:1014600005F091FC8DE8070064107F1C002CEED184
:10147000194F7F44AE3F19E0E80715D007EB041081
:101480000DF1180A90E80E008AE80E00C068F042DC
:1014900001D1981908903246012306A903A805F046
:1014A00072FC03AB83E807006D10641C002DE3D1D0
:1014B0004FF0010332466946B8F1000F03A802D08D
:1014C00005F04CFC01E005F05EFCC9E90001C9F83B
:1014D00008200AB0BDE8F0878C5D000010B5044616
:1014E000AFF300802046BDE81040FEF7FEBE0000CE
:1014F00000487047F800002030B44FF0013C50F82D
:10150000042B51F8043BCCFA52F4D51A20D1FCB983
:1015100050F8042B51F8043BCCFA52F4D51A17D1E9
:10152000B4B950F8042B51F8043BCCFA52F4D51A54
:101530000ED16CB950F8042B51F8043BCCFA52F49C
:10154000D51A05D1002CDAD030BC4FF0000070471E
:1015500029BAB1FA81F111F01801D1F120008440CB
:10156000F2D1CA40CB4012F0FF0213F0FF0330BCAF
:10157000D01A704701491820ABBEFEE726000200D2
:1015800070470000FEE70000002070470020704711
:1015900010B541F28054C2F2000440F68051C2F20C
:1015A00000012046002202F0EFFF40F28051C2F21B
:1015B0000001204602F0DAFF002010BDB0B504465D
:1015C0000078762803D10CA0214604F005F840F2FB
:1015D0008050C2F200004FF40061FEF743FF41F279
:1015E0008055C2F200052846214602F0BFFF28467A
:1015F00002F096FF0020B0BDCAD5B5BDCBD9B6C8A4
:10160000CEAA25730A000000002070477047000032
:10161000EFF3108072B600BFFEE7000070B5866D74
:10162000044600F04BF994F83510022928D10546FC
:101630002068216C026822F016020260426922F0E2
:101640008002426109B9A16C19B1016821F0080159
:101650000160016821F00101016000BF206800689D
:10166000C00715D000F02AF9401B0628F6D3202029
:101670006065032084F83500002184F8341070BDC3
:10168000802060650120002184F8341070BD00BF07
:10169000E06D3F2101FA00F0B060012084F83500D0
:1016A0000020002184F8341070BD000090F835103F
:1016B000022909D1052180F835100068016821F060
:1016C00001010160002070478021416501207047C1
:1016D000B0B5044600F0F2F8054640F20000C2F250
:1016E00000000078611C18BF044400BF00F0E6F859
:1016F000401BA042FAD3B0BD2DE9F04F82B000F1FB
:101700003E4242F2004502F1FF77C4F202050A228E
:1017100043F6004E4FEAB726A84208BF0922C4F29A
:10172000010E092E38BF4FEAB722012500260027F7
:101730004FF00008009208E008F101080437B8F102
:10174000100F06F1020600F0A7800C6805FA08F9F0
:1017500014EA090FF0D0D1F804B003220BF0030C07
:10176000ACF10104B240012C6FEA020A10D8826881
:10177000CC6802EA0A02B440224382604268CBF39A
:10178000001422EA090204FA08F42243426005E048
:10179000BCF1030F02D14FF0030C20E0C2688C684B
:1017A00002EA0A02B4402243BCF1020FC26016D121
:1017B0006FF0030202EA58020244D2F820C007F098
:1017C0001C050F230C69AB402CEA030304FA05F552
:1017D0002B431362D1F804B001250BF0030C02680F
:1017E0000CFA06F302EA0A021A431BF4403F0260B5
:1017F000A2D0002243F644030192C4F202031A6805
:101800004FF6084C42F480421A601A68CFF6FF7C0B
:1018100002F480420192019A28F00302724452F8C5
:101820000C3007F00C050F24AC40A343009C04FAD5
:1018300005F52B4342F80C30DEF808204B6842EAED
:10184000090543F60C4CDC0258BF22EA0905CEF824
:101850000850C4F2010CDCF800209C0242EA0905A1
:1018600058BF22EA0905CCF80050DEF804209C039A
:1018700042EA090558BF22EA0905CEF80450DEF80D
:101880000020DB0342EA090558BF22EA0905CEF829
:101890000050012550E700BF02B0BDE8F08F000006
:1018A000426902EA0103914341EA034181617047C1
:1018B000002A08BF090481617047000041F63C60BE
:1018C000C2F200000068704740F2000041F63C613F
:1018D000C2F20000C2F2000100780A6810440860F9
:1018E0007047000080B543F60040C4F20200016872
:1018F00041F400710160016841F480610160016898
:1019000041F480710160032000F088F80F2000F09E
:1019100005F800F027F8002080BD000070B540F207
:101920000006C2F2000640F224013278C2F2000141
:101930004FF47A730968B3FBF2F20446B1FBF2F19B
:10194000084601F0F3FA0F2C4FF0010508D838B91A
:101950004FF0FF3021460022002500F033F874607C
:10196000284670BD82B0002043F640010190C4F2C9
:1019700002014A6842F480424A604A6802F48042A6
:101980000192019A0090086840F080500860086851
:1019900000F080500090009802B07047002848BFC7
:1019A0007047C1B200F01F00012202FA00F04EF2AF
:1019B0000012CEF2000242EAD10121F003010860D8
:1019C0007047000010B54EF60C5CCEF2000CDCF84F
:1019D0000030C3F3022E8EF00704042C28BF042429
:1019E000BEF103034FF0FF3E0EFA04F438BF0023AC
:1019F000A14399400EFA03F39A43114300F00F02FA
:101A000000F160430901043A03F56443624400288D
:101A100048BF02F10C03197010BD00004EF60C51C6
:101A2000CEF200010A684FF6FF031A4060F30A2263
:101A300042F0806040F0FD70086070477047000021
:101A400002680020516270472DE9F043D0F8009001
:101A5000D9F82400A1B1D9F82830B1F1010800EB80
:101A600013435DD0A8F10100C0B2032808F0030CB5
:101A70000ED24FF0010E0027BCF1000F33D14FE022
:101A800040EA0240C9F828000020BDE8F08300BF0A
:101A900008F0FC0E09F1F404002009F5827500BF7E
:101AA00054F8107F064603EB174046F00103DBB203
:101AB00046F0020755F82330FFB255F8277000EBC7
:101AC000134000EB174346F00300C0B255F8201056
:101AD000301DC7B2774503EB1143E1D106F1050E86
:101AE000BCF1000F1CD009EB8700D0F80401BCF159
:101AF000010F03EB104313D05FFA8EF009EB800067
:101B0000D0F80401BCF1020F03EB104308D00EF132
:101B10000100C0B209EB8000D0F8040103EB1043D0
:101B200043EA024009EB8801C1F804010020BDE846
:101B3000F0830000D0F8080503F0CEB801EBC10235
:101B4000D0F8083500EB8200C26C184603F02CB8C0
:101B500001EBC102D0F8083500EB8200D0F88C22EE
:101B6000184603F07DB80000D0F8080503F0B6B8B9
:101B700010B5044648B2B0F1FF3F01F00F0000EB92
:101B8000C00104EB810205DD02F51F71002382F81C
:101B90007D3204E0012302F13C0182F83D3094F8EB
:101BA000BC240870012A04BF022010BD2068012255
:101BB00084F8BC2403F082FE002084F8BC0410BD2D
:101BC000B0B54268044601F00F0082423CBF0120DC
:101BD000B0BD49B2B1F1FF3F0ADD00EBC00104EB3B
:101BE000810202F51F71002382F87D3209E000BFF7
:101BF00000EBC00104EB8102012302F13C0182F8F9
:101C00003D3094F8BC240025012A8D70087004BF73
:101C10000220B0BD2068012284F8BC2404F0B0F991
:101C2000284684F8BC54B0BD01F00F0101EBC1019E
:101C300000EB8100D0F89C027047000070B50646AA
:101C400048B2B0F1FF3F01F00F0000EBC00107DD2B
:101C500006EB810404F51F71002584F87D5206E02F
:101C600006EB810C01240CF13C018CF83D404D78D1
:101C70000870002DCA600B7118BF0881022B04BFC9
:101C80000020487196F8BC04012804BF022070BDF2
:101C90003068012286F8BC2403F0CEFC002086F8D0
:101CA000BC0470BD80B501F00F0C0CEBCC0100EB57
:101CB000810ECEF894320023CEF89C328EF87D321D
:101CC0000369CEF88C22012B8EF87CC208BFCEF8B7
:101CD000902200680EF51F71DAB2BCF1000F03D03C
:101CE00004F098F9002080BD04F09EF8002080BD2B
:101CF000B0B50446406801F00F05854284BF01205D
:101D0000B0BD48B2B0F1FF3F0ADD01EBC10004EB0A
:101D1000800000F51F71002280F87D2209E000BFDD
:101D200005EBC50004EB8000012200F13C0180F8C6
:101D30003D2094F8BC04012201288A700D7004BF74
:101D40000220B0BD206884F8BC2404F043F91DB122
:101D5000002084F8BC04B0BD2068217C04F2C44299
:101D600004F0E0F8002084F8BC04B0BD10B501F028
:101D70000F0C0CEBCC0100EB810E714601F83CCF4F
:101D80008B6100230B62036901244C70012B0A61F3
:101D900008BFCEF850200068DAB2BCF1000F03D0C3
:101DA00004F038F9002010BD04F03EF8002010BD0A
:101DB0002DE9F04F89B005680646284604F01CFB63
:101DC00010B109B0BDE8F08F306804F043FB002883
:101DD000F7D0D5F80808C0F30D213068C6F8FC1418
:101DE00004F038FB01463068890703D5416901F0EA
:101DF0000201416105F5006704F02CFB01463068E3
:101E0000C906089604953CD5816921F010018161CD
:101E10002C6AC4F34340062804F00F051AD00228A8
:101E200029D147F6F07014EA000824D005EBC5006C
:101E300006EB8009D9F88C124FEA18140498224650
:101E400004F00CFBD9F88C0200EB1810C9F88C02D6
:101E500008E000BF049806F2C441082204F0FEFA2C
:101E6000C4F30A1405EBC50006EB8000D0F89C1201
:101E70002144C0F89C123068816941F010018161F1
:101E8000049D039704F0E6FA000340F1EB80089804
:101E9000006804F0BDFA002800F0E48006460898C7
:101EA0004FF4306400F2C44100F527784FF0000B86
:101EB000079118E02819022181605FEA8A6042BF19
:101EC0002819202181605FEA8A4042BF28194FF417
:101ED000005181600BF1010B760804F1200408F138
:101EE000240800F0BF80F007F4D008985FFA8BF95F
:101EF0000068494604F0A6FA8246C00762D0281955
:101F000001218160089F38682118036C8A683F6945
:101F1000012F29D1170735D4970600F19B8012F0C5
:101F2000280F4FD143F20B07C4F65477BB4202D3BC
:101F300012F400422FD158F8042C0969BBF1000FAC
:101F40006FF3DF41A2EB0101C8F8001035D1089B07
:101F5000D3F89422002A00F08380D3F88C0208443E
:101F6000C3F88C0229E000BF43F20B07C4F6547794
:101F7000FF37BB4216D110040DD4900644BF202079
:101F800088601AE043F20B00C4F65470834219D300
:101F900012F4004016D04FF4004088605FEA0A70E7
:101FA00013D437E0BBF1000F07D10899D1F8941290
:101FB00019B90021079A03F0B5FF08984946FFF7C1
:101FC000C7FD00BF5FEA0A7024D528190821816087
:101FD000089843F20B020068C4F65472056C204462
:101FE0008168571EBD4205D911F400411CBF4FF452
:101FF00000418160089800F089FCBD42049D09D928
:1020000008980069012805D10898079A00680121FD
:1020100003F088FF5FEACA6042BF2819102181607F
:102020005FEA8A707FF549AF6869000604D50399B5
:10203000486840F48060486018F81D0C01287FF45F
:1020400039AF002008F81D0C0898494600F048FBFD
:1020500030E700BF202088605FEA0A70B5D4D9E776
:102060000121A7E7DDF820B0DBF8000004F0F2F969
:10207000400340F1D580DBF8000004F0C1F90028EE
:1020800000F0CE80824605F5106002900BF2C4404D
:102090000027019006E000BF5FEA5A0A07F1010736
:1020A00000F0BE805FEACA70F6D0DBF80000F9B23B
:1020B000079104F0B5F9029E0446C00726D0039AA2
:1020C00007F00F00516B012303FA00F021EA000032
:1020D000506306EB47108360DBF81000012811D134
:1020E00007EBC7000BEB8000D0E912121144C1646A
:1020F00047B9DBF8540028B9DBF80000019A012148
:1021000003F010FF07995846FFF718FD200742BF5C
:1021100006EB471008218160E00642BF06EB47103E
:1021200010218160600642BF06EB471040218160AC
:10213000A00715D52846394604F0F4F807EBC70088
:102140000BEB800010F83F1F012905D10021017021
:102150000799584600F0C0FA06EB4710022181604B
:10216000200699D507EBC7000BEB8002914659F882
:10217000541FC84658F8080F81428DD3DBF8006021
:1021800093465BF8485F0B1AAB4238BF1D46069674
:1021900006EB4713D3F818C905F1030E1FFA8CF5A7
:1021A000B5EB9E0F28D303F5106102F14C050591A4
:1021B000D9F8001081421FD9DBF80040089A081AAC
:1021C000A0422968167C38BF0446DDE90602A3B2A6
:1021D000009604F06DFA2868D8F8001020442860B2
:1021E00008190599C8F800008969E21C89B2B1EBA9
:1021F000920FDDD2D9F80010DDF820B0049D8142A5
:102200003FF64AAF069B07F00F00D3F834180122BF
:1022100002FA00F021EA0000C3F834083CE700BFEE
:10222000DBF8000004F016F9002825D4DBF80000E4
:10223000DDF80C8004F00EF900053ED4DBF8000058
:1022400004F008F9C00449D5D8F80400102120F0A2
:102250000100C8F80400DBF8000004F063F8DBF8C4
:102260000400002800F0F780411E032900F0030C51
:1022700038D20021A2E000BFDDF80C80D8F80400BD
:1022800020F00100C8F804009BF8F404012807D1ED
:1022900000208BF8F40458460021FFF7CFFB02E042
:1022A000584600F017FBDBF80000416901F00041DF
:1022B000416104F0CFF80005C0D5D8F80800C00788
:1022C00002D0584600F04AFBDBF80000416901F4F7
:1022D0000061416104F0BEF8C004B5D4DBF8000031
:1022E000EDE000BF20F0030E05F536634FF6A05673
:1022F0004FF6C0554FF6E0544FF6006000214FF600
:102300007F37CFF6FF76CFF6FF75CFF6FF74CFF6A7
:10231000FF7000BFA3F5187297609A59043122F438
:1023200000129A5143F8587C53F8602C8E4522F4E1
:10233000001243F8602C53F8602C42F0006243F81E
:10234000602CA3F5107297605A5922F400125A516A
:1023500043F8387C53F8402C22F4001243F8402C08
:1023600053F8402C42F0006243F8402CA3F5087269
:1023700097601A5922F400121A5143F8187C53F846
:10238000202C22F4001243F8202C53F8202C42F089
:10239000006243F8202CA3F5007297601A5822F4CB
:1023A00000121A509F601A6822F400121A601A680C
:1023B00042F000621A6003F18003ABD1049DBCF1CE
:1023C000000F48D005F5106000EB41124FF67F3347
:1023D0004F019360C65905F5306226F40016C651C8
:1023E00002EB4116B360D659BCF1010F26F400167A
:1023F000D651D65946F00066D6512CD04F1C00EB72
:1024000047157E01AB60855902EB471725F400158F
:102410008551BB609359BCF1020F23F40013935113
:10242000935943F00063935115D0023100EB4117EB
:102430004FF67F364B01BE60C75827F40017C750D0
:1024400002EB41108660D05820F40010D050D058D4
:1024500040F00060D050D8F81C0040F00110C8F8DF
:102460001C00DBF8300048B1D8F8840040F00B00C5
:10247000C8F8840008F1440009E000BFD8F814004F
:1024800042F22B010843C8F8140008F1100001685B
:102490000BF2C44241F00B010160D8F8000020F4B7
:1024A000FE60C8F80000DBF800009BF8101003F095
:1024B00039FDDBF80000416901F48051416103F00E
:1024C000C9FF0146DBF8000089041AD503F0F6F8CD
:1024D000DBF8000003F082FFDBF80040CBF80C00D3
:1024E00000F006FB9BF80C200146204604F050F853
:1024F000584600F0D9F9DBF80000416901F40051B9
:10250000416103F0A7FF000706D4DBF8000003F0E9
:10251000A1FF00060DD435E0584600F0DFF9DBF8E6
:102520000000416901F00801416103F093FF0006DA
:1025300028D50499886920F080008861DBF80400C0
:1025400002281FD3012440F2A32504E00134844271
:1025500005F1240516D21BF805100129F6D104F067
:102560000F0000EBC0000BEB80022006DBF8000040
:1025700002F13C0158BF02F51F7103F043FEDBF886
:102580000400E3E7DBF8000003F064FFC0024FD46F
:10259000DBF8000003F05EFF049D800240F17E80C6
:1025A000DBF8041002292AD305F5326001390BF556
:1025B0002972012305E000BF2030013902F1240215
:1025C0001DD007681678012EF6D1B7F1FF3FF3DC76
:1025D000DBF8FC6407F4803706F00106B742EBD164
:1025E00002F8013CAF6947F08007AF616F693F06B1
:1025F000E2D4D8F8040040F40070C8F80400DBF816
:102600000000416901F40011416103F023FF400023
:102610004AD55846FFF78EFADBF80000416901F011
:102620008041416103F016FF40077FF5CAAB42E0ED
:10263000DBF80400022825D304990BF1640501F5A9
:1026400012640126012705E001372034874205F195
:10265000240517D221682A78012AF5D1B1F1FF3F6C
:10266000F2DC07F00F0000EBC0000BEB8001DBF8A1
:1026700000003C3105F8016C03F0C4FDDBF80400F8
:10268000E2E700BFDBF80000416901F4801141611D
:1026900003F0E0FE049D80023FF582AFDBF800000E
:1026A00003F0D8FE4000B4D4DBF8000003F0D2FE03
:1026B00040077FF586ABDBF800004468610704D56E
:1026C0005846FFF751FADBF80000416821434160AA
:1026D00009B0BDE8F08F0000D0F8080502F05CBB3F
:1026E000D0F8080502F06CBB2DE9F04F8BB0002844
:1026F00000F086800446056890F8BD0428B90020E3
:1027000084F8BC04204600F08FF8032084F8BD0450
:10271000E86BC0055CBF00202061206803F07CFBF3
:10272000206804F11C0A0A90D4E90C5004F1040E4C
:102730009AE8C0079EE80E58CDE9085003A880E843
:10274000C0030A988DE80058CDF81CA002F0C6FF1F
:10275000002852D120680021002503F0D5FE6168D1
:1027600061B301200023002203EBC30304EB8307C2
:1027700087F83C20D3B20132A7F84430D3B2994253
:1027800087F83D0087F84050C7E912557D65EBD8C2
:1027900000200023002200BF03EBC30304EB8307E8
:1027A00087F87C220132D3B2994287F87D0287F8FC
:1027B0008002C7E9A200C7F89402EDD8A068226899
:1027C0000A90D4E90C5004F1140E04F1240AD4E95F
:1027D00003379EE840589AE80007CDE9085002A860
:1027E00080E8005810460A9ACDE90076CDE90589BF
:1027F000CDF81CA003F0C6F840B1022084F8BD0457
:10280000012528460BB0BDE8F08F00BF0025012050
:1028100084F8385084F8BD04206803F0A3F82846F3
:102820000BB0BDE8F08F0000B0B586B00068B0F125
:10283000A04F01D006B0B0BD002543F6300401958D
:10284000C4F20204206801A940F001002060206861
:1028500000F00100019001984FF4C0500190022057
:10286000CDE90205032004900A2005900020C4F25F
:102870000200FEF741FF6068002140F080006060C8
:1028800000956069002240F480406061606900F456
:102890008040009000984320FFF794F84320FFF712
:1028A0007DF806B0B0BD000010B50446C06828B180
:1028B000022818BFFEF7ACFE012100E00021D4F889
:1028C000080502F003FBD4F80805BDE8104002F04B
:1028D000B1BA0000D0F8080502F0E0BAD0F8080557
:1028E00002F0E6BA10B5044690F8BC04012804BF13
:1028F000022010BD012084F8BC0484F83810206840
:1029000003F034FE002084F8BC0410BDD0F8082584
:1029100000F2C441104602F0EFBA000010B50446C0
:1029200090F8BC04012804BF022010BDA16A2068F1
:102930000122012984F8BC2406D1A169012903D010
:10294000816B41F48031816303F0E4FC206802F084
:10295000F9FF002084F8BC0410BD000010B5044647
:10296000D0F8080502F01EFB2068D0F8001E41F0E8
:102970000101C0F8001E206A002808BF10BD4EF6F5
:102980001050CEF20000016841F00601016010BD58
:102990002DE9F041002800F08B8043F60808C4F2CE
:1029A00002080446D8F8F8030D4600F00F008842EC
:1029B00007D288F8F853D8F8F80300F00F00A842BF
:1029C00076D12068810717D5410705D5D8F80010C2
:1029D00041F4E051C8F80010010705D5D8F80010FF
:1029E00041F46041C8F80010D8F80010A26821F046
:1029F000F0011143C8F80010C0073FD1D8F8F80320
:102A000000F00F00A84207D988F8F853D8F8F80367
:102A100000F00F00A8424BD12068410707D5D8F835
:102A20000010E26821F4E0511143C8F800100007DB
:102A300008D5D8F80000216920F4604040EAC100C0
:102A4000C8F8000000F082F8D8F8001047F2AC1285
:102A5000C1F30311C0F60002515C40F2240220FAD7
:102A600001F140F20400C2F200000068C2F200026C
:102A70001160FEF753FF0020BDE8F0816068811E01
:102A8000022907D258F8081C89015CBF0120BDE863
:102A9000F08111E0012807D158F8081C89035CBFB8
:102AA0000120BDE8F08107E058F8081C890703D42D
:102AB0000120BDE8F08100BFD8F8001021F003012B
:102AC0000843C8F80000FEF7F9FE064641F28837D1
:102AD000D8F80000616800F00C00B0EB810F8DD0D9
:102AE000FEF7ECFE801BB842F2D90320BDE8F0816E
:102AF00040F22400C2F200000068704740F2240057
:102B000043F60801C2F20000C4F20201006809683D
:102B100047F2BC12C1F38221C0F60002515CC840EA
:102B20007047000040F2240043F60801C2F20000A2
:102B3000C4F202010068096847F2BC12C1F34231D5
:102B4000C0F60002515CC8407047000010B543F663
:102B50000404C4F20204606800F00C0008280BD0E2
:102B6000042819BF42F20040C0F2F40041F60030E0
:102B7000C0F2B70010BD00BF206821682368490279
:102B800041F60031C0F2B70100F03F02C3F38810F4
:102B90005CBF42F20041C0F2F401A1FB000100233E
:102BA000FDF7CAFB21680222C1F3014102EB41019A
:102BB000B0FBF1F010BD00002DE9F04182B000281B
:102BC00068D00446007843F60006C007C4F2020647
:102BD0000BD0B06800F00C00042840F09F803068F3
:102BE000800302D56068002854D0207880071AD569
:102BF000B06810F00C0F09D0B06800F00C00082885
:102C000040F0A6807068400200F1A2803068800722
:102C100002D5E06801283DD13068216920F0F80034
:102C200040EAC10030602078000737D420784007A0
:102C30004CD4A56955B3B06800F00C00082840F0EA
:102C4000BB80012D26D07068E16900F480028A42C1
:102C500020D1216A00F03F028A421BD147F6C071A1
:102C6000626A0140B1EB821F14D1A16A4FF6FF7373
:102C7000C903994300F44032A1F580318A4209D159
:102C8000E16A00F07060B0EB016F03D1002002B088
:102C9000BDE8F081012002B0BDE8F0816069002844
:102CA00040F20000C4F2472076D00121C0F8801E17
:102CB000FEF704FE054600BF706F8007B6D4FEF72E
:102CC000FDFD401B0228F7D9DDE000BF306C10F09D
:102CD00080580AD100200190306C40F08050306460
:102CE000306C00F080500190019847F20007C4F268
:102CF00000073868C00541D4386840F480703860F7
:102D0000FEF7DCFD054600BF3868C00536D4FEF787
:102D1000D5FD401B0228F7D9B5E000BFB06800F030
:102D20000C00082803D1706840023FF558AF606876
:102D3000B0F5803F07D0B0F5A02F40F08D8030680F
:102D400040F480203060306840F4803030608DE0A6
:102D5000E068002852D00020C4F247200121016021
:102D6000FEF7ACFD054600BF306880073FF554AF65
:102D7000FEF7A4FD401B0228F6D984E0A0680128D4
:102D800005D005284ED1306F40F004003067306F19
:102D900040F0010030674FE00021C0F8801EFEF7D0
:102DA0008DFD0546706F80077FF540AFFEF786FD0D
:102DB000401B0228F6D966E00027C4F2472700200E
:102DC0003866FEF77BFD022D05460BD13068800189
:102DD0005ED5FEF773FD401B02284FF00300F5D9C6
:102DE00055E700BF306880017FF550AFFEF766FD04
:102DF000401B02284FF00300F4D948E70020C4F23A
:102E0000472000210160FEF759FD05463068800724
:102E10007FF509AFFEF752FD401B02284FF003007B
:102E2000F4D934E7316F002821F001013167316FA7
:102E300021F0040131674DD0FEF740FD054641F217
:102E4000883700BF306F800756D4FEF737FD401B30
:102E5000B842F7D917E000BF3168002821F480316B
:102E60003160316821F4802131604FD0FEF726FDBA
:102E7000054600BF306880033FF5B7AEFEF71EFD84
:102E8000401B6428F6D9032002B0BDE8F08100BFE2
:102E900004F11C052FCD084340EA8210D9034FF6F8
:102EA000FF729143A1F5803140EA056008437060EC
:102EB00001203866FEF702FD044600BF306880013D
:102EC0003FF5E4AEFEF7FAFC001B02284FF00300CA
:102ED000F4D9DCE6FEF7F2FC054641F2883700BF84
:102EE000306F800708D5FEF7E9FC401BB8424FF071
:102EF0000300F5D9CBE600BFB8F1000F7FF499AE1F
:102F0000306C20F08050306493E600BFFEF7D6FCB2
:102F1000054600BF306880037FF567AEFEF7CEFC44
:102F2000401B64284FF00300F4D9B0E6411E002096
:102F3000B0EB116F1CBF012070474EF21002CEF2B1
:102F4000000251604EF62351CEF20001F0230B70C7
:102F5000072190601160704710B590F83C20012A5D
:102F60004FF0020251D080F83D200268D2F804E010
:102F7000D2F808C00C682EF07003234341F2FF74AE
:102F8000C4F20004A24253600EDC40F2FF73C4F2AC
:102F900000039A4216DCB2F1804F2BD040F200437E
:102FA000C4F2000324E000BF40F2FF33C4F2010387
:102FB0009A4213DC41F60003C4F200039A4219D08E
:102FC000002313E040F60003C4F200039A4211D03C
:102FD00040F60043C4F200030AE000BF44F20003DD
:102FE000C4F201039A4205D040F20043C4F2010347
:102FF0009A4204D149682CF0800319439160012161
:10300000002280F83D1080F83C20104610BD0000E2
:10301000002804BF012070472DE9F047044690F8CE
:103020003D000D4628B9002084F83C00204600F001
:1030300049F8022084F83D00206844F207028168C4
:1030400091438160211D00F02FFF20684FF6FF782B
:1030500081688269D0F820C0D5E9003ED5E9026ACE
:1030600043EA0109AB6922EA080246EA03234FF664
:10307000FC46B343D5E9076742EA0A0229691A43C5
:1030800042EA062242EA01112CF0AA026B6942EAE6
:103090000E0241EA073142EA0312C0F8089081614A
:1030A0000262012084F8460084F83E0084F83F0064
:1030B00084F8420084F8430084F83D000020BDE815
:1030C000F087000080B586B00068B0F1804F01D075
:1030D00006B080BD002043F630010190C4F2020129
:1030E0000A6942F001020A610A6902F001020192D2
:1030F000019A01900A6842F001020A60096801F031
:10310000010101910199032101910221CDE90210F0
:103110000490012005900020C4F2020001A9FEF7EE
:10312000EBFA06B080BD000080B590F83E2090F824
:103130003F3090F842E090F843C004290AD0B9B972
:10314000012A4FF0010208BFBEF1010F34D0104632
:1031500080BD00BF012B4FF0010208BFBCF1010F81
:10316000F5D1022180F83F1080F8431000681EE07E
:10317000012A4FF0010208BF012BE8D1BEF1010F77
:10318000E5D1BCF1010FE2D1022280F83E2080F8A7
:103190003F2080F8422080F8432091B10068016A06
:1031A00021F001010162016A41F001010162102177
:1031B0006FF0100209E000BF022180F83E1080F895
:1031C0004210006801216FF00102036A1A40026296
:1031D000026A114301620168002241F001010160AD
:1031E000104680BD2DE9F04390F83C30012B04BF20
:1031F0000220BDE8F0834FEAB202032A00F2FC800D
:10320000DFE802F0023E7EBE036840F200471A6A21
:1032100043F4806522F001021A621C6A1A46D3F850
:1032200004E052F818CF8E6824F00204C4F20107BB
:10323000BD4244EA060405D1CE6824F00C0426F011
:10324000040634430E68BD4207D1D1E905572EF478
:10325000407E45EA0E0545EA070E2CF0730737431A
:10326000C3F804E09F614F6809695F631C629F694E
:1032700047F008079F619F6927F004079F61B1E04D
:10328000036840F200481A6A43F4806522F0100295
:103290001A621C6A1A46D3F804C052F818EF8F68F5
:1032A00024F02004C4F20108454544EA071407D17C
:1032B000CF686FF0400624F0C00406EA07163443D6
:1032C000D1F80090454506D1D1E905562CF4406768
:1032D0002E4347EA860C2EF4E64747EA0927C3F84F
:1032E00004C09F614F6809699F631C629F6947F42E
:1032F00000679F619F6927F480679F6171E000BF4D
:10330000036840F200481A6A43F4806522F4807230
:103310001A621C6A1A46D3F804C052F81CEF8F6870
:1033200024F40074C4F20108454544EA072408D196
:10333000CF6840F2FF463F0224F4406427EA0606C5
:103340003443D1F80090454506D1D1E905562CF417
:1033500040572E4347EA061C2EF0730747EA090739
:10336000C3F804C0DF614F680969DF631C62DF696D
:1033700047F00807DF61DF6927F00407DF6131E00C
:10338000036840F200451A6A43F4806722F48052D1
:103390001A621A46D3F820C05C6852F81CEFD1F8C4
:1033A00000808E68C4F20105AF4204D14D6924F457
:1033B000804444EA85142CF4005747EA06372EF47B
:1033C000E64646EA08265C60DE614E6809691E64CE
:1033D0001F62DF6947F40067DF61DF6927F48067F8
:1033E000DF6109021368194311600021002280F88F
:1033F0003C200846BDE8F0830121002280F83C20F3
:103400000846BDE8F0830000002804BF0120704793
:1034100010B5044690F83D0028B9002084F83C001F
:10342000204600F01FF8022084F83D002068211D8E
:1034300000F03AFD012084F8460084F83E0084F84C
:103440003F0084F8400084F8410084F8420084F88A
:10345000430084F8440084F8450084F83D000020CF
:1034600010BD000081B0006844F20001C4F2010107
:10347000884201D001B070470020009043F644001C
:10348000C4F20200016841F480310160006800F478
:1034900080300090009801B07047000041B10829C9
:1034A00010D0042914BF00F1410200F13F020BE0EB
:1034B00090F83E20012A1CBF01207047022280F8AC
:1034C0003E2013E000F140021278012A1CBF0120C7
:1034D00070470222082907D0042914BF80F8412030
:1034E00080F83F2002E000BF80F84020006801F033
:1034F0001F010122036A02FA01F123EA01020262BA
:10350000026A114341F2FF72C4F20002904201626A
:103510000CDC40F2FF71C4F20001884214DCB0F10F
:10352000804F37D040F2004116E000BF40F2FF313B
:10353000C4F20101884215DC41F60001C4F2000129
:10354000884227D0002115E040F60001C4F20001B6
:1035500088421FD040F60041C4F20001884219D0D1
:103560001FE000BF44F20001C4F20101884211D003
:1035700040F20041C4F20101884212D1416C40F294
:10358000004340F48062C4F2010341F400419A42D6
:10359000416406D1816801F00701062904BF0020BB
:1035A0007047016841F00101016000207047000090
:1035B0007047000070470000B0B582B00446006854
:1035C0000168C368426901F02F05202D03F0200532
:1035D00006D12DB1204602B0BDE8B04000F008BDD4
:1035E0005FEA017C1EBF02F0010E03F4907212EB41
:1035F0000E0253D1226B012A05D111F0100218BF1F
:1036000013F0100236D10A0622D513F080021FD023
:1036100094F83D1021293FD1A168B1F5805F03D115
:103620002169002900F07282216A4A1C226209780D
:103630004160E18C01390A04E1842DD1C16821F097
:103640008001C160C16841F04001C16002B0B0BDFD
:10365000490621D513F040011ED0C16821F0400178
:10366000C1602021204684F83D1002B0BDE8B04082
:1036700000F0C4BA002101910168019141680191F3
:1036800001994069400613D4A08DE18DE28D002A96
:1036900018BF884240F0BE8102B0B0BDCA0718BF53
:1036A00013F4807240F0BA804A0700F1BD80C2E096
:1036B000A16B0868426893B2002BEDD0A08D8342C5
:1036C000EAD2E285C969B1F5807F00F09D8020686B
:1036D00050E8030F216820F4807041E80302DAB15A
:1036E000206850E8030F216820F4807041E803024D
:1036F00092B1206850E8030F216820F4807041E8FF
:1037000003024AB1206850E8030F216820F480705A
:1037100041E80302002ADAD1206850E8050F216849
:1037200020F0010041E80502DAB1206850E8050FF9
:10373000216820F0010041E8050292B1206850E8BC
:10374000050F216820F0010041E805024AB1206818
:1037500050E8050F216820F0010041E80502002A29
:10376000DAD1206850E8050F216820F0400041E8D8
:103770000502DAB1206850E8050F216820F040000A
:1037800041E8050292B1206850E8050F216820F059
:10379000400041E805024AB1206850E8050F216861
:1037A00020F0400041E80502002ADAD1202084F808
:1037B0003E0000202063206850E8030F216820F0BD
:1037C000100041E80302DAB1206850E8030F2168D5
:1037D00020F0100041E8030292B1206850E8030F86
:1037E000216820F0100041E803024AB1206850E847
:1037F000030F216820F0100041E80302002ADAD10B
:10380000A06BFDF70BFFA08DE18D401A81B2204621
:1038100002B0BDE8B040FFF7CBBE00BF226C42F063
:10382000010222644A0706D5BEF1000F03D0226CC4
:1038300042F0020222648A0706D5BEF1000F03D0CF
:10384000226C42F004022264BCF1000F09D545EA63
:103850000E02B2FA82F2520903D1226C42F008023F
:103860002264226C002A3FF417AF11F0200118BF28
:10387000002D03D0204600F0BBFB20684069216C7E
:1038800000F0400001F00801401800F0B58000BFD2
:10389000206850E8030F216820F4907041E803028B
:1038A000BAB3206850E8030F216820F4907041E813
:1038B000030272B3206850E8030F216820F490706F
:1038C00041E803022AB3206850E8030F216820F47E
:1038D000907041E80302002ADAD11AE0206850E82B
:1038E000050F216820F0010041E80502DAB12068E7
:1038F00050E8050F216820F0010041E8050292B16F
:10390000206850E8050F216820F0010041E8050219
:103910004AB1206850E8050F216820F0010041E815
:103920000502002ADAD1206B012824D1206850E852
:10393000030F216820F0100041E80302DAB120688B
:1039400050E8030F216820F0100041E8030292B113
:10395000206850E8030F216820F0100041E80302BE
:103960004AB1206850E8030F216820F0100041E8B8
:103970000302002ADAD1202084F83E0000202063D0
:103980002068406940063FD5206850E8050F21684F
:1039900020F0400041E80502DAB1206850E8050F48
:1039A000216820F0400041E8050292B1206850E80B
:1039B000050F216820F0400041E805024AB1206867
:1039C00050E8050F216820F0400041E80502002A78
:1039D000DAD1A06BC0B143F6E571C0F60001016514
:1039E000FDF764FE00283FF457AEA06B016D02B0F6
:1039F000BDE8B040084700BF2046FFF7DBFD0020D0
:103A0000206402B0B0BD00BF204602B0BDE8B040A7
:103A1000FFF7D0BD401A216851E8031F226821F446
:103A2000907142E80313DBB1216851E8031F22685B
:103A300021F4907142E8031393B1216851E8031F08
:103A4000226821F4907142E803134BB1216851E8D8
:103A5000031F226821F4907142E80313002BDAD18E
:103A6000216851E8051F226821F0010142E8051391
:103A7000DBB1216851E8051F226821F0010142E80D
:103A8000051393B1216851E8051F226821F0010157
:103A900042E805134BB1216851E8051F226821F067
:103AA000010142E80513002BDAD1202184F83E10F1
:103AB00000212163216851E8031F226821F01001D1
:103AC00042E80313002B3FF4A1AE216851E8031F25
:103AD000226821F0100142E80313002B3FF496AE58
:103AE000216851E8031F226821F0100142E8031306
:103AF000002B3FF48BAE216851E8031F226821F0B0
:103B0000100142E80313002BD4D17FE6216A31F87B
:103B1000022B6FF35F22426021628AE5002804BF16
:103B20000120704710B5044690F83D0028B90020E8
:103B300084F83C00204600F021F8242084F83D0061
:103B40002068C16821F40051C160204600F0D0FA1D
:103B50002068016921F490410161416921F02A0145
:103B60004161C16841F40051C160002020212064FE
:103B700084F83D1084F83E1010BD000080B586B07A
:103B8000016841F20040C4F20100814202D006B057
:103B900080BD00BF002143F630020191C4F2020251
:103BA000536900F5823043F020035361536903F0F9
:103BB00020030193019B0191136843F040031360BC
:103BC000126802F040020192019A4FF4844201927D
:103BD0000222CDE90221032104910821059101A9C6
:103BE000FDF78AFD472000210022FDF7EBFE47206C
:103BF000FDF7D4FE06B080BD70470000704700009E
:103C0000FEE7000070B586B0002543F6300005954C
:103C10000095C4F20200016841F2004441F0400105
:103C200001600168C4F2020401F0400100910099B2
:103C300000950168002241F010010160016801F067
:103C40001001009100990095016841F001010160A7
:103C5000016801F00101009100990095016841F0AF
:103C600020010160016801F0200100910099009598
:103C7000016841F080010160006844F2010100F038
:103C80008000009000982046FDF712FE2046022199
:103C900001220126FDF70CFE44F20300CDE90106E6
:103CA00001A92046CDE90355FDF726FD06B070BDFC
:103CB00080B58CB041F66850C2F200004FF08042EF
:103CC00047230021C0E9002303224FF6FF7CCDE902
:103CD000032101220623CDE90011C0E9021C016184
:103CE0008161CDE90521CDE90731CDE9092103A99C
:103CF0000B93FFF78DF9002818BFFDF789FC41F6FB
:103D00006850C2F200006946FFF726F9002818BF84
:103D1000FDF77EFC0CB080BDB0B58CB044F2000560
:103D200041F6B050C4F201050024C2F200000221A5
:103D300040F2E732CDE90544CDE90344C0E9005142
:103D4000C0E9024204618461FFF75EFB002818BFEE
:103D5000FDF75EFC6020009040F2F310CDE9010415
:103D6000049441F6B054C2F2000469462046002291
:103D7000FFF738FA002818BFFDF74AFC2068A84270
:103D800002D00CB0B0BD00BF002043F63001079058
:103D9000C4F202010A6842F010020A60096801F0E8
:103DA000100107910799202107910221CDE9081000
:103DB0000A9003200B9005F5504007A9FDF79CFCE5
:103DC0000CB0B0BD80B541F6F85041F20041C2F2EE
:103DD0000000C4F2010100234FF00C0C4FF4E1325B
:103DE00080E80E00C0E90333C0E905C3C361FFF7F3
:103DF00095FE002808BF80BDBDE88040FDF708BCE7
:103E000080B541F2805040F20801C2F20000C2F2D7
:103E10000001002200F08EFE002818BFFDF7F8FB1D
:103E200041F2805040F22801C2F20000C2F20001CB
:103E300001F0E0F8002818BFFDF7EAFB41F28050DE
:103E400040F2C401C2F20000C2F2000100F082FBA5
:103E5000002818BFFDF7DCFB41F28050C2F20000E1
:103E600001F0F2F8002808BF80BDBDE88040FDF7F2
:103E7000CFBB0000FEE70000FEE7000041F65C005B
:103E8000C2F20000FDF794BF7047000070470000C9
:103E9000FDF71ABD4EF68850CEF20000016841F4DD
:103EA000700101607047000010B540F6FF3E0368E6
:103EB000C4F2000E40F2004C7045C4F2010C27DC45
:103EC000B0F1804F31D040F20042C4F20002904283
:103ED0002BD040F60002C4F20002904225D041F6F9
:103EE000FF72C4F20002904229DC70453CDCB0F164
:103EF000804F5FD040F20042C4F20002904259D09D
:103F000040F60002C4F20002904253D056E000BFD7
:103F100040F60042C4F20002904206D0604504D050
:103F20000022C4F201029042D9D14A6823F0700302
:103F3000134341F6FF72C4F200029042D5DD43F60E
:103F4000FF72C4F20102904222DC42F20002C4F28B
:103F5000000290422ED00022C4F20102904229D0E9
:103F6000604527D02AE000BF40F60042C4F20002BC
:103F700090421FD041F60002C4F20002904219D0D4
:103F800041F60042C4F20002904213D016E000BF96
:103F900044F20002C4F2010290420BD044F6000247
:103FA000C4F20102904205D044F20042C4F2010280
:103FB000904203D1CA6823F44073134323F0800274
:103FC0004B69D1F800E08C681A430260C46240F487
:103FD0008062C0F828E0624504BF096901630121DD
:103FE000416110BD806B0021C185C184FFF7E2BA39
:103FF00081B090F83E10222921D183680246B3F5A2
:10400000805F09D152F8281F52F8183C002B63D06A
:1040100003685B680AE000BF52F8281F13B9036900
:10402000002BF5D003685B6803F07F030B70116809
:1040300001311160C18D01390A04C18502D001B07E
:10404000704700BF0168CA6822F02002CA60CA68CF
:1040500022F48072CA604A6922F001024A6120217A
:1040600080F83E10016B01293ED10021016300BFA1
:10407000016851E8031F026821F0100142E80313B0
:10408000DBB1016851E8031F026821F0100142E82A
:10409000031393B1016851E8031F026821F0100176
:1040A00042E803134BB1016851E8031F026821F095
:1040B000100142E80313002BDAD101680A68D20626
:1040C00006D5002200920A68009249680091009982
:1040D000818D01B0FFF76CBA026852686FF35F22FE
:1040E00021F8022B8162A5E701B0FFF785BD000032
:1040F00010B504460068D4E902C22369016921F4BD
:10410000405111430161626943EA0C01E3691143C3
:10411000C268194349F20C639A431143C160416973
:10412000A26921F4407141F20043114340F48062DE
:10413000C4F201039A42416102D1FEF7F3FC01E0AF
:10414000FEF7DCFCE16963681922B1F5004FA0FBC2
:10415000020123D15A00DB0FFCF7EEF848F21F51A1
:10416000C5F2EB11A0FB01235A094FF69C73C0F670
:10417000FF7303F1805302FB0300322303EBC00003
:10418000A0FB01014FF4F87000EA111000EB0210DF
:10419000C1F3421108442168886010BD9A009B0F4A
:1041A000FCF7CAF848F21F51C5F2EB11A0FB01233E
:1041B0005A094FF69C73C0F6FF7302FB03003223CB
:1041C00003EB0010A0FB0101F02000EA511000EB0E
:1041D0000210C1F3431108442168886010BD00003B
:1041E00041F6F850C2F20000FFF7E6B9B0B5D0F8DA
:1041F000D42200EB8202D2F8C0323BB301F00F05AB
:104200008C4605EB850100EB810151F8184F64B134
:10421000D0F8C8E205EBC5050EEB8505D5F848E0FA
:10422000B4FBFEF505FB1E4595B10024C3F814420E
:10423000D2F8C402056935B1D3F8080203F5047158
:104240006246A84700242046B0BD00BF0320B0BD91
:1042500000240C6061460022002300F0ADFE2046E1
:10426000B0BD0000B0B50446D0F8D40204EB800025
:10427000D0F8C05295B1204600F040FDD4F8D412D9
:10428000C5F80C0204EB8101D1F8C412D5F8040280
:10429000CA6805F5037190470020B0BD0320B0BD8A
:1042A00070B58121044600F06DFC002520460121F7
:1042B000258700F067FC20468221A4F8785100F0A1
:1042C00061FCD4F8D402E56404EB8000D0F8C0129D
:1042D00089B1D0F8C40240688047D4F8D40204F50C
:1042E000307656F8200001F06FF9D4F8D40246F881
:1042F0002050C4F8BC52002070BD000010B5D0F8AA
:10430000D41200EB8100D0F8C0428CB1D0F8C412B6
:1043100081B194F80002FF280CD08B6894F8012238
:1043200021469847FF2084F80002002010BD00BFFE
:10433000032010BD002010BD014640F2A4000A2257
:10434000C2F200000A807047F0B581B040F2600709
:10435000C2F2000704463846822100F03DFB0646C3
:104360003846012100F038FB05463846812100F02F
:1043700033FB002E1CBF1021B171002D1CBF40214A
:10438000A98000281CBF40218180432140F26000A9
:10439000C2F20000218001B0F0BD0000F0B581B094
:1043A00040F26007C2F2000704463846822100F05E
:1043B00013FB06463846012100F00EFB0546384641
:1043C000812100F009FB002E1CBF1021B171002DCE
:1043D0001CBF4FF40071A98000281CBF4FF400716E
:1043E0008180432140F26000C2F20000218001B0D0
:1043F000F0BD0000F0B581B040F26007C2F20007E6
:1044000004463846822100F0E7FA06463846012184
:1044100000F0E2FA05463846812100F0DDFA002E70
:104420001CBF1021B171002D1CBF4021A9800028A4
:104430001CBF40218180432140F26000C2F2000095
:10444000218001B0F0BD00002DE9F04104464FF499
:10445000077001F0BBF800284ED04FF407710546F5
:10446000FCF700F8D4F8D402402704EB8000C0F831
:10447000C052207CC4F8BC52002808BF4FF400771B
:104480002046812102223B46022600F0ADFC4FF07F
:1044900001082046012102223B46A4F8388000F0A2
:1044A000A3FC1020A4F84E002046822103220823FA
:1044B000A4F8788100F098FCD4F8D4020027C5F85D
:1044C000047204EB8000D0F8C402A4F84C800068A9
:1044D0008047C5F81472C5F81872D5F804223AB1AD
:1044E000207C98B120460121402300F091FC002659
:1044F0003046BDE8F08100BFD4F8D402002104EBBF
:104500008000C0F8C0120220BDE8F08120460121E1
:104510004FF4007300F07CFC0020BDE8F081000047
:1045200080B5D0F8D41200EB8101D1F8C01279B176
:1045300090F810C0D1F8042240230121BCF1000FF3
:1045400008BF4FF4007300F063FC002080BD00BF83
:10455000032080BD00290FBF0320D0F8D42200EB38
:104560008200C0F8C41218BF00207047D0F8D422CF
:1045700000EB8200D0F8C00200280EBF0320C0F874
:104580000412002070470000D0F8D43200EB830002
:10459000D0F8C00200280FBF0320C0F80812C0F8EE
:1045A000102200207047000070B582B00446D0F899
:1045B000D4020D4604EB8000D0F8C06200218DF8D3
:1045C0000710ADF80410DEB1297811F060021BD09D
:1045D000202A61D1EA88002A2ED049B2B1F1FF3FEA
:1045E00036DD6878314686F800022046402A28BF2A
:1045F000402286F8012200F0A1F8002618E000BF52
:104600000326304602B070BD68780B2844D80026D7
:10461000DFE800F0060E42424242424242422C3A59
:1046200094F89C02032837D101A92046022225E0F4
:10463000304602B070BD00BFD0F8C402294683687E
:104640006878002200269847304602B070BD00BF4F
:10465000D0F8C4023146836868789847EA882046D3
:104660003146072A28BF072208E000BF94F89C02C1
:10467000032811D10DF107012046012200F078F83E
:104680000026304602B070BD94F89C02032803D186
:104690000026304602B070BD2046294600F042F8A0
:1046A0000326304602B070BD80B5D0F8D41200EBBE
:1046B0008101D1F8C0223AB1D2F8141200294FF08A
:1046C000010103D0084680BD032080BDC2F814124A
:1046D000D2F81032D2F808228121C36200F06CFCBB
:1046E0000021084680BD000080B5D0F8B82252688D
:1046F0009047002818BF032080BD000000207047AD
:104700000020704780B513460A46002100F080FB68
:10471000002080BD80B513460A46002100F04CFC05
:10472000002080BD10B58021044600F017FC204613
:104730000021BDE8104000F011BC000080B5134618
:104740000A460321C0F894120021C0E9563300F054
:104750005FFB002080BD000080B50521C0F89412E9
:1047600000210022002300F053FB002080BD000048
:1047700080B513460A460221C0F894120021C0E910
:10478000063300F019FC002080BD000080B5042134
:10479000C0F8941200210022002300F00DFC00203C
:1047A00080BD000010B540F26014C2F200040A4659
:1047B00002A0214600F050F9204610BD434443209A
:1047C000436F6E666967000040F2B0001222C2F2C9
:1047D00000000A807047000010B540F26014C2F279
:1047E00000040A4602A0214600F036F9204610BD1A
:1047F00043444320496E746572666163650000003E
:1048000040F2D8000422C2F200000A807047000083
:1048100010B540F26014C2F200040A4602A021461C
:1048200000F01AF9204610BD53544D6963726F654C
:104830006C656374726F6E696373000010B540F24B
:104840006014C2F200040A4602A0214600F004F9F6
:10485000204610BD53544D33322056697274756131
:104860006C20436F6D506F7274000000B0B547F656
:104870001020C1F6FF70026883684FF01A0C9B1875
:10488000A1F800C000F0A3804FF0370C1A0F0CEB1A
:1048900013714068B3F1204F38BF02F1300140F28C
:1048A000DC02C2F20002917019014FF0000E0CEB15
:1048B000117582F803E0C3F30364B1F1204F38BFF0
:1048C00004F13005190215710CEB117582F805E041
:1048D000C3F30354B1F1204F38BF04F1300519037D
:1048E00095710CEB117582F807E0C3F30344B1F145
:1048F000204F38BF04F13005190415720CEB117507
:1049000082F809E0C3F30334B1F1204F38BF04F15A
:104910003005190595720CEB117582F80BE0C3F3A5
:104920000324B1F1204F38BF04F130051906157387
:10493000C3F303140CEB1175B1F1204F4FEA03716F
:1049400003F00F0382F80DE038BF04F1300503F1E6
:104950003704957382F80FE0B1F1204F38BF03F1AF
:104960003004010F0CEB1073147482F811E0B0F1F5
:10497000204F38BF01F1300301010CEB1174937427
:1049800082F813E0C0F30363B1F1204F38BF03F1A5
:10499000300401021475C0F303530CEB1174B1F130
:1049A000204F4FEA003182F815E038BF03F13004A0
:1049B0000CEB1173947582F817E0C0F30340B1F16A
:1049C000204F38BF00F13003137682F819E040F22F
:1049D000DC00C2F20000B0BD80B5B0F802C00378C0
:1049E0009C4509D8002080BD82788A4208BF80BDDE
:1049F00073449AB262452DD290F800E07044427838
:104A0000052A02D182788A4225D073449AB262453F
:104A1000E8D290F800E070444278052A02D182780A
:104A20008A4218D073449AB26245DBD290F800E013
:104A300070444278052A02D182788A420BD07344AE
:104A40009AB26245CED290F800E070444278052ACE
:104A5000CAD0CDE7002080BD10B5002868D003780B
:104A6000B3B100F1020E4FF0000C00BF1EF8013C84
:104A700093B19EF800309BB19EF80130A3B19EF82F
:104A800002300CF1040C002B0EF1040EEED10DE0FF
:104A90004FF0000C0AE000BF4CF0010C06E000BF34
:104AA0004CF0020C02E000BF4CF0030C5FFA8CFCEF
:104AB000022303EB4C03138003220B704A7090F81F
:104AC00000E0BEF1000F33D0841C02224FF0000C36
:104AD0001AE000BF101DC0B20B5440F0010001F8F5
:104AE00000C06378002B08BF10BD901DC0B20B54EE
:104AF00040F0010001F800C094F802E00832BEF175
:104B0000000F04F1040413D0D3B201F803E043F022
:104B1000010301F803C014F8013C4BB1901CC0B272
:104B20000B5440F0010001F800C02378002BD1D1D4
:104B300010BD0000002804BF032070470023C0F808
:104B4000B832C0F8C4320029C0F8D03218BFC0F85B
:104B5000B412012180F89C12027000F0D3B800005A
:104B600080B5D0F8C802FDF72BF840F20032C10042
:104B7000C0F2013222FA01F1032888BF0321C8B232
:104B800080BD000080B5D0F8C802FCF7F1FF40F20C
:104B90000032C100C0F2013222FA01F1032888BFBD
:104BA0000321C8B280BD0000B0B5044691B194F8AD
:104BB0009C02032851D1D4F8B8024269002A4CD093
:104BC0000020C4F8D40220469047002808BF0020E7
:104BD000B0BD00BFD4F89402022837D1D4E9070150
:104BE00088420DD9431A204611461A46E361FFF761
:104BF00091FD204600210022002300F009F925E064
:104C000010D1A16981420DD3D4F89802814209D212
:104C10002046002100220025FFF77CFDC4F89852B1
:104C2000E7E700BF94F89C02032808D1D4F8B80243
:104C3000C16821B10020C4F8D4022046884720462C
:104C4000802100F08BF92046FFF786FD94F8A00242
:104C500000281CBF002084F8A0020020B0BD000086
:104C600010B5044681B194F89C0203281FD1D4F8F2
:104C7000B8028269DAB10020C4F8D4022046904715
:104C8000002808BF002010BDD4F8940203280ED1DC
:104C9000D4E9570398420DD9C01AC4F85C01984270
:104CA00038BF0346204611461A46FFF72BFD002069
:104CB00010BD00BF94F89C02032808D1D4F8B802B4
:104CC000016921B10020C4F8D4022046884720465B
:104CD000FFF75CFD002010BD0020704780B501216A
:104CE00080F89C12D0F8B81231B14A680179904727
:104CF000002818BF032080BD002080BDD0F8C80266
:104D0000FCF792BF10B5017811B1002010BD00BFB3
:104D100041F65C01C2F20001C1F80805C0F8C812F2
:104D20004FF0A0400422C1E9000202200022C1E9A4
:104D30000302C1E906020846C1E90822C1E90B22C3
:104D4000FDF7D2FC002818BFFCF762FC41F65C04BA
:104D5000C2F2000420468021FCF772FE20460021AA
:104D60004022FCF771FE204601218022FCF76CFEF8
:104D7000002010BD4AB2D0F8C80201F07F0101EB5B
:104D8000C10100EB810000F27E21002A48BF00F142
:104D90003E0108787047000080B5D0F8D42200EBBF
:104DA0008202D2F8B8224AB190F89C32032B02D189
:104DB000126A02B19047002080BD00BF032080BD71
:104DC00080B5D0F8D42200EB8202D2F8B8224AB1E2
:104DD00090F89C32032B02D1526A02B19047002016
:104DE00080BD00BF032080BD80B59446D0F8C802C6
:104DF0001A466346FCF722FF40F20032C100C0F2BF
:104E0000013222FA01F1032888BF0321C8B280BD14
:104E100080B5D0F8C802FCF745FF40F20032C1006F
:104E2000C0F2013222FA01F1032888BF0321C8B27F
:104E300080BD0000F0B581B00126002580F89C629D
:104E4000C0F8945204464560D0F8B802C4F8A452A1
:104E500084F8A05258B1426842B1204600219047E0
:104E60000546002818BF032501E000BF00252046A5
:104E70000021002240234027FFF7B6FF2046802173
:104E800000224023A4F86461C4F86071FFF7ACFF0E
:104E9000A6842846276201B0F0BD000090F89C125D
:104EA000042904BF90F89D1280F89C1200207047DE
:104EB00080B590F89C12032906D1D0F8B81219B128
:104EC000C969002918BF8847002080BD024600201C
:104ED0001174704780B5D0F8C802FDF703FD40F2A9
:104EE0000032C100C0F2013222FA01F1032888BF6A
:104EF0000321C8B280BD0000B0B500F2AA25044667
:104F0000284600F06BF80120C4F8940294F8AA0235
:104F1000B4F8B02200F01F010229C4F8982209D089
:104F200001290DD091B920462946BDE8B04000F0D6
:104F30008DB800BF20462946BDE8B04000F040BA19
:104F400020462946BDE8B04000F0F4BA00F08001E8
:104F50002046BDE8B04000F001B8000080B5D0F8B0
:104F6000C802FCF7C5FE40F20032C100C0F20132B7
:104F700022FA01F1032888BF0321C8B280BD0000D6
:104F800080B5D0F8C802FDF7C9FC40F20032C1007C
:104F9000C0F2013222FA01F1032888BF0321C8B20E
:104FA00080BD0000014690F89C02042281F89D0219
:104FB000002081F89C22704780B5D0F8C802FCF729
:104FC000D5FE40F20032C100C0F2013222FA01F1F6
:104FD000032888BF0321C8B280BD00000A78027090
:104FE0004A7842704A8842808A888280C988C18013
:104FF0007047000010B582B004460020ADF80600EE
:10500000B1B1D4F8D42204F52E70C4F8B81250F817
:105010002200C16A21B10DF106008847C4F8D00210
:10502000D4F8D8020130C4F8D802002002B010BD74
:10503000032002B010BD0000D0F8B822002A04BF3F
:105040000020704712681047FFF79ABFB0B582B0D2
:105050000D460978044611F0600111D0402901D0B5
:1050600020292FD1D4F8D402294604EB8000D0F8AF
:10507000B8028268204602B0BDE8B040104700BFC9
:105080006878092800F2D080DFE800F00628CE3AE0
:10509000CE4666CE7E9200BF94F89C02013802286C
:1050A00000F2C280E888022840F0BE80D4F8A40252
:1050B0000322002808BF0122214641F80C2F204678
:1050C000022263E120468021FFF748FF20460021AD
:1050D0000025FFF743FF284602B0B0BD94F89C02BC
:1050E0000138022800F2A080688800250128F2D14A
:1050F0002046C4F8A452FFF749FB284602B0B0BDD1
:105100006888022800F08680012840F08D80012008
:10511000C4F8A40240E100BFA888002840F08480C1
:10512000E888002840F0808068887F2800F27C8032
:1051300094F89C12032900F07780C5B284F89E028F
:1051400020462946FFF7C6FE2046FFF71FFB002D2D
:105150000CBF01200220EFE068884FF0FF3101EB27
:10516000102100220629ADF8062000F21D81DFE89B
:1051700011F00700670075001B011B0183008F0001
:10518000D4F8B4020268F1E0E88801284CD194F820
:105190009C02411E022941D20025214641F8085FA8
:1051A00020460122FFF7E4FA284602B0B0BD00BF56
:1051B000688840F25C15C2F2000510F0FE0F2870FE
:1051C0000CD020468021FFF7C9FE20460021FFF7C2
:1051D000C5FE0325284602B0B0BD00BF94F89C224E
:1051E000C1B2032A62D0022A40F08280002900F076
:1051F000D38020466160FFF71FFF002800F09880F1
:10520000054620468021FFF7A9FE20460021FFF732
:10521000A5FE67E0687984F8A002BDE0032803D109
:10522000211D20460122B1E020468021FFF796FE95
:10523000204600210025FFF791FE284602B0B0BDB0
:10524000217CD4F8B80200290CBF816AC16A0DF133
:10525000060088470146022026E000BFC0B20528AC
:1052600000F2A280DFE800F0046E72767A7E00BF62
:10527000D4F8B402426878E0207C002840F09480A2
:10528000D4F8B802416B0DF10600884772E000BF08
:10529000207C002840F08880D4F8B802016B0DF122
:1052A0000600884701460720487064E081B36068C3
:1052B000884271D0C1B22046FFF716FA29782046FD
:1052C0006160FFF7B9FE002866D0054620468021C0
:1052D000FFF744FE20460021FFF740FE21792046DB
:1052E000FFF702FA022084F89C02284602B0B0BD03
:1052F00020468021FFF732FE20460021FFF72EFED8
:1053000029782046FFF7F0F90325284602B0B0BD02
:10531000022084F89C026160204600210025FFF7EE
:10532000E3F92046FFF732FA284602B0B0BD00BFCD
:105330002046FFF72BFA032084F89C02002528461C
:1053400002B0B0BDD4F8B40282680EE0D4F8B40262
:10535000C2680AE0D4F8B402026906E0D4F8B402E4
:10536000426902E0D4F8B4028269EAB1207C0DF10E
:10537000060190470146EA8872B1BDF8060098B16F
:10538000904238BF02462046ADF80620FFF7F0F9FC
:105390000025284602B0B0BD2046FFF7F7F90025EA
:1053A000284602B0B0BD00BF20468021FFF7D6FDE1
:1053B00020460021FFF7D2FD0025284602B0B0BDEF
:1053C00070B50E460978357911F0600104460BD0AE
:1053D000402902D0202940F07B8020462946FFF753
:1053E0008DF9D8B1002070BD707828B301283BD06A
:1053F00003286DD194F89C02032839D1708840B9F4
:1054000015F07F0005D0F08818B920462946FFF72F
:10541000A5FD2046FFF7BAF9002070BDD4F8B80208
:1054200082680020002AC4F8D402DBD0204631462E
:10543000BDE87040104700BF94F89C02032825D0B7
:10544000022808BF5FEA456042D115F0800004F1F0
:1054500014014FF0140004BF4FF4AA7004F5AA71B0
:105460000022225020465FE094F89C02032839D0A5
:1054700002282DD168062BD020462946FFF76EFD65
:1054800020468021FFF76AFD002070BD05F00F0067
:1054900000EB8000802D04EB80002CBF808CB0F8E6
:1054A0006401A8B105F07F0000EB800004EB8000F0
:1054B00000F11406802D38BF00F5AA7668062FD0BB
:1054C00020462946FFF756FC002818BF012028E097
:1054D00020468021FFF742FD20460021FFF73EFDD8
:1054E000002070BD708800287FF47CAF680603D070
:1054F00020462946FFF734FB2046FFF747F92046B0
:105500002946FFF7FBF800287FF46CAFD4F8B80207
:1055100082680020002AC4F8D4027FF487AF61E7D4
:1055200000203060204631460222FFF721F900209A
:1055300070BD0000B0B50D460978044611F0600159
:1055400018BF402914D194F89C020138022803D8CE
:10555000A88810F0FE0F19D020468021FFF7FEFC2E
:10556000204600210025FFF7F9FC2846B0BD00BF0A
:105570002029E8D020468021FFF7F0FC20460021BA
:105580000025FFF7EBFC2846B0BD00BFC1B22046A6
:10559000FFF7B6F810B10320B0BD00BFD4F8B802D1
:1055A0008268002AF7D00020C4F8D4022046294699
:1055B0009047E9880546002908BF002DE3D1204621
:1055C000FFF7E4F80020B0BD7047000040F2603003
:1055D000C2F200007047000083B010B591B00446DD
:1055E00013A80EC013AB01A8412122460093FAF77D
:1055F0001BFF0446FCF762F941F28050C2F2000042
:10560000D0F8BC02D0F8140220B111B0BDE81040AF
:1056100003B07047A2B241F28054C2F2000401A963
:105620002046FEF7B1FF2046FFF73EF811B0BDE877
:10563000104003B07047000010B50A784B78D0F8DE
:105640001CE802F00F04012B4FEA421C18D1012381
:10565000A34043EA0E03C0F81C386044D0F8003978
:105660001B0428D4CB6800F51060097904686FF337
:10567000DF2343EA814144EA8252114316E000BF2E
:105680004FF48032A24042EA0E02C0F81C28604467
:10569000D0F8002B12040ED4CA6800F530600979E6
:1056A0006FF3DF22036842EA8141194341F08051E0
:1056B00041F400410160002010BD00000146D0F817
:1056C000000940F2FF729043C1F80009D1F80408C4
:1056D00040F480720020C1F80428704782B0049919
:1056E000DDF808C0012940F64051C0F203016FD136
:1056F000826B4FF6BF7322F480328263C268CFF6AA
:10570000BD731A40C260C2680B9B22F44012012B89
:10571000C26003D1C26842F48012C26000220092CB
:10572000009A01320092009A8A4200F2A98002692E
:10573000002A1ED4009A01320092009A8A4200F296
:105740009F800269002A14D4009A01320092009AC4
:105750008A4200F295800269002A0AD4009A013236
:105760000092009A8A4200F28B800269B2F1FF3FF8
:10577000D6DC00220092026942F001020261009A26
:1057800001320092009A8A427AD80269D2071AD06E
:10579000009A01320092009A8A4271D80269D207B7
:1057A00011D0009A01320092009A8A4268D80269A8
:1057B000D20708D0009A01320092009A8A425FD83C
:1057C0000269D207DBD10021BCF1010F72D169E07F
:1057D000C268089B42F04002C26000220192019A16
:1057E00001320192019A8A4250D80269002A1BD4E0
:1057F000019A01320192019A8A4247D80269002A2D
:1058000012D4019A01320192019A8A423ED8026969
:10581000002A09D4019A01320192019A8A4235D8AC
:105820000269B2F1FF3FDADC00220192026942F024
:1058300001020261019A01320192019A8A4225D83D
:105840000269D2071AD0019A01320192019A8A4262
:105850001CD80269D20711D0019A01320192019A33
:105860008A4213D80269D20708D0019A0132019204
:10587000019A8A420AD80269D207DBD1002106E0E8
:105880000321BCF1010F15D10CE000BF0321826B95
:10589000002B14BF22F4803242F480328263BCF1C8
:1058A000010F07D1826842F006028260826842F0EE
:1058B00020028260084602B07047000080B54A7836
:1058C0000978012A4FEA41122AD10244D2F800395C
:1058D00047F6000CCEF6334C02F51062002B4FF069
:1058E000010E07D5136843F000631360136843F09B
:1058F0008043136001F00F01D0F83C380EFA01F13B
:105900008B43C0F83C38D0F81C3823EA0101C0F8BA
:105910001C18106800EA0C010020116080BD00BF57
:10592000831803F53062D3F800EB47F60003CEF698
:10593000334303F1707CBEF1FF3F4FF4803ED9DC6E
:10594000D0E700000146D0F8000E20F00300C1F8B7
:10595000000ED1F8040820F002020020C1F804284B
:10596000704700000146D0F8000E20F00300C1F897
:10597000000ED1F8040840F002020020C1F804280B
:10598000704700002DE9F04F83B0DDF84C800E9F8A
:105990000022B8F1000FC0F80421C0F80821C0F8B7
:1059A0000C21C0F81021C0F81421C0F81821C0F84B
:1059B0001C21C0F82021C0F82421C0F82821C0F8FB
:1059C0002C21C0F83021C0F83421C0F83821C0F8AB
:1059D0003C210BD0826B00F5006B22F40012826335
:1059E000826B42F40022826314E000BFD0F80428E6
:1059F00000F5006B42F00202C0F80428826B42F40A
:105A000000128263826B22F400228263866B26F48A
:105A1000802686630026C0F8006ED0F80068012F4B
:105A2000C0F8006806D1DBF80070002B18BF47F003
:105A3000010703E0DBF8003043F00307DDF83CE04A
:105A4000DDF8309040F64055C0F203050023C0F861
:105A500000780193019B01330193019BAB4249D82C
:105A60000369002B1BD4019B01330193019BAB42C3
:105A700040D80369002B12D4019B01330193019B91
:105A8000AB4237D80369002B09D4019B0133019342
:105A9000019BAB422ED80369B3F1FF3FDADC002350
:105AA00001934FF484630361019B01330193019BD4
:105AB000AB421FD803699B061AD5019B01330193A2
:105AC000019BAB4216D803699B0611D5019B01339C
:105AD0000193019BAB420DD803699B0608D5019B3E
