:020000040800F2
:10000000A0280020FD02000879580008E1510008EE
:10001000755800083D230008918800080000000082
:100020000000000000000000000000005D59000812
:10003000AD2300080000000089580008095D000891
:100040001703000817030008170300081703000828
:100050001703000817030008170300081703000818
:100060001703000817030008170300081703000808
:1000700017030008170300081703000817030008F8
:1000800017030008170300081703000817030008E8
:1000900017030008170300081703000817030008D8
:1000A00017030008170300081703000817030008C8
:1000B00017030008170300081703000817030008B8
:1000C00017030008170300081703000817030008A8
:1000D0001703000817030008170300081703000898
:1000E0001703000817030008170300081703000888
:1000F0001703000817030008170300081703000878
:100100001703000817030008170300081703000867
:100110001703000817030008CD5D0008D95D00082B
:100120001703000817030008170300081703000847
:100130001703000817030008170300081703000837
:100140001703000817030008170300087D5800086C
:10015000170300081703000817030008FD600008D4
:100160001703000817030008170300081703000807
:100170001703000817030008170300080000000019
:1001800017030008170300081703000817030008E7
:1001900017030008170300081703000817030008D7
:1001A00000000000000000001703000800F002F843
:1001B00000F094F80AA090E8000C82448344AAF16D
:1001C0000107DA4501D100F089F8AFF2090EBAE86B
:1001D0000F0013F0010F18BFFB1A43F0010318477B
:1001E000E8C5000008C60000103A24BF78C878C1EE
:1001F000FAD8520724BF30C830C144BF04680C602D
:10020000704700000023002400250026103A28BF74
:1002100078C1FBD8520728BF30C148BF0B60704778
:100220006E2900F0DD82702900F0218466290CF02F
:10023000308165290CF02D8167290CF02A81612914
:100240000CF0298103681B0A28BF41F0800169294D
:1002500000F08A82642900F08782752900F0848288
:100260006F2900F0AF83782900F0ED83E92900F0D1
:100270004983E42900F04683F52900F04383EF2900
:1002800000F0AC83F82900F0EC830368DB0928BF99
:1002900041F08001632901F09981732901F09E8169
:1002A000E32901F0A981F32901F0AE810020704714
:1002B0001FB50CF0A8F801F047FA04000020002157
:1002C0000BF0BAFA401C6060002000210BF09EFA8F
:1002D000E06000F0C9F91FBD10B510BD01F007FACC
:1002E0001146FFF7E5FF09F001FF01F05FFD03B4E0
:1002F000FFF7F2FF03BC00F021FD00000948804732
:1003000009480047FEE7FEE7FEE7FEE7FEE7FEE7F7
:10031000FEE7FEE7FEE7FEE704480549054A064B0F
:1003200070470000B95D0008AD010008A022002060
:10033000A0280020A0240020A024002053EA020CC2
:1003400000F069802DE9F04B4FF00006002B1FBF35
:10035000B3FA83F503FA05F424FA05F65E4012BFFA
:100360001643B2FA82F502FA05F4C5F120051EBF64
:1003700022FA05FC44EA0C04203556EA044C4FEA04
:10038000144418BF641C4FF000084FF0000990425D
:1003900071EB030C39D3002919BFB1FA81F701FAC7
:1003A00007F6B0FA80F700FA07F6C7F120071EBF7C
:1003B00020FA07FC46EA0C062037B6FBF4FCA7EB54
:1003C0000507103F07F01F0BCBF120062CFA06F6AD
:1003D0000CFA0BFB44BFB3460026202FA4BF5E4699
:1003E0004FF0000B5BEA060C08BF4FF0010B19EB56
:1003F0000B0948EB0608ABFB027C06FB02CC0BFBAF
:1004000003CCC01B71EB0C01C1E70B460246414611
:100410004846BDE8F08B13B5084318BF4FF0FF30D6
:100420000146AFF30080BDE81C4070477CB51D4617
:1004300016460C00009007D04142A14202D320444E
:10044000401E01E04FF0FF30064B7B442A466946D0
:100450000190304600F0DDF9002C02D0009A002116
:1004600011707CBDEB0300000EB5054614460E4628
:1004700013A000F02EFC284600F02BFC16A000F084
:1004800028FC304600F025FC15A000F022FC0021DD
:100490008DF80B100A210DF10A008DF80A1008E002
:1004A00094FBF1F201FB124294FBF1F4303200F8BC
:1004B000012D002CF4DC00F00CFC00F0FFFB000030
:1004C0002A2A2A20617373657274696F6E206661CF
:1004D000696C65643A2000002C2066696C65200018
:1004E0002C206C696E652000014A00F0FDBB000005
:1004F0000000002040EA0103024630B59B0710D1FE
:100500004FF0013400E008C208C91D1B9D4315EAE5
:10051000C41FF8D013F0FF0102F8011B0DD01B0A15
:10052000F8E711F8013B002B02F8013B05D011F868
:10053000013B002B02F8013BF3D130BD10B5431C49
:1005400002E010F8011B71B18107FAD14FF00132BE
:1005500002C88C1A8C4314EAC211F9D0C01A0A06D8
:1005600003D0C01E10BDC01A10BD0A0401D0801EE9
:1005700010BD0902FCD0401E10BD4FF0000204293E
:10058000C0F0128010F0030C00F01B80CCF1040CC2
:10059000BCF1020F18BF00F8012BA8BF20F8022BF6
:1005A000A1EB0C0100F00DB85FEAC17C24BF00F89C
:1005B000012B00F8012B48BF00F8012B70474FF0CA
:1005C000000200B5134694469646203922BFA0E8A3
:1005D0000C50A0E80C50B1F12001BFF4F7AF0907AF
:1005E00028BFA0E80C5048BF0CC05DF804EB8900A0
:1005F00028BF40F8042B08BF704748BF20F8022BE3
:1006000011F0804F18BF00F8012B704710B5044659
:1006100010F0030F08BF11F0030F40F015804FF0EA
:10062000013E121FC0F20E8051F8043BA3EB0E0CEA
:100630002CEA030C1CEACE1C08BF40F8043BF0D0A7
:10064000A1F1040102F10402521E08DB11F8013B82
:1006500000F8013B002BF7D11146FFF78EFF204633
:1006600010BD70477047704770B5064C7C44064D0E
:100670007D4404E02046016808448047241DAC42C4
:10068000F8D170BDB4C20000B4C2000010B500F0D3
:100690005BFB006810BD10B5044600F055FB04601C
:1006A00010BD70B5044685690068C10601D53026C5
:1006B00000E02026C00707D070BDD4E901213046F4
:1006C0009047206A401C20626D1EF6D570BD70B543
:1006D000044685690078C00707D170BDD4E90121BF
:1006E00020209047206A401C20626D1EF6D570BD08
:1006F00009684A0501D540B27047C905FCD500B26A
:10070000704709684A0501D5C0B27047C905FCD5D4
:1007100080B2704770B50C460546012A05D028788E
:10072000800600D5EA69002302E0012305E05B1C96
:10073000934202D2E05C0028F9D1A869E618C01AF9
:10074000A861286A184428622846FFF7AAFF04E037
:10075000D5E9012114F8010B9047B442F8D328469B
:10076000FFF7B5FF70BD00002DE9F04106460024FB
:1007700010687529314616A510D0FFF7B9FF00287B
:1007800002DA404213A507E031688A0701D512A5B5
:1007900002E0490704D511A5012401E0FFF7B1FFEC
:1007A00000210A2206F1240709E0B0FBF2FCB0FBAD
:1007B000F2F302FB1C00303078541846491C002824
:1007C000F3D123462A463046BDE8F04100F00EBB87
:1007D000000000002D0000002B00000020000000A1
:1007E00011680268006A530501D508700AE0D30554
:1007F00001D5088006E0130603D5C217C1E900023F
:1008000000E008600120704701694A1C0261087815
:10081000704700B58FB0CDE9013100210591054940
:100820007944CDE903101146684600F02BF90FB06A
:1008300000BD0000E5FFFFFFD1E900239A4202D28C
:10084000531C0B60107070472DE9FF5F15468A46F8
:100850000446DFF8AC80F8440027D8E900103E4693
:10086000CDE9001010E03AF816106A4602A800F030
:10087000EFFE411C07D02178890603D5E2693918BB
:1008800091420DD80744761C2078800602D5E06995
:10089000B84205DDAE42E6DB3AF816000028E2D1A8
:1008A000A069C01BA0612046FFF7FBFED8E900103D
:1008B000CDE90010002017E03AF818106A4602A8A7
:1008C00000F0C6FEB0F1FF3F81460BD000250DF1D0
:1008D000080B05E0D4E901211BF8050090476D1CC9
:1008E0004D45F7D308F10100B0428046E4DB206AB1
:1008F000384420622046FFF7EAFEBDE8FF9F000073
:100900003EBD00002DE9F0418046D21D22F00702D5
:100910000025D2E90002F52915A614D0011E72F1B6
:10092000000106DA0023D0EB030063EB020211A6FC
:1009300008E0D8F800108B0701D50FA602E04907A0
:1009400001D50EA601251146002408F1240704E074
:1009500000F0FEF930323A55641C50EA0102F7D13A
:100960002B46324621464046BDE8F04100F03EBAF3
:10097000000000002D0000002B00000020000000FF
:1009800030B4002100F1240408E002F00705D20889
:10099000303542EA4372DB086554491C52EA0305CC
:1009A000F3D10468002310A2250708D504F0200421
:1009B0000C4304D0C46901230CA2641EC46130BC82
:1009C00000F014BA10B5044621461068FFF799FEEE
:1009D00002462046BDE810400023D1E7D21D22F098
:1009E0000701D1E90023CBE7000000003000000040
:1009F000F0B40D460188090502D5214C7C4402E083
:100A00001F4C7C440E34002100F1240608E002F063
:100A10000F071209E75D42EA03721B097754491C6C
:100A200052EA0307F3D102780023120704D5702D90
:100A300006D009B1022311342246F0BC00F0D6B929
:100A400001231034F8E770B504460D4621461068BE
:100A5000FFF757FE024629462046BDE870400023B6
:100A6000C6E7D21D22F00703D3E90023C0E70368DD
:100A7000126843F0200303600823C3610023B7E733
:100A8000A0BB00002DE9F05F894604464FF0000A44
:100A9000DFF874B1FB44C0F820A02046E168884725
:100AA000002874D0252806D0D4E901219047206A77
:100AB000401C2062F1E700265F462046E168884737
:100AC0002028054607DB312D05D2781910F8200CB7
:100AD00008B10643F1E7B00701D526F00406C4F8D3
:100AE0001CA00027C4F818A02A2D09D028460AF017
:100AF00020FE38B304EB8708303DC8F8185019E0E1
:100B000059F8041B204604EB87029161E16888478D
:100B1000012F054618D1E069002820DA26F02006CA
:100B20001DE0D8F8180000EB800005EB40003038DD
:100B3000C8F818002046E168884705460AF0F9FD24
:100B40000028EED1012F0AD02E2D08D12046E168D1
:100B500088477F1C0546022F46F02006C4DBA069AB
:100B6000002803DA404246F00106A061F00701D0F8
:100B700026F010066C2D0BD0682D09D04C2D39D0E5
:100B80006A2D35D0742D35D07A2D33D016E038E06B
:100B9000E1682F4620468847B842054609D16C2FA8
:100BA00026D04FF48060E16806432046884705461A
:100BB00004E06C2F1AD04FF4807006430DB3A5F1FA
:100BC0004100192802D8203546F400664A462946D5
:100BD000204626604E46FFF723FB80B101280BD04C
:100BE000F61D26F0070000F1080956E74020E4E76B
:100BF0008020D8E70020D6E706F104094DE7284613
:100C000052E7206ABDE8F09F30BB00000FB40B0034
:100C100010B54FF000048AB00FA900910E99CC6076
:100C2000234C7C44234A7A44CDE9064200D0042375
:100C30006FF00042CDE901321F4A7A446B460892B8
:100C4000024600200BF089FC0AB010BC5DF814FBD2
:100C5000F0B507464FF0FF301E4615460C463B46A2
:100C600085B06A460091CDE901013146002004902B
:100C700004A8FFF7CBFF04990346601825B109B11A
:100C8000024600E022462A6000290ED0002B02DD39
:100C90000099814209D03B466A463146001B0094C8
:100CA000CDE9010404A8FFF7B1FF05B0F0BD0000D5
:100CB000EB090000050A00009D01000010B50020AE
:100CC00000F0EAFCFFF708FBBDE81040012000F04F
:100CD00035B810B5044602E0641C00F027F820780F
:100CE0000028F9D110BD00002DE9F04115460E464F
:100CF000040002D12C6804B90BA4204600F0E3FCE8
:100D00000444207870B127463146384600F0CBFCC9
:100D10000444207810B1002004F8010B38462C6000
:100D2000BDE8F0810027F9E70000000008B569463A
:100D30008DF800000320ABBE08BD0000014918205B
:100D4000ABBEFEE7260002000048704720010020ED
:100D500030B5B0F10A0271F100034FEA900E4EEA8D
:100D6000817EB0EB0E0061EB91014FEA101E4EEA5E
:100D7000017E10EB0E0041EB11114FEA102E4EEAEE
:100D8000016E10EB0E0041EB11214FEA104E4EEABE
:100D9000014E10EB0E0041EB1141401841F10001F2
:100DA0004FEAD00040EA41704FEAD1014FEA810496
:100DB00044EA907410EB800544EB01046D1944EB98
:100DC0000404521BA3414FF0000348BF0A3200D570
:100DD00030BD401C41F1000130BD10B5044600F0AB
:100DE000ABFC0068005D00F0010010BD2DE9F0478C
:100DF0000D4699469246044600F12408016888068B
:100E000004D5E06921F01001216000E00120A84232
:100E100001DD471B00E00027A1697A1902EB0900F8
:100E2000081AA0612078C00602D42046FFF739FCDA
:100E3000002608E0D4E901211AF806009047206A4C
:100E4000401C761C20624E45F4DB2078C0060AD593
:100E50002046FFF726FC06E0D4E901213020904728
:100E6000206A401C2062381EA7F10107F4DC07E06D
:100E7000D4E9012118F805009047206A401C20623F
:100E8000281EA5F10105F3DC2046FFF720FC2078A1
:100E9000000602D50220BDE8F0870120FBE72DE91E
:100EA000FF4F0C461E464FF0FF378BB0D2E90001D2
:100EB000DDF860800A908A46C1F30A5505B93D46BF
:100EC000002108464FF00000BAF1000F00F4400086
:100ED00005DA00EB80004FF4400101EA50004FEAD0
:100EE0009059B9F1010F00DDB9460A9850EA4A005D
:100EF0000ED044F61050A5F2FF3545432F14B8F13B
:100F0000000F1ED07542291E1EDDC9F100021CE033
:100F1000B8F1010F4FF0000001D0302103E0F2439F
:100F200005E02154401CB042FBDB3046002200218A
:100F300021540B99C1F80880C1E900200FB0BDE829
:100F4000F08FBD1B6D1CDEE74A4600DA694206A839
:100F500000F0BAFE06AB93E8070003AB83E8070096
:100F600050460A9909F0E4FB8DE80700A0F500500F
:100F70001F3800900398002D0ADD42F21F014A46F7
:100F80000844002303A90390684609F08FFE09E096
:100F9000A0F500504A461F38002303A90390684675
:100FA00009F0AEFE8DE807000004000C03D04FF0FE
:100FB000FF30410800E01046B8F1000F03D00022D6
:100FC000009215461EE0751E05D4FFF7C1FE3032B3
:100FD00062556D1EF9D5B3460122084302D00022A6
:100FE0007F1C04E02078302801D100227F1E002AD7
:100FF000099784D01DE0112D07DAFFF7A9FE3032E2
:1010000062556D1C50EA0102F5D1084302D00098E8
:10101000C8B10EE00021681E05E0235C625C6354E9
:101020002254401E491C8142F7DBAB46A81B401EE0
:101030000990002004F80B000B98099AC0F808806A
:10104000C0E9002B7AE711264FF0000857E72DE999
:10105000F04F88460446D21D22F0070191B0D1E935
:101060000001CDE90A0109F097FF02460B98C00F75
:1010700001D02D2007E02068810701D52B2002E058
:10108000202101EAC000032A099001D0072A05DBCC
:1010900003464146204600F05BFB0BE120788006CA
:1010A00001D5E06900E00620B8F1650F814606D061
:1010B000B8F1660F18D0B8F1670F70D131E0002099
:1010C000B9F1110F009001DB112301E009F10103D7
:1010D0000AAA01A90CA8FFF7E2FEDDE90C700026C0
:1010E00009F10105834647E001204B4600904FF08F
:1010F00000470AAA01A90CA8FFF7D1FEDDE90DB04F
:101100000C995D46002610B909F101000D18B9EBE4
:10111000050003D4C0F1FF3609F10105A5EB090074
:101120002BE0B9F1010F01DA4FF001090020B9F10C
:10113000110F0090484601DD112300E003460AAA82
:1011400001A90CA8FFF7ABFEDDE90C704D460026A7
:101150008346207800070AD4AB4500DA5D4601A833
:10116000012D04DD411911F8011C302907D04F452C
:1011700002DA17F1040F04DA012082460FE06D1E37
:10118000EEE7002F02DCED1B3E4403E0781CA84292
:1011900000DD7D1CB81B00F1010A4FF000472078EC
:1011A000000703D4AA4501DB4FF0FF3A0021B7F155
:1011B000004F0DF143088DF8431024D002202B235B
:1011C000002F01DA7F422D230A21021EA0F1010027
:1011D00000DC5FB197FBF1FC97FBF1F201FB1C7C9B
:1011E00017460CF1300C08F801CDEEE7A8F101002C
:1011F00003702188090501D5452100E06521A0F192
:10120000010800F8011C09980FA9A1EB0807FF1DB0
:1012100000B10120411901EBEA70A1693844081AB4
:10122000401EA0612078C00602D42046FFF739FA9C
:10123000099828B1D4E901219047206A401C206216
:101240002078C00622D52046FFF72BFA1EE0002E9C
:1012500004DBB34502DD01A8805D00E03020D4E965
:1012600001219047206A401C2062761CAAF10100EF
:101270005FEA000A0AD100F067FAC0680168405CC2
:10128000D4E901219047206A401C2062281EA5F164
:101290000105DCDC07E0D4E9012118F8010B9047D7
:1012A000206A401C2062381EA7F10107F3DC2046AB
:1012B000FFF70DFA032011B041E600002DE9F04FD1
:1012C00004460D46D21D22F0070089B0D0E90097F0
:1012D0004846394609F060FE0246F80F01D02D233A
:1012E00007E02068810701D52B2302E0202101EAD5
:1012F000C0038DF820300BB1012000E00020032A4C
:10130000824601D0072A04DB2946204600F020FA55
:101310003FE12078800601D40D2500E0E569C7F3A0
:101320000A560D2D49DA00214FEA175B08464FF0A7
:101330000000002F00F4400007DA00EB80004FF4BB
:10134000400100EBD07001EA60008115012901DD48
:101350004FF0FF3100224FEA850CBCF1180F06D385
:101360001346ACF118004FF08052C24003E04FF436
:10137000801323FA0CF30CF10C0CBCF1200F04D3F6
:10138000ACF1200C09FA0CF001E007FA0CF000298E
:101390004FF0004801DD18B90FE00ED140450CD3E5
:1013A00019EB02095F4121B9404502D19F4329EA67
:1013B0000209BBEB175F00D0761C2088000502D520
:1013C0007B48784402E07A487844193808AA3023E8
:1013D00002F80A30037C0AF10101002E0AF1020A28
:1013E00053546A4602DC4FF0300101E04FF0310106
:1013F0004FF001088DF8001002D0A6F2FF3603E08E
:1014000059EA470100D06B4E002D02DC2178090714
:1014100004D54FF002082E218DF80110C44600219A
:101420000BE0C7F303433F01C35C491C6D1E02F888
:101430000830052908F1010801DA002DF1DC00214E
:101440000CE000EB1973491C1B786D1E082902F88B
:1014500008304FEA091908F1010801DA002DF0DC23
:1014600021688B0602D516E0A8F10108E04505DDEC
:1014700002EB080313F8013C302BF5D0B8F1000F54
:1014800009DD02EB080313F8013C2E2B03D10907F9
:1014900001D4A8F10108002D05DD3E2102F8081055
:1014A0006D1E08F10108407C002E02F8080008F1CA
:1014B000010804DA2D20764202F8080002E02B2011
:1014C00002F808000A214FF47A70864208F10108F8
:1014D0000BDB96FBF0F3303302F8083096FBF0F3A9
:1014E00008F1010800FB136601E0642E0CDB6420A8
:1014F00096FBF0F3303302F8083096FBF0F308F176
:10150000010800FB136601E00A2E06DB96FBF1F0F2
:10151000303002F8080008F1010896FBF1F001FBF9
:101520001060303002F80800A16908F1010808EBEA
:10153000050202EB0A00081AA0612078C00602D456
:101540002046FFF7AEF8216A08AE01EB0A002062E0
:1015500004E0D4E9012116F8010B9047BAF1010A21
:10156000F7D22078C00602D52046FFF79AF86E46DB
:1015700009E016F8010B3E280FD0D4E9012190476D
:10158000206A401C2062B8F10108F2D22046FFF721
:101590009EF809B00320BDE8F08F206A284420623D
:1015A00003E0D4E90121302090476D1EEBD3F8E72A
:1015B00026B2000002FCFFFF10B5436913B1AFF380
:1015C000008001E0FFF7A6F8012010BD127800F1BD
:1015D00024010A7000224A700122EDE711684FF0E1
:1015E000FF32E9E710B5436913B1AFF3008001E0C2
:1015F000FFF72AF9012010BD128800F1240182842E
:101600000022C2840122EDE711684FF0FF32E9E7C2
:10161000426842B1016811F8013B23B1521EC0E992
:101620000012184670470121C160881E7047426849
:101630005AB1C368016843B983688B4205D0491E1B
:10164000521CC0E90012002070474FF0FF30704775
:101650002DE9F04116460C46054600F06DF803688A
:1016600093F80101012807D0FF2C12D8185D80B132
:1016700001202C70BDE8F081D3F8070132462146E5
:1016800003F20713C7182846BC46BDE8F041002303
:1016900060474FF0FF30EDE710B500F095FBBDE877
:1016A000104000F08CBB30B503461D781DB10A46D2
:1016B00003E0AC4201D1181A30BD12F8014B002CE6
:1016C000F7D15B1CF1E730B503461D783DB10A4602
:1016D00012F8014B1CB1AC42FAD15B1CF5E7181AA9
:1016E00030BD00000048704720010020704775465B
:1016F000FFF7F8FFAE4605006946534620F00700A5
:10170000854618B020B5FEF707FEBDE820404FF033
:1017100000064FF000074FF000084FF0000BAC46FA
:10172000ACE8C009ACE8C009ACE8C009ACE8C00945
:1017300021F007018D46704710B500F005F8001D37
:1017400010BD00BFF5A00000004870474001002018
:101750002DE9F0411F46044603260168072A01F4DB
:10176000006004DB08B116A505E016A503E008B18A
:1017700015A500E015A521F010002060A069C01E8D
:10178000A0610FB1401EA0612046FEF78AFF4FB155
:10179000D4E9012138469047206A401C2062C01CD1
:1017A000206206E0206AFAE7D4E9012115F8010B6E
:1017B0009047761EF8D22046FEF789FFBDE8F081FB
:1017C0004E414E006E616E00494E4600696E6600E5
:1017D0002DE9FF4F06468BB00878FF2806D0491C3C
:1017E0002D2805D000244FF0000908E000200CE06F
:1017F0000124F8E709EB8903491C00EB4309087849
:10180000FF28F7D114B1C9F10000814610780025F6
:101810002C46AA4629462D2801D02B2804D1521C3B
:101820002D2813D0002082468B461078FF280FD039
:101830004FF0000C0A21521CA5FB017804FB01812A
:1018400005FB0C11C5194BEB0104EEE70120EAE79B
:10185000002108464FF00000BAF1000F02D000EB63
:1018600080004008C0F38157012F01DD4FF0FF37A2
:101870000E9955EA040009EB01080BD04FF002095C
:1018800018F5FA7F16DA4FEACA70002F706008DD8B
:10189000012007E04FEACA70C6E900B00FB0BDE80A
:1018A000F08F00203060FFF74FFAC0F80090182149
:1018B000084616E0B8F5FA7F18DD002F02DAF7487F
:1018C000784401E0F6487844D0E90010C6E90010F9
:1018D00040EACA707060FFF737FAC0F80090142130
:1018E00008460FB0BDE8F04F0AF0D0BD0021084611
:1018F0004FF00000B8F10001099002DAC7F10002D0
:1019000000E03A4601DAC8F1000106A800F0DCF96F
:1019100006AB93E8070003AB83E8070044F23E0000
:101920005BEA04010090584604D144F21E012C46A3
:101930005D460091210C0904014306D1009924045D
:1019400044EA15442D041039009104F07F4101430D
:1019500006D10099240244EA15642D020839009149
:1019600004F07041014306D10099240144EA157442
:101970002D01091F009104F04041014306D1009957
:10198000A40044EA9574AD00891E009104F0004162
:10199000084304D100986D196441401E00904FF037
:1019A00001033A466846B8F1000FCDE9014503A9A5
:1019B00002DD09F0BAF901E009F08DF9BAF1000F82
:1019C00004460D4601D084F00044002108464FF043
:1019D0000000099940F2FF77484010F00C0F07D142
:1019E00024F00040284303D0C4F30A50B84212D177
:1019F000FFF7AAF9C0F80090C4F30A50B8420AD120
:101A0000A8487844D0E90010C6E9001004F000416D
:101A10000843706042E7C6E900543FE72DE9FF4FF5
:101A20001F464FF0000A4FF0FF38454691B0D7E906
:101A30000146CDF83CA0FFF787FEC0680168405C16
:101A40001090B96912986D1C8847396A8146884799
:101A50000028F6D1B9F1FF3F0AD0002E24F4D0645B
:101A600011DDB9F12B0F08D0B9F12D0F0BD102E028
:101A7000404615B013E744F48064B96912986D1CB0
:101A80008847761E8146600504A901D52D2000E017
:101A90002B20002E01F1010B0DF130088DF8100004
:101AA0003FDDB9F1690F08D0B9F1490F05D0B9F19F
:101AB0006E0F02D0B9F14E0F1CD13B4601A8009524
:101AC00080E85002DDE912126FF002000AF049FDD1
:101AD000C11CCED10EE0B96912986D1C88478146B1
:101AE0001398761E44F4007405600F98401C002E75
:101AF0000F9016DDB9F1300FEDD0B9F1780F02D0AB
:101B0000B9F1580F0DD10F9801280AD13B46CDE904
:101B10000054DDE91212001F02960AF020FDC11CDC
:101B2000A7D1109989453ED144F0800406E013996D
:101B3000681CAAF1010A44F400740860B9696D1CBC
:101B40001298761E884730288146F0D02BE01099F5
:101B5000894505D1200603D4761E44F0800418E0A0
:101B6000484609F0E6FD08B3761E0DF123029345C1
:101B7000A9F1300044F4007406D20BF8010B2006E2
:101B800007D5AAF1010003E0200602D40AF1010002
:101B90008246A00502D51399681C0860B96912989D
:101BA0006D1C88478146002ED1DC53E0002E51DDAC
:101BB000B9F1650F02D0B9F1450F4BD1A00549D558
:101BC000B9696D1C1298761E24F440748847002E63
:101BD00081460CDD2B2804D0B9F12D0F07D144F438
:101BE0008074B96912986D1C8847761E8146E0059D
:101BF00001D52D2100E02B2108F8011BCDF8008034
:101C000021E0761E0DF13901884544F400740CD2B0
:101C1000A9F1300010F0FF0088F8000002D100990F
:101C2000884509D908F1010806E0E00501D51E48FC
:101C300001E042F20F708246B96912986D1C884724
:101C4000814613980560002E04DD484609F071FDB9
:101C50000028D6D1F96912988847FF2053468BF89F
:101C6000000088F8000000200A900B9004AA0CA93C
:101C70000AA8FFF7ADFDA00502D46FF00100F8E659
:101C800014F0240F12D0E0071CD13868DDE90A12E5
:101C9000031D3B600068C0E9001213E02CAF000098
:101CA0001EAF0000E2AD0000F1D8FFFF0AA96846B0
:101CB00009F02CFDE00705D13868009A011D396054
:101CC000006802602846D4E62DE9F04781461646B2
:101CD0008AB0354878440DC88DE80D003248784404
:101CE000801C03AC0DC884E80D0041F69B3008440D
:101CF000372190FBF1F290FBF1F5A5F1800501FB96
:101D000012041B3C02D56442012000E00020DFF8F1
:101D100098A080460027FA44AAF1BE0A0EE0E00728
:101D20000AD03246684607EB470101230AEB8101DE
:101D300008F0E6FF8DE8070064107F1C002CEED150
:101D4000194F7F44AE3F19E0E80715D007EB0410A8
:101D50000DF1180A90E80E008AE80E00C068F04203
:101D600001D1981908903246012306A903A808F06A
:101D7000C7FF03AB83E807006D10641C002DE3D19F
:101D80004FF0010332466946B8F1000F03A802D0B4
:101D900008F08CFF01E008F0B3FFC9E90001C9F8C1
:101DA00008200AB0BDE8F087A4A9000010B50446D9
:101DB000AFF300802046BDE81040FEF798BA002837
:101DC00001D0FEF7BBBF704710B5002102A000F0A4
:101DD00064F8012010BD0000534947414252543A73
:101DE0002041626E6F726D616C207465726D696EF8
:101DF0006174696F6E00000030B44FF0013C50F820
:101E0000042B51F8043BCCFA52F4D51A20D1FCB97A
:101E100050F8042B51F8043BCCFA52F4D51A17D1E0
:101E2000B4B950F8042B51F8043BCCFA52F4D51A4B
:101E30000ED16CB950F8042B51F8043BCCFA52F493
:101E4000D51A05D1002CDAD030BC4FF00000704715
:101E500029BAB1FA81F111F01801D1F120008440C2
:101E6000F2D1CA40CB4012F0FF0213F0FF0330BCA6
:101E7000D01A7047B2F120030AD5C2F1200301FA4B
:101E800002F120FA03F341EA030100FA02F070477D
:101E900000FA03F14FF00000704770B505460C469C
:101EA0000A2000E06D1CFEF741FF35B128780028BC
:101EB000F8D102E0641CFEF739FF14B12078002845
:101EC000F8D1BDE870400A20FEF730BF2DE9FF4F82
:101ED0001F464FF03C0987B04FF00042DDE9141077
:101EE00001F10108DDF858A002EA405003900020FB
:101EF00005908346054604460490B969461E089835
:101F00008847AAF1010A0290BAF1000F3BDD02985E
:101F10002E2815D0102100F003FA00282EDB4FF0F8
:101F2000010B0599014317D0B9F1000F0BDB4A46AD
:101F3000C117FFF79FFF05430C43A9F1040905E012
:101F4000012004900BE008B145F001050120059047
:101F5000049820B9361D02E0049800B1361FB96913
:101F6000089808F101088847BBF1000FAAF1010A9F
:101F70000290C9D00999C1F80080C5E7029870287D
:101F800008D0502806D0F96908988847BBF1000F9F
:101F900014D04FE0002002900120BBF1000F04900C
:101FA00009D0B969089808F101088847AAF1010920
:101FB000B9F1000F07DCF969089888476FF0010054
:101FC0000BB0BDE8F08F2B2804D02D280CD14FF09A
:101FD000FF300490B969089808F101088847A9F111
:101FE0000109B9F1000FE6DD411CE4D00A2100F03F
:101FF00097F90028DFDB029908F1010801EB810164
:1020000000EB41000290B969089888470A2100F066
:1020100087F9099AA9F10109B9F1000FC2F8008006
:1020200001DD0028E7DAF9690898884704990298E1
:1020300000FB016655EA040004D004F040410900A9
:1020400002D006E0039898E0A40044EA9574AD003D
:10205000B61E04F00041080002D16D196441761EDD
:10206000159810F0240F03D04FF00B095C4803E0E3
:102070004FF028096FF07D008246564507DAAAEB3B
:1020800006018944B9F1410F01DD4FF041090120FA
:102090000021A9F10102FFF7EDFE024628400B46A0
:1020A0002140084301D0012100E00021501E02918F
:1020B00043F1FF3128402140084301D0012000E0D6
:1020C00000200299834651EA0B014FD000210846B7
:1020D0004FF00000039900F4400039B100EB80009C
:1020E0004FF4400100EBD07001EA60008015012838
:1020F00002DD4FF0FF3000E013D0401C36D00298D4
:1021000060B3BBF1000F0CD14A4601200021FFF75C
:10211000B1FE28402140084301D0012000E000200A
:10212000E0B101204A460021FFF7A4FE0346401912
:102130000A4661412D1A8C4111D3B9F1400F09DDD6
:10214000159810F0240F02D0AAF1340603E0AAF18A
:10215000170600E0761C00254FF0004406E05B1EE9
:1021600042F1FF3220EA030521EA0204CAF101002C
:10217000B04206DA1B490398084301900020009002
:102180000EE0039AC4F3D321E80A0A43164940EA51
:1021900044500A433146CDE90002684609F0BFFACF
:1021A000159810F0240F0BD01598C00715D138687A
:1021B000DDE90012031D3B600068C0E900120CE07D
:1021C00002A8694609F0A2FA1598C00705D1386837
:1021D000029A011D3960006802604046F0E6000086
:1021E00002FCFFFF0000F07F0000F03F2DE9FF4FF1
:1021F00092461D4685B04FF00041DDE9124BDDE906
:1022000014727F1E01EA4B50414940F0FF4940EAF9
:102210000108002122F020004928049102D04E2814
:1022200028D04CE03BA0012607C88DE80700A9692B
:102230000698641C88477F1E014606D41DF80600D8
:1022400018B121F0200181420BD0E9690698884736
:10225000032E34D0082E32D06FF0010009B0BDE853
:10226000F08F761C032E01D0082EE0D1601CCAF836
:102270000000DCE7A9690698641C88477F1E2AD401
:1022800020F02000412826D1A9690698641C8847BF
:102290007F1E20D420F020004E281CD1A96906986A
:1022A000641C88477F1E48F4002849F48009CAF856
:1022B000004001D4282806D0E969069888475FEADB
:1022C000CB7012D022E0A9690698641C88477F1E53
:1022D00001D4002803DAE96906988847BCE7292871
:1022E000F1D1641CCAF80040E9E71BF0240F07D0C5
:1022F00028680499031D2B600068C0E9001805E0F8
:102300002868021D2A600068C0F800902046A5E7F2
:102310000000F07F494E46494E49545900000000E4
:102320003A2800D2303820F02002412A01D3A2F10D
:102330003700884201D34FF0FF307047FEE70000BE
:10234000002070470020704710B541F2B064C2F21F
:10235000000440F6BC51C2F200012046002204F005
:102360009DF840F2BC51C2F20001204604F088F80A
:10237000002010BDB0B5044605F00EF940F2BC5087
:10238000C2F200004FF40061FEF719F941F2B065A6
:10239000C2F200052846214604F072F8284604F0EF
:1023A00049F80020B0BD00000020704770470000D1
:1023B000EFF3108072B600BFFEE7000070B5866DC7
:1023C000044600F041F994F83510022925D105465C
:1023D0002068216C026822F016020260426922F035
:1023E0008002426109B9A16C19B1016821F00801AC
:1023F0000160016821F00101016000BF20680068F0
:10240000C0070ED000F020F9401B0628F6D320208C
:102410006065032084F835000CE0802060650120B1
:1024200008E0E06D3F2101FA00F0B060012084F87F
:1024300035000020002184F8341070BD90F835106C
:10244000022909D1052180F835100068016821F0C2
:102450000101016000207047802141650120704723
:10246000B0B5044600F0F0F8054640F21010C2F294
:1024700000000078611C18BF044400BF00F0E4F8BD
:10248000401BA042FAD3B0BD2DE9F04F82B000F15D
:102490003E4242F2004502F1FF77C4F202050A22F1
:1024A00043F6004E4FEAB726A84208BF0922C4F2FD
:1024B000010E092E38BF4FEAB7220125002600275A
:1024C0004FF00008009208E008F101080437B8F165
:1024D000100F06F1020600F0A6800C6805FA08F954
:1024E00014EA090FF0D0D1F804B003220BF0030C6A
:1024F000ACF10104B240012C6FEA020A10D88268E4
:10250000CC6802EA0A02B440224382604268CBF3FC
:10251000001422EA090204FA08F42243426005E0AA
:10252000BCF1030F02D14FF0030C20E0C2688C68AD
:1025300002EA0A02B4402243BCF1020FC26016D183
:102540006FF0030202EA58020244D2F820C007F0FA
:102550001C050F230C69AB402CEA030304FA05F5B4
:102560002B431362D1F804B001250BF0030C026871
:102570000CFA06F302EA0A021A431BF4403F026017
:10258000A2D0002243F644030192C4F202031A6867
:102590004FF6084C42F480421A601A68CFF6FF7C6E
:1025A00002F480420192019A28F00302724452F828
:1025B0000C3007F00C050F24AC40A343009C04FA38
:1025C00005F52B4342F80C30DEF808204B6842EA50
:1025D000090543F60C4CDC0258BF22EA0905CEF887
:1025E0000850C4F2010CDCF800209C0242EA090504
:1025F00058BF22EA0905CCF80050DEF804209C03FD
:1026000042EA090558BF22EA0905CEF80450DEF86F
:102610000020DB0342EA090558BF22EA0905CEF88B
:102620000050012550E702B0BDE8F08F426902EA90
:102630000103914341EA034181617047002A08BFC9
:10264000090481617047000042F2EC10C2F2000000
:102650000068704740F2101042F2EC11C2F2000024
:10266000C2F2000100780A68104408607047000058
:1026700080B543F60040C4F20200016841F40071E5
:102680000160016841F480610160016841F480717A
:102690000160032000F08CF80F2000F005F800F036
:1026A0002BF8002080BD0000B0B540F21012C2F23D
:1026B000000240F220011278C2F200014FF47A7356
:1026C0000968B3FBF2F20446B1FBF2F1084601F0EF
:1026D00077FC0F2C4FF001050CD858B94FF0FF30A4
:1026E00021460022002500F037F840F21410C2F213
:1026F000000004602846B0BD82B0002043F64001CF
:102700000190C4F202014A6842F480424A604A6879
:1027100002F480420192019A0090086840F08050D3
:102720000860086800F080500090009802B0704780
:10273000002848BF7047C1B200F01F00012202FA12
:1027400000F04EF20012CEF2000242EAD10121F076
:10275000030108607047000010B54EF60C5CCEF225
:10276000000CDCF80030C3F3022E8EF00704042CBA
:1027700028BF0424BEF103034FF0FF3E0EFA04F419
:1027800038BF0023A14399400EFA03F39A43114343
:1027900000F00F0200F160430901043A03F56443BD
:1027A0006244002848BF02F10C03197010BD0000FC
:1027B0004EF60C51CEF200010A684FF6FF031A40A4
:1027C00060F30A2242F0806040F0FD7008607047BC
:1027D0007047000002680020516270472DE9F04305
:1027E000D0F80080D8F82400B9B1D8F82830B1F179
:1027F000010E00EB13435CD05FFA8EF0012101283B
:1028000098BF0846471EFFB2032F00F0030C0BD2FF
:102810000026BCF1000F31D14BE040EA0240C8F87D
:1028200028000020BDE8F08300F0FC0908F1F40462
:10283000002008F5827500BF54F8106F074603EBBF
:10284000164047F00103DBB247F0020655F823308B
:10285000F6B255F8266000EB134000EB164347F044
:102860000300C0B255F82010381DC6B24E4503EB28
:102870001143E1D1791DBCF1000F1AD008EB86009D
:10288000D0F80401BCF1010F03EB104311D0C8B222
:1028900008EB8000D0F80401BCF1020F03EB1043F9
:1028A00007D0481CC0B208EB8000D0F8040103EB4D
:1028B000104343EA024008EB8E01C1F804010020F6
:1028C000BDE8F083D0F8080504F09AB901EBC10225
:1028D000D0F8083500EB8200C26C184604F0FAB854
:1028E00001EBC102D0F8083500EB8200D0F88C2251
:1028F000184604F049B90000D0F8080504F082B980
:1029000010B5044648B2B0F1FF3F01F00F0000EBF4
:10291000C00104EB810205DD02F51F71002382F87E
:102920007D3204E0012302F13C0182F83D3094F84D
:10293000BC240870012A04BF022010BD20680122B7
:1029400084F8BC2405F08EF8002084F8BC0410BD87
:10295000B0B54268044601F00F0082423CBF01203E
:10296000B0BD49B2B1F1FF3F09DD00EBC00104EB9E
:10297000810202F51F71002382F87D3208E000EB2E
:10298000C00104EB8102012302F13C0182F83D30D9
:1029900094F8BC240025012A8D70087004BF022021
:1029A000B0BD2068012284F8BC2405F0B5FB2846A0
:1029B00084F8BC54B0BD000001F00F0101EBC1016F
:1029C00000EB8100D0F89C027047000070B506460D
:1029D00048B2B0F1FF3F01F00F0000EBC00107DD8E
:1029E00006EB810404F51F71002584F87D5206E092
:1029F00006EB810C01240CF13C018CF83D404D7834
:102A00000870002DCA600B7118BF0881022B04BF2B
:102A10000020487196F8BC04012804BF022070BD54
:102A20003068012286F8BC2404F0DEFE002086F81F
:102A3000BC0470BD80B501F00F0C0CEBCC0100EBB9
:102A4000810ECEF894320023CEF89C328EF87D327F
:102A50000369CEF88C22012B8EF87CC208BFCEF819
:102A6000902200680EF51F71DAB2BCF1000F03D09E
:102A700005F098FB002080BD05F0A6FA002080BD7F
:102A8000B0B50446406801F00F05854284BF0120BF
:102A9000B0BD48B2B0F1FF3F09DD01EBC10004EB6E
:102AA000800000F51F71002280F87D2208E005EB10
:102AB000C50004EB8000012200F13C0180F83D20BC
:102AC00094F8BC04012201288A700D7004BF022012
:102AD000B0BD206884F8BC2405F046FB2DB9206801
:102AE000217C04F2C44205F0E9FA002084F8BC0419
:102AF000B0BD000010B501F00F0C0CEBCC0100EBE9
:102B0000810E714601F83CCF8B6100230B62036993
:102B100001244C70012B0A6108BFCEF850200068D8
:102B2000DAB2BCF1000F03D005F03CFB002010BD71
:102B300005F04AFA002010BD2DE9F04F89B0056874
:102B40000646284605F018FD10B109B0BDE8F08F23
:102B5000306805F03FFD0028F7D0D5F80808C0F32D
:102B60000D213068C6F8FC1405F034FD01463068CC
:102B7000890703D5416901F00201416105F500674C
:102B800005F028FD01463068C906089604953BD536
:102B9000816921F0100181612C6AC4F34340062849
:102BA00004F00F0519D0022828D147F6F07014EA76
:102BB000000823D005EBC50006EB8009D9F88C127C
:102BC0004FEA18140498224605F008FDD9F88C0243
:102BD00000EB1810C9F88C0207E0049806F2C44113
:102BE000082205F0FBFCC4F30A1405EBC50006EB54
:102BF0008000D0F89C122144C0F89C123068816992
:102C000041F010018161049D039705F0E3FC00038E
:102C100040F1E3800898006805F0BAFC002800F055
:102C2000DC80064608984FF4306400F2C44100F599
:102C300027784FF0000B079119E000BF28190221F7
:102C400081605FEA8A6042BF2819202181605FEAC3
:102C50008A4042BF28194FF4005181600BF1010BEB
:102C6000760804F1200408F1240800F0B680F0078B
:102C7000F4D008985FFA8BF90068494605F0A2FC89
:102C80008246C0075AD0281901218160089F386800
:102C90002118036C8A683F69012F26D1170732D4A7
:102CA000970674D412F0280F48D143F20B07C4F6EC
:102CB0005477BB4202D312F400422DD158F8042CB1
:102CC0000969BBF1000F6FF3DF41A2EB0101C8F806
:102CD00000102FD1089BD3F89422002A7BD0D3F880
:102CE0008C020844C3F88C0224E043F20B07C4F6BC
:102CF0005477FF37BB4212D110040DD4900644BF65
:102D00002020886016E043F20B00C4F65470834222
:102D100014D312F4004011D04FF4004038E0BBF15E
:102D2000000F07D10899D1F8941219B90021079A18
:102D300005F0C4F908984946FFF7D2FD5FEA0A702A
:102D40002AD5281908218160089843F20B020068EF
:102D5000C4F65472056C20448168571EBD4205D9E3
:102D600011F400411CBF4FF400418160089800F04D
:102D700069FCBD42049D0FD90898006901280BD158
:102D80000898079A0068012105F098F904E02020CE
:102D900088605FEA0A70D4D45FEACA6042BF28192B
:102DA000102181605FEA8A707FF54BAF6869000689
:102DB00004D50399486840F48060486018F81D0CF9
:102DC00001287FF43BAF002008F81D0C0898494605
:102DD00000F022FB32E70121A9E7DDF820B0DBF8A3
:102DE000000005F0F7FB400340F1D380DBF8000062
:102DF00005F0C6FB002800F0CC80824605F5106087
:102E000002900BF2C4400027019005E05FEA5A0AE5
:102E100007F1010700F0BD805FEACA70F6D0DBF869
:102E20000000F9B2079105F0BBFB029E0446C00703
:102E300026D0039A07F00F00516B012303FA00F02C
:102E400021EA0000506306EB47108360DBF81000B6
:102E5000012811D107EBC7000BEB8000D0E912125B
:102E60001144C16447B9DBF8540028B9DBF800000D
:102E7000019A012105F022F907995846FFF726FD2E
:102E8000200742BF06EB471008218160E00642BFE1
:102E900006EB471010218160600642BF06EB471029
:102EA00040218160A00715D52846394605F0FAFA79
:102EB00007EBC7000BEB800010F83F1F012905D17D
:102EC000002101700799584600F0A2FA06EB47105E
:102ED00002218160200699D507EBC7000BEB800229
:102EE000914659F8541FC84658F8080F81428DD3AF
:102EF000DBF8006093465BF8485F0B1AAB4238BFC3
:102F00001D46069606EB4713D3F818C905F1030EC4
:102F10001FFA8CF5B5EB9E0F28D303F5106102F173
:102F20004C050591D9F8001081421FD9DBF800400B
:102F3000089A081AA0422968167C38BF0446DDE9C1
:102F40000602A3B2009605F06DFC2868D8F80010C0
:102F50002044286008190599C8F800008969E21C16
:102F600089B2B1EB920FDDD2D9F80010DDF820B0B4
:102F7000049D81423FF64AAF069B07F00F00D3F84D
:102F80003418012202FA00F021EA0000C3F83408E4
:102F90003CE7DBF8000005F01DFB002804D4DBF85B
:102FA0000000DDF80C801CE0DDF80C80D8F804008F
:102FB00020F00100C8F804009BF8F404012807D1B0
:102FC00000208BF8F40458460021FFF701FC02E0D2
:102FD000584600F01BFBDBF80000416901F000419E
:102FE000416105F0F7FA000502D4DBF800000CE0BF
:102FF000D8F80800C00702D0584600F04BFBDBF8B9
:103000000000416901F40061416105F0E3FAC00488
:1030100002D4DBF8000001E1D8F80400102120F010
:103020000100C8F80400DBF8000005F03BFADBF80B
:103030000400002800F0BF80411E032900F0030CAB
:1030400001D200216AE020F0030E05F536634FF649
:10305000A0564FF6C0554FF6E0544FF600600021E1
:103060004FF67F37CFF6FF76CFF6FF75CFF6FF74BA
:10307000CFF6FF70A3F5187297609A59043122F4C5
:1030800000129A5143F8587C53F8602C8E4522F474
:10309000001243F8602C53F8602C42F0006243F8B1
:1030A000602CA3F5107297605A5922F400125A51FD
:1030B00043F8387C53F8402C22F4001243F8402C9B
:1030C00053F8402C42F0006243F8402CA3F50872FC
:1030D00097601A5922F400121A5143F8187C53F8D9
:1030E000202C22F4001243F8202C53F8202C42F01C
:1030F000006243F8202CA3F5007297601A5822F45E
:1031000000121A509F601A6822F400121A601A689E
:1031100042F000621A6003F18003ABD1049DBCF160
:10312000000F48D005F5106000EB41124FF67F33D9
:103130004F019360C65905F5306226F40016C6515A
:1031400002EB4116B360D659BCF1010F26F400160C
:10315000D651D65946F00066D6512CD04F1C00EB04
:1031600047157E01AB60855902EB471725F4001522
:103170008551BB609359BCF1020F23F400139351A6
:10318000935943F00063935115D0023100EB41177E
:103190004FF67F364B01BE60C75827F40017C75063
:1031A00002EB41108660D05820F40010D050D05867
:1031B00040F00060D050D8F81C0040F00110C8F872
:1031C0001C00DBF8300040B1D8F8840040F00B0060
:1031D000C8F8840008F1440008E0D8F8140042F26E
:1031E0002B010843C8F8140008F1100001680BF225
:1031F000C44241F00B010160D8F8000020F4FE60E9
:10320000C8F80000DBF800009BF8101004F056FF2F
:10321000DBF80000416901F48051416105F0DAF901
:103220000146DBF8000089041AD504F01DFBDBF829
:10323000000005F093F9DBF80040CBF80C0000F03B
:10324000F3FA9BF80C200146204605F05FFA584639
:1032500000F0C6F9DBF80000416901F4005141615A
:1032600005F0B8F9000702D4DBF8000008E0584682
:1032700000F0D0F9DBF80000416901F0080141617C
:1032800005F0A8F9000629D50499886920F0800086
:103290008861DBF80400022820D3012440F2A32532
:1032A00005E000BF0134844205F1240516D21BF865
:1032B00005100129F6D104F00F0000EBC0000BEB64
:1032C00080022006DBF8000002F13C0158BF02F545
:1032D0001F7105F05BF8DBF80400E3E7DBF80000A2
:1032E00005F078F9C00202D4DBF800002FE0DBF82B
:1032F0000400022825D304990BF1640501F512643A
:103300000126012706E000BF01372034874205F17E
:10331000240516D221682A78012AF5D1B1F1FF3FA0
:10332000F2DC07F00F0000EBC0000BEB8001DBF8D4
:1033300000003C3105F8016C05F028F8DBF80400CA
:10334000E2E7DBF80000416901F48011416105F01A
:1033500041F9049D800202D4DBF8000033E0DBF881
:103360000410022929D305F5326001390BF52972C1
:10337000012304E02030013902F124021DD0076846
:103380001678012EF6D1B7F1FF3FF3DCDBF8FC64D1
:1033900007F4803706F00106B742EBD102F8013C92
:1033A000AF6947F08007AF616F693F06E2D4D8F894
:1033B000040040F40070C8F80400DBF80000416924
:1033C00001F40011416105F005F9400002D4DBF879
:1033D000000008E05846FFF775FADBF80000416985
:1033E00001F08041416105F0F5F840077FF5ADAB94
:1033F000DBF800004468610704D55846FFF77CFA03
:10340000DBF8000041682143416009B0BDE8F08F5E
:10341000D0F8080503F054BCD0F8080503F064BCEC
:103420002DE9F04F8BB098B30446056890F8BD04C1
:1034300028B9002084F8BC04204600F091F803204D
:1034400084F8BD04E86BC0055CBF002020612068E3
:1034500004F0B2FD206804F11C0A0A90D4E90C5073
:1034600004F1040E9AE8C0079EE80E58CDE9085012
:1034700003A880E8C0030A988DE80058CDF81CA086
:1034800004F002FA30B1022084F8BD04012562E0A4
:10349000012560E020680021002505F0F3F861684F
:1034A00061B301200023002203EBC30304EB830775
:1034B00087F83C20D3B20132A7F84430D3B2994206
:1034C00087F83D0087F84050C7E912557D65EBD875
:1034D00000200023002200BF03EBC30304EB83079B
:1034E00087F87C220132D3B2994287F87D0287F8AF
:1034F0008002C7E9A200C7F89402EDD8A06822684C
:103500000A90D4E90C5004F1140E04F1240AD4E911
:1035100003379EE840589AE80007CDE9085002A812
:1035200080E8005810460A9ACDE90076CDE9058971
:10353000CDF81CA004F0F8FA20B1022084F8BD04F4
:10354000012508E00025012084F8385084F8BD04E6
:10355000206804F0D9FA28460BB0BDE8F08F0000CF
:10356000B0B586B00068B0F1A04F01D006B0B0BDD4
:10357000002543F630040195C4F20204206801A935
:1035800040F001002060206800F0010001900198E7
:103590004FF4C05001900220CDE9020503200490B1
:1035A0000A2005900020C4F20200FEF76DFF60685B
:1035B000002140F08000606000956069002240F4C6
:1035C00080406061606900F4804000900098432072
:1035D000FFF7C2F84320FFF7ABF806B0B0BD00001C
:1035E00010B50446C06828B1022818BFFEF7E0FEF7
:1035F000012100E00021D4F8080503F0F9FBD4F81C
:103600000805BDE8104003F0A9BB0000D0F808058C
:1036100003F0D6BBD0F8080503F0DCBB10B50446B8
:1036200090F8BC04012804BF022010BD012084F8DA
:10363000BC0484F83810206805F056F8002084F89F
:10364000BC0410BDD0F8082500F2C441104603F0B8
:10365000E5BB000010B5044690F8BC04012804BF87
:10366000022010BDA16A20680122012984F8BC242F
:1036700006D1A169012903D0816B41F480318163B6
:1036800004F008FF206804F02FFA002084F8BC043E
:1036900010BD000010B50446D0F8080503F012FC78
:1036A0002068D0F8001E41F00101C0F8001E206A19
:1036B000002808BF10BD4EF61050CEF20000016881
:1036C00041F00601016010BD2DE9F041002800F035
:1036D0008B8043F60808C4F202080446D8F8F803C1
:1036E0000D4600F00F00884207D288F8F853D8F84A
:1036F000F80300F00F00A84276D12068810717D5A3
:10370000410705D5D8F8001041F4E051C8F8001081
:10371000010705D5D8F8001041F46041C8F8001041
:10372000D8F80010A26821F0F0011143C8F8001089
:10373000C0073FD1D8F8F80300F00F00A84207D91E
:1037400088F8F853D8F8F80300F00F00A8424BD1DE
:103750002068410707D5D8F80010E26821F4E0514D
:103760001143C8F80010000708D5D8F800002169F7
:1037700020F4604040EAC100C8F8000000F082F880
:10378000D8F800104CF2A862C1F30311C0F6000291
:10379000515C40F2200220FA01F140F21410C2F212
:1037A00000000068C2F200021160FEF77DFF0020F9
:1037B000BDE8F0816068811E022907D258F8081C14
:1037C00089015CBF0120BDE8F08110E0012807D12C
:1037D00058F8081C89035CBF0120BDE8F08106E0B1
:1037E00058F8081C890702D40120BDE8F081D8F8F8
:1037F000001021F003010843C8F80000FEF724FF81
:10380000064641F2883700BFD8F80000616800F032
:103810000C00B0EB810F8DD0FEF716FF801BB84275
:10382000F2D90320BDE8F08140F22000C2F200008E
:103830000068704740F2200043F60801C2F2000021
:10384000C4F20201006809684CF2B862C1F3822137
:10385000C0F60002515CC8407047000040F22000F2
:1038600043F60801C2F20000C4F2020100680968D0
:103870004CF2B862C1F34231C0F60002515CC8405C
:103880007047000010B543F60404C4F202046068F7
:1038900000F00C0008280AD0042819BF42F20040AA
:1038A000C0F2F40041F60030C0F2B70010BD20684D
:1038B00021682368490241F60031C0F2B70100F0E7
:1038C0003F02C3F388105CBF42F20041C0F2F40132
:1038D000A1FB00010023FCF731FD21680222C1F3A6
:1038E000014102EB4101B0FBF1F010BD2DE9F041C7
:1038F00082B0002868D00446007843F60006C0076E
:10390000C4F202060BD0B06800F00C00042840F0AE
:103910009C803068800302D56068002854D02078ED
:1039200080071AD5B06810F00C0F09D0B06800F00D
:103930000C00082840F0A3807068400200F19F80CE
:103940003068800702D5E06801283DD130682169E0
:1039500020F0F80040EAC10030602078000737D43A
:10396000207840074BD4A56955B3B06800F00C002F
:10397000082840F0B780012D26D07068E16900F476
:1039800080028A4220D1216A00F03F028A421BD184
:1039900047F6C071626A0140B1EB821F14D1A16A7F
:1039A0004FF6FF73C903994300F44032A1F580310B
:1039B0008A4209D1E16A00F07060B0EB016F03D177
:1039C000002002B0BDE8F081012002B0BDE8F08126
:1039D0006069002840F20000C4F2472072D0012143
:1039E000C0F8801EFEF730FE054600BF706F8007EE
:1039F000B6D4FEF729FE401B0228F7D9D7E0306C79
:103A000010F080580AD100200190306C40F08050B6
:103A10003064306C00F080500190019847F200074C
:103A2000C4F200073868C0053ED4386840F480709E
:103A30003860FEF709FE05463868C00534D4FEF745
:103A400003FE401B0228F7D9B1E0B06800F00C007B
:103A5000082803D1706840023FF55BAF6068B0F59D
:103A6000803F07D0B0F5A02F40F08B80306840F445
:103A700080203060306840F4803030608BE0E06857
:103A8000002851D00020C4F2472001210160FEF738
:103A9000DBFD0546306880073FF558AFFEF7D4FDE3
:103AA000401B0228F6D982E0A068012805D005282D
:103AB0004ED1306F40F004003067306F40F00100AD
:103AC00030674FE00021C0F8801EFEF7BDFD0546BF
:103AD000706F80077FF544AFFEF7B6FD401B0228EC
:103AE000F6D964E00027C4F2472700203866FEF7C5
:103AF000ABFD022D05460BD1306880015BD5FEF78A
:103B0000A3FD401B02284FF00300F5D959E700BF81
:103B1000306880017FF554AFFEF796FD401B022808
:103B20004FF00300F4D94CE70020C4F247200021F5
:103B30000160FEF789FD0546306880077FF50DAF0F
:103B4000FEF782FD401B02284FF00300F4D938E74E
:103B5000316F002821F001013167316F21F004013C
:103B6000316749D0FEF770FD054641F2883700BF46
:103B7000306F800751D4FEF767FD401BB842F7D97C
:103B800015E03168002821F480313160316821F47A
:103B9000802131604AD0FEF757FD0546306880032A
:103BA0003FF5BDAEFEF750FD401B6428F6D903205B
:103BB00002B0BDE8F08104F11C052FCD084340EAB6
:103BC0008210D9034FF6FF729143A1F5803140EA8C
:103BD00005600843706001203866FEF735FD044635
:103BE000306880013FF5ECAEFEF72EFD001B022889
:103BF0004FF00300F4D9E4E6FEF726FD054641F256
:103C0000883700BF306F800707D5FEF71DFD401BCA
:103C1000B8424FF00300F5D9D3E6B8F1000F7FF4B6
:103C2000A2AE306C20F0805030649CE6FEF70CFDB4
:103C3000054600BF306880037FF571AEFEF704FDD6
:103C4000401B64284FF00300F4D9BAE670B538B1D0
:103C50000446406A30B10020206104F1140007E0FE
:103C6000012070BD6068B0F5827F03D004F11C00B4
:103C7000002101600026A66294F8510020B9204678
:103C800084F8506000F03CF8022084F8510094E879
:103C90000F0001F48271056802F4044225F040052A
:103CA0000560114403F400622369114403F0020229
:103CB0006369114403F00102A369E569114403F447
:103CC0000072114405F03802256A114405F08002A3
:103CD000A56A114305F4005211430160626A042190
:103CE00001EA134102F0100211444160C16921F45C
:103CF0000061C1610120666584F85100304670BDE5
:103D000080B586B0016845F20000C4F2010081422E
:103D100001D006B080BD002143F630020191C4F20B
:103D20000202536900F5444043F480135361536920
:103D300003F480130193019B0191136843F0200366
:103D40001360126802F020020192019A4FF460722F
:103D500001920222CDE9022103210491052105915E
:103D600001A9FEF791FB06B080BD00002DE9F043EC
:103D700083B0044690F85000012803D1022003B01C
:103D8000BDE8F08301201E4615460F4684F850001A
:103D9000FEF75AFC94F85110814601290AD0606858
:103DA000B0F5827F70D1A06800284FF0020008BFF4
:103DB00004296AD1002F4FF0010018BF002D64D0F4
:103DC000002E62D094F85100002104281CBF052069
:103DD00084F851006165A563E687A6872763E686B8
:103DE0002068A686216461640168490603D40168DD
:103DF00041F0400101606168731EE268B1FA81F12F
:103E0000B3FA83F3DDF8288049095B09B2F5006F46
:103E100041EA030142D131B137F8021BC160276387
:103E2000E08E0138E086012608F10105E08E10B928
:103E3000E08F00286ED02068816889070CD5E18E5C
:103E400051B1012E08D1216B002631F8022BC2603E
:103E50002163E18E0139E1868168C9070AD0E18FCB
:103E600041B1C068A16B012621F8020BA163E08F6C
:103E70000138E087FEF7E8FB002DD7D0A0EB090062
:103E80004045D3D3032000E00220012184F85110E3
:103E9000002184F8501003B0BDE8F08339B13978BF
:103EA0000173206B01302063E08E0138E08601262B
:103EB00008F10105E08E08B9E08F58B320688168E9
:103EC00089070ED5E18E61B1012E0AD1216B002642
:103ED00009780173216B206801312163E18E01397A
:103EE000E1868168C9070BD0E18F49B1C068A16B39
:103EF00001260870A06B0130A063E08F0138E087D5
:103F0000FEF7A2FB002DD5D0A0EB09004045D1D390
:103F10000320BAE740F22000C2F20000006849F630
:103F20008171C1F25E61A0FB0101480D4FF47A710D
:103F3000484302906068B0F5827F0ED12046802110
:103F400042464B4601F0A2FC58B3606D40F02000A1
:103F5000606520206065012097E7029808B3029809
:103F6000013802902068806800061AD50298C0B116
:103F700002980138029020688068000611D50298E6
:103F800078B102980138029020688068000608D550
:103F9000029830B1029801380290206880680006CB
:103FA000DBD4A06800284FF000007FF46EAF0190D2
:103FB0002168CA68019289680191019965E700004A
:103FC000411E0020B0EB116F1CBF012070474EF264
:103FD0001002CEF2000251604EF62351CEF20001E3
:103FE000F0230B700721906011607047704700004C
:103FF0007047000010B590F83C20012A4FF00202F3
:104000004FD080F83D200268D2F804E0D2F808C012
:104010000C682EF07003234341F2FF74C4F20004D5
:10402000A24253600DDC40F2FF73C4F200039A42D7
:1040300015DCB2F1804F29D040F20043C4F20003F6
:1040400022E040F2FF33C4F201039A4212DC41F64F
:104050000003C4F200039A4218D0002312E040F695
:104060000003C4F200039A4210D040F60043C4F2A9
:10407000000309E044F20003C4F201039A4205D0B0
:1040800040F20043C4F201039A4204D149682CF083
:104090008003194391600121002280F83D1080F8CF
:1040A0003C20104610BD0000002804BF01207047CE
:1040B00010B5044690F83D0028B9002084F83C0073
:1040C000204600F01FF8022084F83D002068211DE2
:1040D00001F088FE012084F8460084F83E0084F850
:1040E0003F0084F8400084F8410084F8420084F8DE
:1040F000430084F8440084F8450084F83D00002023
:1041000010BD000010B582B0006841F20041C4F259
:104110000001884216D041F20001C4F20001884239
:104120002BD10020019043F64000C4F20200016848
:10413000362441F010010160006800F01000019089
:1041400001980FE00020009043F64000C4F2020006
:104150000168372441F020010160006800F0200070
:1041600000900098204600210022FEF7F5FA204634
:1041700002B0BDE81040FEF7DBBA02B010BD00008F
:1041800090F83D1001291CBF01207047022180F8E2
:104190003D10006841F2FF72C168C4F20002904213
:1041A00041F00101C1600DDC40F2FF71C4F2000179
:1041B000884215DCB0F1804F29D040F20041C4F2B2
:1041C000000122E040F2FF31C4F20101884212DC1A
:1041D00041F60001C4F20001884218D0002112E02B
:1041E00040F60001C4F20001884210D040F60041C0
:1041F000C4F2000109E044F20001C4F20101884266
:1042000005D040F20041C4F20101884206D1816824
:1042100001F00701062904BF00207047016841F042
:104220000101016000207047002804BF0120704791
:104230002DE9F047044690F83D000D4628B90020CE
:1042400084F83C00204600F049F8022084F83D0044
:10425000206844F20702816891438160211D01F0CA
:10426000C1FD20684FF6FF7881688269D0F820C0D0
:10427000D5E9003ED5E9026A43EA0109AB6922EAC1
:10428000080246EA03234FF6FC46B343D5E9076725
:1042900042EA0A0229691A4342EA062242EA011165
:1042A0002CF0AA026B6942EA0E0241EA073142EAA7
:1042B0000312C0F8089081610262012084F8460070
:1042C00084F83E0084F83F0084F8420084F84300FC
:1042D00084F83D000020BDE8F087000080B586B07E
:1042E000006840F6FF31C4F2000188424FF000013F
:1042F0000591CDE90311CDE901112BDCB0F1804F1F
:1043000056D040F60001C4F20001884240F09B8084
:10431000002043F630010090C4F202010A6942F025
:1043200004020A610A6902F004020092009A0090F5
:10433000086840F008000860086800F00800009075
:1043400000984FF4405001900020C4F2020000F5A4
:1043500040606EE040F60041C4F20001884247D060
:1043600040F20041C4F2010188426CD1002043F6C2
:1043700030010090C4F202014A6942F002024A612F
:104380004A6902F002020092009A0090086840F424
:10439000807008600868032100F480700090009825
:1043A000602001900020C4F2020000F5005041E0BE
:1043B000002043F630010090C4F202010A6942F085
:1043C00001020A610A6902F001020092009A00905B
:1043D000086840F0010008600868012100F0010051
:1043E00000900098032001900020C4F2020021E018
:1043F000002043F630010090C4F202010A6942F045
:1044000008020A610A6902F008020092009A00900C
:10441000086840F080000860086800F080000090A4
:1044200000984FF4406001900020C4F2020000F5B3
:10443000E0500221022202920022059101A9CDE959
:104440000322FEF721F806B080BD000080B590F889
:104450003E2090F83F3090F842E090F843C00429A5
:1044600009D0B1B9012A4FF0010208BFBEF1010F16
:1044700032D0104680BD012B4FF0010208BFBCF1C5
:10448000010FF6D1022180F83F1080F84310006838
:104490001EE0012A4FF0010208BF012BE9D1BEF155
:1044A000010FE6D1BCF1010FE3D1022280F83E20DA
:1044B00080F83F2080F8422080F8432089B10068CE
:1044C000016A21F001010162016A41F0010101620A
:1044D00010216FF0100208E0022180F83E1080F8F1
:1044E0004210006801216FF00102036A1A40026263
:1044F000026A114301620168002241F0010101607A
:10450000104680BD7047000010B501680446086978
:10451000800744BFC8685FEA807038D408694007E4
:1045200044BFC8685FEA40703DD40869000744BFD3
:10453000C8685FEA007043D40869C00644BFC86811
:104540005FEAC06048D40869C0071CBFC8685FEA5A
:10455000C0704ED10869000644BFC8685FEA0060B9
:104560004FD40869400644BFC8685FEA406050D431
:104570000869800646BFC8685FEA806010BD6FF0BA
:10458000200220460A61BDE81040FFF731BD6FF000
:1045900002000861012020778869800741D0204609
:1045A000FFF7B0FF43E06FF00400086102202077BE
:1045B000886910F4407F3ED02046FFF7A3FF40E01B
:1045C0006FF00800086104202077C86980073CD09C
:1045D0002046FFF797FF3EE06FF0100008610820CB
:1045E0002077C86910F4407F39D02046FFF78AFF52
:1045F0003BE06FF001000861204600F02FFA2168CF
:10460000A8E76FF0800008612046FFF7EFFC216803
:10461000A7E76FF040000861204600F0BBFA216870
:10462000A6E7204600F026F8204600F08FF9216822
:104630000020207772E7204600F01CF8204600F0AA
:1046400085F92168002020776FE7204600F012F8F6
:10465000204600F07BF92168002020776CE7204697
:1046600000F008F8204600F071F92168002020775A
:1046700069E70000704700002DE9F04390F83C30F6
:10468000012B04BF0220BDE8F0834FEAB202032AE7
:1046900000F2FB80DFE802F0023E7DBD036840F2DD
:1046A00000471A6A43F4806522F001021A621C6A0C
:1046B0001A46D3F804E052F818CF8E6824F00204AA
:1046C000C4F20107BD4244EA060405D1CE6824F0D5
:1046D0000C0426F0040634430E68BD4207D1D1E92C
:1046E00005572EF4407E45EA0E0545EA070E2CF0EC
:1046F00073073743C3F804E09F614F6809695F633C
:104700001C629F6947F008079F619F6927F00407B3
:104710009F61B0E0036840F200481A6A43F4806584
:1047200022F010021A621C6A1A46D3F804C052F82A
:1047300018EF8F6824F02004C4F20108454544EACC
:10474000071407D1CF686FF0400624F0C00406EAD2
:1047500007163443D1F80090454506D1D1E90556F6
:104760002CF440672E4347EA860C2EF4E64747EACE
:104770000927C3F804C09F614F6809699F631C62E1
:104780009F6947F400679F619F6927F480679F6175
:1047900070E0036840F200481A6A43F4806522F42E
:1047A00080721A621C6A1A46D3F804C052F81CEFD1
:1047B0008F6824F40074C4F20108454544EA0724D4
:1047C00008D1CF6840F2FF463F0224F4406427EA54
:1047D00006063443D1F80090454506D1D1E9055687
:1047E0002CF440572E4347EA061C2EF0730747EA85
:1047F0000907C3F804C0DF614F680969DF631C6201
:10480000DF6947F00807DF61DF6927F00407DF6130
:1048100031E0036840F200451A6A43F4806722F4ED
:1048200080521A621A46D3F820C05C6852F81CEF16
:10483000D1F800808E68C4F20105AF4204D14D6901
:1048400024F4804444EA85142CF4005747EA0637E0
:104850002EF4E64646EA08265C60DE614E68096989
:104860001E641F62DF6947F40067DF61DF6927F4B8
:104870008067DF610902136819431160002100227B
:1048800080F83C200846BDE8F0830121F7E70000EE
:10489000002804BF0120704710B5044690F83D0081
:1048A00028B9002084F83C00204600F01FF80220C0
:1048B00084F83D002068211D01F094FA012084F85D
:1048C000460084F83E0084F83F0084F8400084F8F5
:1048D000410084F8420084F8430084F8440084F8DE
:1048E000450084F83D00002010BD000082B0006843
:1048F00044F20001C4F20101884216D040F20041A6
:10490000C4F2000188421FD10020019043F640000C
:10491000C4F20200016841F002010160006800F089
:1049200002000190019802B070470020009043F609
:104930004000C4F20200416841F4803141604068A7
:1049400000F480300090009802B07047704700007B
:1049500041B1082910D0042914BF00F1410200F12F
:104960003F020BE090F83E20012A1CBF0120704757
:10497000022280F83E2012E000F140021278012A63
:104980001CBF012070470222082906D0042914BF49
:1049900080F8412080F83F2001E080F84020006846
:1049A00001F01F010122036A02FA01F123EA010268
:1049B0000262026A114341F2FF72C4F200029042A5
:1049C00001620BDC40F2FF71C4F20001884213DC8B
:1049D000B0F1804F35D040F2004115E040F2FF3198
:1049E000C4F20101884214DC41F60001C4F2000166
:1049F000884226D0002114E040F60001C4F20001F4
:104A000088421ED040F60041C4F20001884218D00E
:104A10001EE044F20001C4F20101884211D040F2CC
:104A20000041C4F20101884212D1416C40F20043BE
:104A300040F48062C4F2010341F400419A424164AF
:104A400006D1816801F00701062904BF00207047E4
:104A5000016841F001010160002070472DE9F04339
:104A600081B02DED108B92B042F21001C2F2000124
:104A7000884269D042F25801C2F2000188425DD1F9
:104A800005F032FC9FED420A05F000FB05F0A0FDA9
:104A900042F27815C2F2000595E8C1002C6907F0D2
:104AA00017FC80463046894607F012FC41EC180B93
:104AB000384607F00DFC41EC190B204607F008FCC6
:104AC00041EC1A0B686907F003FC41EC1B0BA86969
:104AD00007F0FEFB41EC1C0B40F20C10C2F2000090
:104AE000006807F0F5FB41EC1D0B42F2DC10C2F24E
:104AF0000000006807F0ECFB41EC1E0B42F2E010F6
:104B0000C2F20000006807F0E3FB41EC1F0B42F229
:104B1000E410C2F20000006807F0DAFB41EC100B71
:104B20004CF2C060C0F6000042464B468DED100BC3
:104B30008DEC0E8B8DED0EFB02F02EFE12B0BDEC57
:104B4000108B01B0BDE8F08342F2F010C2F2000019
:104B500003F0A0FE42F24820C2F2000003F09AFEE9
:104B600042F21C20C2F2000003F094FE42F27420D4
:104B7000C2F2000003F08EFE40F28010C2F200008C
:104B800012B0BDEC108B01B0BDE8F04303F0F2BEF3
:104B90000AD7A33B70470000704700007047000031
:104BA000B0B582B0044600680168C368426901F08C
:104BB0002F05202D03F0200506D12DB1204602B08F
:104BC000BDE8B04001F0A6B95FEA017C1EBF02F06B
:104BD000010E03F4907212EB0E0253D1226B012AE4
:104BE00005D111F0100218BF13F0100236D10A06D9
:104BF00022D513F080021FD094F83D1021293FD117
:104C0000A168B1F5805F03D12169002900F06E82AF
:104C1000216A4A1C226209784160E18C01390A0448
:104C2000E1842DD1C16821F08001C160C16841F0EB
:104C30004001C16002B0B0BD490621D513F040016A
:104C40001ED0C16821F04001C1602021204684F8B7
:104C50003D1002B0BDE8B04000F0C0BA00210191A3
:104C6000016801914168019101994069400613D49E
:104C7000A08DE18DE28D002A18BF884240F0BA81F4
:104C800002B0B0BDCA0718BF13F4807240F0B980FB
:104C90004A0700F1BC80C1E0A16B0868426893B28A
:104CA000002BEDD0A08D8342EAD2E285C969B1F52F
:104CB000807F00F09D80206850E8030F216820F479
:104CC000807041E80302DAB1206850E8030F2168E0
:104CD00020F4807041E8030292B1206850E8030F8D
:104CE000216820F4807041E803024AB1206850E84E
:104CF000030F216820F4807041E80302002ADAD112
:104D0000206850E8050F216820F0010041E8050205
:104D1000DAB1206850E8050F216820F0010041E871
:104D2000050292B1206850E8050F216820F00100CB
:104D300041E805024AB1206850E8050F216820F0DB
:104D4000010041E80502002ADAD1206850E8050F89
:104D5000216820F0400041E80502DAB1206850E8FF
:104D6000050F216820F0400041E8050292B120685B
:104D700050E8050F216820F0400041E805024AB1E3
:104D8000206850E8050F216820F0400041E8050246
:104D9000002ADAD1202084F83E0000202063206819
:104DA00050E8030F216820F0100041E80302DAB157
:104DB000206850E8030F216820F0100041E803024A
:104DC00092B1206850E8030F216820F0100041E8FC
:104DD00003024AB1206850E8030F216820F0100058
:104DE00041E80302002ADAD1A06BFDF7E7FAA08DB3
:104DF000E18D401A81B2204602B0BDE8B040FFF715
:104E0000CBBE226C42F0010222644A0706D5BEF1F5
:104E1000000F03D0226C42F0020222648A0706D5FA
:104E2000BEF1000F03D0226C42F004022264BCF1F8
:104E3000000F09D545EA0E02B2FA82F2520903D1F7
:104E4000226C42F008022264226C002A3FF418AF60
:104E500011F0200118BF002D03D0204601F05AF8B0
:104E600020684069216C00F0400001F00801401802
:104E700000F0B380206850E8030F216820F49070A0
:104E800041E80302BAB3206850E8030F216820F418
:104E9000907041E8030272B3206850E8030F216864
:104EA00020F4907041E803022AB3206850E8030F11
:104EB000216820F4907041E80302002ADAD11AE058
:104EC000206850E8050F216820F0010041E8050244
:104ED000DAB1206850E8050F216820F0010041E8B0
:104EE000050292B1206850E8050F216820F001000A
:104EF00041E805024AB1206850E8050F216820F01A
:104F0000010041E80502002ADAD1206B012824D1F2
:104F1000206850E8030F216820F0100041E80302E8
:104F2000DAB1206850E8030F216820F0100041E852
:104F3000030292B1206850E8030F216820F01000AE
:104F400041E803024AB1206850E8030F216820F0CD
:104F5000100041E80302002ADAD1202084F83E0044
:104F6000002020632068406940063DD5206850E855
:104F7000050F216820F0400041E80502DAB1206801
:104F800050E8050F216820F0400041E8050292B189
:104F9000206850E8050F216820F0400041E8050234
:104FA0004AB1206850E8050F216820F0400041E830
:104FB0000502002ADAD1A06BB0B145F60971C0F63E
:104FC00000010165FDF73AFA00283FF459AEA06BE5
:104FD000016D02B0BDE8B04008472046FFF7DEFD96
:104FE0000020206402B0B0BD204602B0BDE8B04051
:104FF000FFF7D4BD401A216851E8031F226821F44D
:10500000907142E80313DBB1216851E8031F226865
:1050100021F4907142E8031393B1216851E8031F12
:10502000226821F4907142E803134BB1216851E8E2
:10503000031F226821F4907142E80313002BDAD198
:10504000216851E8051F226821F0010142E805139B
:10505000DBB1216851E8051F226821F0010142E817
:10506000051393B1216851E8051F226821F0010161
:1050700042E805134BB1216851E8051F226821F071
:10508000010142E80513002BDAD1202184F83E10FB
:1050900000212163216851E8031F226821F01001DB
:1050A00042E80313002B3FF4A5AE216851E8031F2B
:1050B000226821F0100142E80313002B3FF49AAE5E
:1050C000216851E8031F226821F0100142E8031310
:1050D000002B3FF48FAE216851E8031F226821F0B6
:1050E000100142E80313002BD4D183E6216A31F882
:1050F000022B6FF35F22426021628EE5002804BF1D
:105100000120704710B5044690F83D0028B90020F2
:1051100084F83C00204600F021F8242084F83D006B
:105120002068C16821F40051C160204600F070FF82
:105130002068016921F490410161416921F02A014F
:105140004161C16841F40051C16000202021206408
:1051500084F83D1084F83E1010BD000080B586B084
:10516000016841F20040C4F20100814201D006B062
:1051700080BD002143F630020191C4F2020253695E
:1051800000F5823043F020035361536903F020039C
:105190000193019B0191136843F04003136012686F
:1051A00002F040020192019A4FF4844201920222DD
:1051B000CDE90221032104910821059101A9FDF700
:1051C00063F9472000210022FDF7C6FA4720FDF7CA
:1051D000AFFA06B080BD00007047000070470000C5
:1051E000FEE700002DE9F04F87B0002443F63000C1
:1051F00006940194C4F20200016840F2000841F0F4
:10520000400101600168C4F2020801F0400101910F
:1052100001990194016808F5A05641F01001016060
:105220000168002201F010010191019901940168C7
:1052300044F2430741F001010160016801F00101FE
:10524000019101990194016841F480710160016844
:1052500001F48071019101990194016841F02001EC
:105260000160016801F02001019101990194016838
:1052700041F080010160016801F080010191019914
:105280000194016841F004010160016801F004012A
:10529000019101990194016841F0080101600168E0
:1052A00001F00801019101990194016841F00201A6
:1052B0000160006844F2430100F00200019001988F
:1052C0003046FDF7BBF908F500652846332100227A
:1052D0004FF03309FDF7B2F94046302100224FF07C
:1052E000300AFDF7ABF9029702AF4FF0010B3046E1
:1052F0003946CDE903B40594FDF7C6F8284639468A
:10530000CDE9029BCDE90444FDF7BEF8404639469D
:10531000CDE902ABCDE90444FDF7B6F807B0BDE82E
:10532000F08F000080B541F6986045F20001C2F2AE
:105330000000C4F201014FF48272002380E80E00E5
:1053400000F114014FF4007C4FF0300E81E808505A
:105350000A21C0E90333C0E90833C0E90A31FEF786
:1053600075FC002808BF80BDBDE88040FDF720B86F
:1053700080B58CB041F6F0600021C2F200004FF021
:1053800080424FF6FF73C0E900210322C0E90213F7
:10539000CDE9032101220623CDE9001101618161DC
:1053A000CDE90521CDE90731CDE9092103A90B9309
:1053B000FEF73AFF002818BFFCF7FAFF41F6F0604D
:1053C000C2F200006946FEF715FE002818BFFCF780
:1053D000EFFF0CB080BD0000B0B590B040F20045CA
:1053E00041F63870C4F200050021C2F2000002222A
:1053F00040F2E733CDE90811CDE90611CDE90411FA
:10540000C0E90052C0E9021301618161FFF740FA6F
:10541000002818BFFCF7CCFF41F63870C2F200003C
:1054200008A9FEF7E7FD002818BFFCF7C1FF6020C0
:1054300001900020CDE90200059041F63870C2F2DB
:10544000000001A90822FFF717F9002818BFFCF790
:10545000AFFF41F63874C2F2000401A920460C22C5
:10546000FFF70AF9002818BFFCF7A2FF206844F2F2
:105470000001C4F20101884215D0A84230D10020B9
:105480000B9043F63000C4F202000168032241F0A1
:10549000020101600068022100F002000B900B98ED
:1054A00005F5003012E000200B9043F63000C4F206
:1054B00002000168602241F01001016000680321D0
:1054C00000F010000B900B9805F503300B920222B0
:1054D0000C9200220F910BA9CDE90D22FCF7D4FF0D
:1054E00010B0B0BD80B58CB041F6807040F60002BF
:1054F0000021C2F20000C4F200024FF6FF73C0E9BF
:1055000000210322C0E90213CDE903210122062371
:10551000CDE9001101618161CDE90521CDE90731B6
:10552000CDE9092103A90B93FEF77EFE002818BFE1
:10553000FCF73EFF41F68070C2F200006946FEF7BC
:1055400059FD002818BFFCF733FF0CB080BD0000E8
:1055500080B58CB041F6C87040F600420021C2F21E
:105560000000C4F200024FF6FF73C0E900210322DD
:10557000C0E90213CDE9032101220623CDE9001180
:1055800001618161CDE90521CDE90731CDE909212D
:1055900003A90B93FEF748FE002818BFFCF708FF8D
:1055A00041F6C870C2F200006946FEF723FD0028EC
:1055B00018BFFCF7FDFE0CB080BD000080B582B0C6
:1055C00042F210000021C2F2000041F200024FF04E
:1055D000310CCDE90011C4F2000241F61F43C0E9CD
:1055E000021C8021C0E900238161FEF75DFD0028D7
:1055F00018BFFCF7DDFE42F21000C2F2000069465F
:10560000FEF7F8FC002818BFFCF7D2FE02B080BD00
:1056100080B582B042F258000021C2F2000041F28F
:1056200000424FF0310CCDE90011C4F2000241F606
:105630001F43C0E9021C8021C0E900238161FEF7FD
:1056400033FD002818BFFCF7B3FE42F25800C2F247
:1056500000006946FEF7CEFC002818BFFCF7A8FE44
:1056600002B080BD10B58CB042F2A00040F2004103
:105670000024C2F20000C4F20101C0E900140321B9
:105680004FF6FF72CDE903140121C0E90242CDE9D2
:1056900005140622CDE9091403A9CDE90044C0E9A7
:1056A00004448461CDE907240B92FEF7BDFD002878
:1056B00018BFFCF77DFE42F2A000C2F2000069466E
:1056C000CDE90044FEF796FC002818BFFCF770FEF9
:1056D0000CB010BDB0B58CB044F2000542F2E80049
:1056E000C4F201050024C2F20000022140F2E732B8
:1056F000CDE90544CDE90344C0E90051C0E90242C7
:1057000004618461FFF7C4F8002818BFFCF750FE5D
:105710006020CDE9000442F2E800C2F200006946D0
:10572000002202940494FEF7A7FF002818BFFCF79C
:105730003FFE42F2E804C2F2000469462046042219
:10574000FEF79AFF002818BFFCF732FE2068A84237
:1057500019D040F20041C4F20001884230D100204B
:10576000079043F63000C4F202000168032241F0C2
:10577000020101600068022100F002000790079812
:1057800005F5444012E00020079043F63000C4F2D3
:1057900002000168602241F01001016000680321ED
:1057A00000F010000790079805F55040079202227C
:1057B000089200220B9107A9CDE90922FCF764FEAB
:1057C0000CB0B0BD80B542F2301041F20041C2F2DF
:1057D0000000C4F2010100234FF00C0C4FF4E13241
:1057E00080E80E00C0E90333C0E905C3C361FFF7D9
:1057F00085FC002808BF80BDBDE88040FCF7D8BD0F
:1058000080B541F2B06040F20401C2F20000C2F281
:105810000001002201F024F9002818BFFCF7C8FDA0
:1058200041F2B06040F22401C2F20000C2F2000175
:1058300001F070FB002818BFFCF7BAFD41F2B06020
:1058400040F2C001C2F20000C2F2000100F00CFE02
:10585000002818BFFCF7ACFD41F2B060C2F20000B6
:1058600001F082FB002808BF80BDBDE88040FCF746
:105870009FBD0000FEE70000FEE7000041F68C102F
:10588000C2F20000FDF758B9704700002DE9F0435F
:1058900081B01E4690460D468146FCF7D5FE301A73
:1058A00000EB0807FCF7D0FE40F22001C2F2000135
:1058B0000968C1F3CB3179430091D9F800108A68A7
:1058C0002A40AA421AD1064608F1010404E000BFAA
:1058D00088682840A84211D1002CF9D0FCF7B4FE0A
:1058E000801BB8420ED2009800990028A1F1010156
:1058F0000091D9F8001008BF0746E9E7002001B081
:10590000BDE8F083D9E900014268B1F5827F22F059
:10591000E00242600BD1D9F80810B1F5004F02D077
:10592000B1F5806F03D1016821F040010160D9F821
:105930002810B1F5005F07D1016821F40051016022
:10594000016841F400510160012089F851000020F4
:1059500089F85000032001B0BDE8F08370470000D3
:105960009FED182A30EE603A21EE022A32EE034A09
:1059700042F21C20B1EE444AC2F2000080ED094A16
:105980009FED114A30EE200A21EE041A42F27420F3
:1059900031EE004AC2F2000080ED094A32EE000A00
:1059A00042F2F010B1EE400AC2F2000080ED090AA6
:1059B00042F2482031EE030AC2F2000080ED090AEB
:1059C000704700BF105839BE1058393E10B5044614
:1059D000D4E90723D4E9051CD21A511A40F2041362
:1059E00001EE101A40F20011C2F20003C2F20001EF
:1059F00093ED000A91ED002A03EE102AB8EEC11AC9
:105A0000B8EEC33A22EE032A20EE010A30EE020A73
:105A1000BDEEC00A10EE101A6261614440F2E73236
:105A2000C0689142B8BF0A464FF61941CFF6FF71E0
:105A30008A42D8BF0A46B2F1FF3FA26115DD218A32
:105A40000122FCF7FBFDE068618A0022FCF7F6FD0D
:105A50006068082821D0042824D000282068A16983
:105A6000006814BF0164416310BD618A0122FCF724
:105A7000E5FDE068218A0022FCF7E0FD6068082867
:105A800015D0042819D000282068A1690068C1F148
:105A9000000114BF0164416310BD2068A169006862
:105AA000C16310BD2068A1690068816310BD2068D2
:105AB000A16900684942C16310BD2068A1690068FE
:105AC0004942816310BD000010B542F27814C2F261
:105AD000000494ED060A94ED0D1A9FED232A30EE92
